:020000040800F2
:10000000B84A0020092A00082D3600082F360008BB
:1000100033360008373600083B3600080000000081
:100020000000000000000000000000003F36000853
:1000300041360008000000003B5A00083103000868
:10004000232A0008232A0008232A0008232A00085C
:10005000232A0008232A0008232A0008232A00084C
:10006000232A0008232A0008232A0008232A00083C
:10007000232A0008232A0008232A0008232A00082C
:10008000232A0008232A0008232A0008232A00081C
:10009000232A0008232A0008232A0008232A00080C
:1000A000232A0008232A0008232A0008232A0008FC
:1000B000232A0008232A0008232A0008232A0008EC
:1000C000232A0008232A0008232A0008232A0008DC
:1000D000232A000843360008232A0008232A0008A0
:1000E000232A0008232A0008232A000800F002F827
:1000F00000F04DF80AA090E8000C82448344AAF175
:100100000107DA4501D100F042F8AFF2090EBAE872
:100110000F0013F0010F18BFFB1A43F0010318473B
:100120008C820000AC820000103A24BF78C878C1ED
:10013000FAD8520724BF30C830C144BF04680C60ED
:10014000704700000023002400250026103A28BF35
:1001500078C1FBD8520728BF30C148BF0B60704739
:10016000662908F05680002070471FB506F0ECF9AC
:1001700004000020002107F007F9401C6060002007
:10018000002107F0EBF8E0601FBD10B510BD06F0D0
:1001900093FC1146FFF7E9FF00F0A6F806F0BAFC61
:1001A00003B4FFF7F2FF03BC06F0FAFC00B585B01C
:1001B00000F0A7FB032000214FF48062604BCDE9E3
:1001C0000132CDE90310092003465E4A00905E48E3
:1001D00005F043F8032000214FF480625B4BCDE92A
:1001E0000132CDE9031007200346594A00905948CF
:1001F00005F033F805B000BD10B500F082FB56489D
:100200000078012801D1FF2010BD0020FCE710B5C7
:10021000A021514805F02AFE00204F49087048806F
:10022000087148718871C8713C20A1F86E000120E6
:1002300004F071FD49490860012004F06CFD484953
:100240000860012004F067FD4649086000F026FEC2
:1002500010BD10B500F054FB00F0A6FA4FF4E130E9
:1002600002F004F900F065FC02F0B8FA10BD0024B9
:1002700000BF03F05FFCFFF7ECFF032000F064FA1F
:1002800002F090FAFFF7C3FFFFF7B6FF04461CB178
:10029000022000F059FA02E0012000F055FAFFF7C1
:1002A00085FFFF2005F002FA00BF00208047FCE731
:1002B00010B56FF0040002F016FC2B4800682B49C3
:1002C000B0FBF1F441F2883044434FF0E020006984
:1002D00040F002004FF0E0210861084644610069E7
:1002E00040F00100086110BD00B585B020A11F20BD
:1002F00005F0B4FD4FF4A06002F0A6FBFFF7D8FFB5
:1003000003F0DBFA032000214FF40072194BCDE912
:100310000132CDE9031005200346174A0090AFF2E1
:10032000B10004F09AFF03F0EDFB002005B000BD22
:1003300010B503F0D8FA03F01CFC03F0EFFA10BD7F
:10034000A00800209C1800207D030008A0180020B1
:100350009C28002025040008A03800200000002070
:1003600004000020080000201C00002000127A0079
:1003700043000000A00000209C08002000BF0024D3
:100380000125002600BF00F0BCFA00BF00F0B9FA5A
:10039000601CC4B2022C09DB0DB9012000E0002072
:1003A000054600242946012000F02DFA01201949B4
:1003B000087000BF00F0D8FB174908800846B0F964
:1003C0000000002801DA00200880052000F0D2FAA1
:1003D0000646304607F0C4FD1049086002F0B0F848
:1003E0000A2300221146104605F05AFACEE710B54E
:1003F000044600F086FA002010BD0246084890F836
:100400005A0008B9002070478A4201D80020FAE754
:10041000FF20F8E73000002010000020140000202A
:10042000A03800200024002500BF14210F4800F050
:1004300076FD0446002C03DD21460C4800F036FC16
:10044000681CC5B20A2300221146104605F028FA9E
:10045000074800780028E8D00A2DE6DB0020044990
:100460000870002500F0E4FCDFE7000040390020C0
:100470003000002010B54FF0E022126922F0040293
:100480004FF0E0231A61C31700EB5373C3F3C703A4
:10049000324C2370C31700EB5373D91041F28832EA
:1004A000514305222E4B1A804FF0E022126942F090
:1004B00002024FF0E0231A611A465161126942F0BC
:1004C00001021A6110BD2DE9F047074600264FF0E2
:1004D000E020D0F814902148007807FB00F800BF16
:1004E00003F054FA4FF0E020856911E04FF0E0206E
:1004F0008469AC420CD0AC4202D2281B064403E013
:10050000A9EB0400284406442546464500D300E0F4
:10051000ECE700BF03F07FFABDE8F08770B5044652
:1005200010480078012811D10D480088844206DB6C
:100530000B48008894FBF0F5284605F07FF9084841
:10054000008894FBF0F100FB114084B24FF47A7103
:1005500004FB01F0FFF7B7FF70BD0000180000209A
:100560001A0000207E0000200CB5002001900090B1
:100570006C48006840F480306A49086000BF6948F0
:10058000006800F4003000900198401C0190009831
:1005900018B90198B0F5A06FF1D16248006800F475
:1005A000003010B10120009001E000200090009880
:1005B000012843D15C48006840F010005A490860A7
:1005C0000846006820F0030008600846006840F014
:1005D0000200086053484068524948600846406835
:1005E00048600846406840F48060486008464068BB
:1005F00020F47C1048600846406840F4E8104860E9
:100600000846006840F08070086000BF45480068F8
:1006100000F000700028F9D04248406820F0030044
:10062000404948600846406840F00200486000BF0A
:100630003C48406800F00C000828F9D10CBD10B50A
:10064000FFF792FF10BD10B53648006840F001007A
:1006500034490860084640683449084031494860D8
:1006600008460068324908402E490860084600687C
:1006700020F4802008600846406820F4FE004860AE
:100680004FF41F008860FFF7DAFF4FF00060294940
:10069000086010BD10B5002100200022214B5B68CE
:1006A00003F00C0121B1042906D0082928D107E064
:1006B000214B224C236027E01F4B204C236023E07A
:1006C000184B5B6803F47010164B5B6803F48032C0
:1006D000022303EB904022B9194B4343174C23608C
:1006E0000DE0104B5B6803F4003323B1144B43431C
:1006F000124C236003E0104B4343104C236003E093
:100700000D4B0E4C236000BF00BF064B5B68C3F36C
:1007100003130C4CE15C094B1B68CB40074C236076
:1007200010BD000000100240002002400000FFF851
:10073000FFFFF6FE08ED00E000127A001C0000202A
:1007400000093D002000002010B50446012C08D10E
:100750000102454802F0F5FA6102434802F0EFFA5F
:1007600021E0022C08D1E1013F4802F0E8FA210221
:100770003D4802F0E6FA16E0032C0AD14FF400716E
:10078000394802F0DEFA4FF48071374802F0D9FAA6
:1007900009E04FF40071344802F0D1FA4FF480714F
:1007A000314802F0CCFA10BD08B50121082002F052
:1007B000D5FC4FF40070ADF8000010208DF8030058
:1007C00002208DF802006946274802F00BFA4FF428
:1007D0000071254802F0B3FA4FF48070ADF80000C4
:1007E00010208DF8030002208DF8020069461E4893
:1007F00002F0F8F94FF480711B4802F0A0FA0020D3
:10080000FFF7A2FF08BD70B505460C4665B92CB9C7
:100810004FF48071144802F094FA12E04FF48071A2
:10082000114802F08CFA0CE0012D0AD124B96902BA
:100830000D4802F086FA04E04FF400710A4802F015
:100840007EFA70BD10B500210846FFF7DCFF4FF4BB
:100850007A7000F019F801210020FFF7D4FF4FF45F
:100860007A7000F011F810BD000C01400022002148
:1008700007E0002201E0531CDAB2692AFBDB4B1CC3
:1008800099B28142F5DB704730B50446002500BFC0
:1008900004E06420FFF7EAFF681C85B2A542F8DB9C
:1008A00030BD70B50446002500F02BF800BF07E00E
:1008B0000A2300221146104604F0F2FF681C85B29C
:1008C0000A2094FBF0F0A842F2DC70BD10B504469B
:1008D0002046FFF7D9FF10BD10B504462046FFF7AC
:1008E000E0FF10BD0022002107E0002201E0531CC0
:1008F000DAB20B2AFBDB4B1C99B28142F5DB704765
:10090000704770470020704770B5054600260024E8
:10091000FFF7F7FF01F090FF912002F022F801F0BD
:10092000CEFF012002F041F804464FF6FF7000EAC6
:100930000424012002F039F80443012002F035F8C4
:10094000064601F092FF06F0800018B920B2288018
:10095000002070BDFF20FCE710B501F06DFF902076
:1009600001F0FFFF01F0ABFF8C2001F0FAFF01F076
:10097000A6FF10BDF8B50446002500200090002712
:1009800000260EE06846FFF7BFFF074607B106E006
:10099000BDF9000005440520FFF7C0FD00BF701C35
:1009A000C6B2A642EEDB95FBF4F000B2F8BD000043
:1009B00008B50121042002F0D1FB0120ADF80000B0
:1009C00010208DF8030003208DF8020069468A4844
:1009D00002F008F908BD10B5FFF7EAFF00208749CB
:1009E00008604FF44870FFF77DFF01208449C1F88B
:1009F00080013220FFF776FF10BD08B501210420E9
:100A000002F0ACFB0120ADF8000048208DF8030097
:100A10006946794802F0E6F808BD10B50024FFF7F2
:100A2000ECFF04E0601CC4B20520FFF75BFF7348D5
:100A30008038006808B1C82CF4DBC82C01DB012029
:100A400010BD002404E0601CC4B20520FFF74AFF7B
:100A50006A488038006808B9F02CF4DBF02C01DB20
:100A60000120EDE70020EBE710B5FFF7A1FF002024
:100A7000624908600220FFF735FF01206049C1F894
:100A80008001FFF7BAFF0220FFF72CFF5B48803898
:100A9000006808B1012400E000241420FFF722FFC1
:100AA000204610BD70B50026012508E0FFF7DCFFE9
:100AB0000446E00140EA6600C6B2681CC5B2082DD3
:100AC000F4DD304670BD70B50446FFF771FF0125B7
:100AD00020E004F0010664106EB100204749086070
:100AE0000520FFF7FFFE01204549C1F880013C20A9
:100AF000FFF7F8FE0CE00020404908603C20FFF7BB
:100B0000F1FE01203E49C1F880010520FFF7EAFE11
:100B1000681CC5B2082DDCDD70BD10B5FFF75BFFAA
:100B2000FFF77BFFCC20FFF7CEFF4420FFF7CBFF82
:100B300010BD08B50121042002F010FB0120ADF822
:100B4000000010208DF8030003208DF80200694694
:100B5000294802F047F80121274802F0F0F8FFF792
:100B60003AFFFFF75AFF08BD2DE9F84FFFF7D5FF11
:100B70004FF47A70FFF7AAFEFFF72DFFFFF74DFF46
:100B8000CC20FFF7A0FFBE20FFF79DFFFFF78AFFF5
:100B90008346FFF787FF0446072C08DDE043C4B215
:100BA0006FEA0B0000F0FF0B4FF0000A01E04FF07E
:100BB000010AA1464FEA09200FFA80F909EB0B0060
:100BC0000FFA80F9484607F0CBF9009007F03CF89F
:100BD000074600220B4B06F04FFE054606F01CFEB2
:100BE0000FFA80F9BAF1000F02D04846BDE8F88F3D
:100BF000C9F1000000B2F9E700080140800121427C
:100C0000000021420000E43F704770477047704782
:100C100010B5994B1A600123984C237010BD704792
:100C200038B50446002000906A4695A1204605F09C
:100C300051F8009838BD70B505460E46144620465A
:100C4000FFF7EEFF8C49086008460068642802D967
:100C50006420086005E08848006810B900208649D3
:100C6000086001208549087070BD10B558B9052984
:100C700009D1814B1B68642B10D27F4B1B685B1C16
:100C80007D4C23600AE048B9062907D17A4B1B68DE
:100C900023B1794B1B685B1E774C23600123774C93
:100CA000237010BD70477047704770472DE9F047BB
:100CB00004460D466678E7792079E17840EA012814
:100CC000A079617940EA0129207A0106607A41EA37
:100CD0000041A07A41EA0020E17A40EA010A0D2EA3
:100CE0002DD008DC012E10D0032E0FD00B2E2AD0D1
:100CF0000C2E77D11FE00F2E2DD0B12E31D0B22E79
:100D000070D14046FFF7D1FF6DE000BF5D4B5B79CE
:100D1000DFF870C19CF804C043EA0C22594BDB7821
:100D2000DFF860C19CF802C043EA0C21554B5878AB
:100D3000FFF7BAFF57E00120FFF7B5FF53E00020AF
:100D4000FFF7B1FF4FE0A81F82B24E49891C012076
:100D5000FFF7A8FF47E0002211461046FFF7A2FF69
:100D600041E0A7F110000C2839D2DFE800F0060CB2
:100D700013191F3838333838252C627A49464046D3
:100D8000FFF773FF2CE004F1080249464046FFF7E5
:100D900052FF25E0524649464046FFF740FF1FE01C
:100DA000524649464046FFF733FF19E0524649464E
:100DB0004046FFF72CFF13E0637A227A494640460B
:100DC000FFF724FF0CE0227A49464046FFF71DFF5B
:100DD00006E007E049464046FFF716FF00E000BF87
:100DE00000BF00E000BF00BFBDE8F0872DE9FE4F67
:100DF00081468A46144600200090019002902046C9
:100E000007F0AEF8834606F01FFF074600221E4B90
:100E100006F0AAFB05462A460B461CA1684604F0CC
:100E200097FE6A465146484600F008FFBDE8FE8F2F
:100E300010B51848006807F073F8044622460121EF
:100E4000002000F042FF1348006807F04DF8044608
:100E5000224607210020FFF7C9FF0F48B0F9002004
:100E60000221002000F031FF0B48B0F900200421DE
:100E70000020FFF7BBFF10BD340000203000002031
:100E8000256C6400403900200000244025322E31BA
:100E9000660000004000002010000020002058499B
:100EA000488008805749087057490880704710B536
:100EB000534A1288521C502392FBF3F403FB142272
:100EC00091B24F4A52888A4205D04D4A1388121D6A
:100ED000D054121F118010BD49494988484A1288D0
:100EE00091420ED046494A88091D895C01704449E7
:100EF0004988491C502291FBF2F302FB1311404A2E
:100F0000518070473E48008850303D494988401A1A
:100F1000502190FBF1F201FB120080B27047F8B54E
:100F200004460E4600250020009062E06846FFF768
:100F3000D3FF3548008820B99DF80000EE2800D086
:100F400057E031480088B04208DA9DF800102E487A
:100F500002880088401C2C4B1880A1549DF800008A
:100F6000FF2813D127480078022802D0032808D18F
:100F700003E003202349087007E00420214908709A
:100F800003E001201F49087000BF1AE09DF800002F
:100F9000FC2813D11B480078012802D0032808D16F
:100FA00003E002201749087007E002201549087085
:100FB00003E000201349087000BF02E0002011493F
:100FC000087010480078042812D10F4805880020C6
:100FD0000C4908700C490880681F81B2601C00F041
:100FE00037F808B90020F8BDA81E85B22846FAE7F0
:100FF00000BFFFF787FF002898DC0020F3E7000020
:1010000054390020380000203A000020F0B5034693
:1010100000201AE0178813F800C087EA0C07178031
:1010200000240EE0168806F0010517887F1017804F
:101030002DB117884AF2010C87EA0C071780671C4C
:10104000BCB2082CEEDB471CB8B28842E2DBF0BD34
:10105000F8B505460C4600264FF6FF700090022CAE
:101060000BDB601E295CA01E285C41EA0026A01E46
:1010700081B26A462846FFF7C9FFBDF800008642E4
:1010800001D10120F8BD0020FCE701B5FE4A012195
:101090006846FFF7BBFF9DF8000001F038FA08BD75
:1010A00010B5EE20FFF7F1FF4FF6FF70F64908800C
:1010B00010BD10B5F4480488200AFFF7E6FFE0B23F
:1010C000FFF7E3FFFF20FFF7E0FFFC20FFF7DDFF66
:1010D000FF20FFF7DAFFFF20FFF7D7FF10BD014623
:1010E00006E04FF47A7200E0521E002AFCDC491E32
:1010F0000029F6DC704710B5044603E02078FFF7BE
:10110000C4FF641C20780028F8D110BD70B50546D6
:101110000E46002404E0285DFFF7B7FF601C84B290
:10112000B442F8DB70BD70B505460E4600240AE0F7
:1011300035F81410080AFFF7A8FF15F81400FFF798
:10114000A4FF601C84B2B442F2DB70BD10B5FFF79F
:10115000A7FF0020FFF799FFFFF7ABFF10BD10B509
:101160000446FFF79DFF4120FFF78FFF200AFFF79E
:101170008CFFE0B2FFF789FFFFF79BFF10BD10B5B2
:101180000446FFF78DFF4220FFF77FFF200AFFF79D
:101190007CFFE0B2FFF779FFFFF78BFF10BD70B562
:1011A00006460C461546FFF77BFFA320FFF76DFFB1
:1011B000F0B2FFF76AFF200AFFF767FFE0B2FFF720
:1011C00064FF280AFFF761FFE8B2FFF75EFFFFF751
:1011D00070FF70BD10B5FFF763FF0120FFF755FFEB
:1011E000FFF767FF10BD70B504460D46FFF758FFC7
:1011F0004320FFF74AFFE0B2FFF747FFE8B2FFF7EF
:1012000044FFFFF756FF70BD70B506460C46154605
:10121000FFF746FF4520FFF738FFF0B2FFF735FF35
:10122000200AFFF732FFE0B2FFF72FFF280AFFF78F
:101230002CFFE8B2FFF729FFFFF73BFF70BD70B549
:1012400004460D46FFF72CFF4420FFF71EFF200A3F
:10125000FFF71BFFE0B2FFF718FF280AFFF715FFA3
:10126000E8B2FFF712FFFFF724FF70BD2DE9F04150
:1012700004460D4616461F46DDF81880FFF710FF9E
:101280002020FFF702FF200AFFF7FFFEE0B2FFF782
:10129000FCFE280AFFF7F9FEE8B2FFF7F6FEF0B20F
:1012A000FFF7F3FEF8B2FFF7F0FE4046FFF723FF2B
:1012B000FFF7FFFEBDE8F0812DE9F04106460C4640
:1012C00015461F46DDF81880FFF7EAFE2120FFF7DC
:1012D000DCFEF0B2FFF7D9FE200AFFF7D6FEE0B23F
:1012E000FFF7D3FE280AFFF7D0FEE8B2FFF7CDFEE6
:1012F000F8B2FFF7CAFE08F0FF00FFF7C6FEFFF7DF
:10130000D8FEBDE8F08170B504460D46FFF7C8FE73
:101310003120FFF7BAFE200AFFF7B7FEE0B2FFF771
:10132000B4FEE8B2FFF7B1FEFFF7C3FE70BD2DE9D2
:10133000F04104460D4616461F46FFF7B1FE322027
:10134000FFF7A3FE200AFFF7A0FEE0B2FFF79DFE25
:10135000280AFFF79AFEE8B2FFF797FE300AFFF778
:1013600094FEF0B2FFF791FEF8B2FFF78EFEFFF7A2
:10137000A0FEBDE8F0812DE9F05F04460D4616465B
:101380001F46DDE90CABDDE90A89FFF789FE332052
:10139000FFF77BFE200AFFF778FEE0B2FFF775FE4D
:1013A000280AFFF772FEE8B2FFF76FFE300AFFF778
:1013B0006CFEF0B2FFF769FE380AFFF766FEF8B27E
:1013C000FFF763FE4FEA1820FFF75FFE08F0FF000B
:1013D000FFF75BFE4FEA1920FFF757FE09F0FF0009
:1013E000FFF753FE4FEA1A20FFF74FFE0AF0FF0007
:1013F000FFF74BFE0BF0FF00FFF747FEFFF759FE2C
:10140000BDE8F09F2DE9F04104460D4616461F4603
:10141000DDF81880FFF744FE8020FFF736FE200A33
:10142000FFF733FEE0B2FFF730FE280AFFF72DFE8C
:10143000E8B2FFF72AFE300AFFF727FEF0B2FFF707
:1014400024FEF8B2FFF721FE08F0FF00FFF71DFEB3
:10145000FFF72FFEBDE8F08170B504460D46FFF79B
:101460001FFE5020FFF711FE200AFFF70EFEE0B22C
:10147000FFF70BFE280AFFF708FEE8B2FFF705FEAC
:10148000FFF717FE70BD00003C0000202DE9F04181
:1014900004460D4616461F46FFF702FE5120FFF791
:1014A000F4FD200AFFF7F1FDE0B2FFF7EEFD280A98
:1014B000FFF7EBFDE8B2FFF7E8FD300AFFF7E5FDC7
:1014C000F0B2FFF7E2FD380AFFF7DFFDF8B2FFF7F1
:1014D000DCFDFFF7EEFDBDE8F08170B505460E4678
:1014E0001446FFF7DDFD6320FFF7CFFDE8B2FFF7FD
:1014F000CCFD4FF6FF7000EA44013046FFF713FEC3
:10150000FFF7D7FD70BD2DE9F04104460D461646A4
:101510001F46FFF7C5FD5920FFF7B7FD200AFFF76B
:10152000B4FDE0B2FFF7B1FD280AFFF7AEFDE8B267
:10153000FFF7ABFD39463046FFF7F5FDFFF7B9FD84
:10154000BDE8F0812DE9F04104460D4616461F46E0
:10155000FFF7A6FD7520FFF798FD200AFFF795FD20
:10156000E0B2FFF792FD280AFFF78FFDE8B2FFF720
:101570008CFD39463046FFF7D6FDFFF79AFDBDE8F2
:10158000F0812DE9F04104460D4616461F46FFF74F
:1015900087FD7620FFF779FD200AFFF776FDE0B2A0
:1015A000FFF773FD280AFFF770FDE8B2FFF76DFD46
:1015B00039463046FFF7B7FDFFF77BFDBDE8F08108
:1015C0002DE9F04104460D4616461F46FFF768FD1B
:1015D0007720FFF75AFDE0B2FFF757FDE8B2FFF7BB
:1015E00054FDF0B2FFF751FDF8B2FFF74EFDFFF7E3
:1015F00060FDBDE8F08170B505460C46FFF750FD73
:101600006820FFF742FD4FF6FF7000EA44012846CC
:10161000FFF789FDFFF74DFD70BD70B505460C461F
:10162000FFF73EFD6920FFF730FD4FF6FF7000EA3F
:1016300044012846FFF777FDFFF73BFD70BD70B50D
:1016400004460D461646FFF72BFD5220FFF71DFD01
:10165000200AFFF71AFDE0B2FFF717FD280AFFF78F
:1016600014FDE8B2FFF711FD300AFFF70EFDF0B2EE
:10167000FFF70BFDFFF71DFD70BD70B504460D466D
:101680001646FFF70DFD5320FFF7FFFC200AFFF77A
:10169000FCFCE0B2FFF7F9FC280AFFF7F6FCE8B221
:1016A000FFF7F3FC300AFFF7F0FCF0B2FFF7EDFCB8
:1016B000FFF7FFFC70BD2DE9F04104460D461646CC
:1016C0001F46DDF81880FFF7EBFC6720FFF7DDFC15
:1016D000200AFFF7DAFCE0B2FFF7D7FC280AFFF791
:1016E000D4FCE8B2FFF7D1FC300AFFF7CEFCF0B231
:1016F000FFF7CBFC380AFFF7C8FCF8B2FFF7C5FCD0
:101700004FEA1820FFF7C1FC08F0FF00FFF7BDFC0F
:10171000FFF7CFFCBDE8F0812DE9F04104460D460E
:1017200016461F46FFF7BCFC5420FFF7AEFC200A0C
:10173000FFF7ABFCE0B2FFF7A8FC280AFFF7A5FC17
:10174000E8B2FFF7A2FC300AFFF79FFCF0B2FFF708
:101750009CFC380AFFF799FCF8B2FFF796FCFFF7FC
:10176000A8FCBDE8F0812DE9F04104460D4616467F
:101770001F46FFF795FC5520FFF787FC200AFFF76F
:1017800084FCE0B2FFF781FC280AFFF77EFCE8B298
:10179000FFF77BFC300AFFF778FCF0B2FFF775FC2F
:1017A000380AFFF772FCF8B2FFF76FFCFFF781FC15
:1017B000BDE8F0812DE9F04104460D4616461F466E
:1017C000FFF76EFC5620FFF760FC200AFFF75DFC78
:1017D000E0B2FFF75AFC280AFFF757FCE8B2FFF720
:1017E00054FC300AFFF751FCF0B2FFF74EFC380A08
:1017F000FFF74BFCF8B2FFF748FCFFF75AFCBDE8D7
:10180000F0812DE9F04104460D4616461F46FFF7CC
:1018100047FC5720FFF739FC200AFFF736FCE0B2FF
:10182000FFF733FC280AFFF730FCE8B2FFF72DFC86
:10183000300AFFF72AFCF0B2FFF727FC380AFFF75F
:1018400024FCF8B2FFF721FCFFF733FCBDE8F08180
:1018500010B50446FFF724FC6020FFF716FCE0B249
:10186000FFF713FCFFF725FC10BD10B50446FFF78A
:1018700017FC6120FFF709FCE0B2FFF706FCFFF759
:1018800018FC10BD2DE9F04104460D4616461F46D2
:10189000FFF706FC6520FFF7F8FB200AFFF7F5FBD2
:1018A000E0B2FFF7F2FB280AFFF7EFFBE8B2FFF721
:1018B000ECFB300AFFF7E9FBF0B2FFF7E6FB380A72
:1018C000FFF7E3FBF8B2FFF7E0FBFFF7F2FBBDE841
:1018D000F0812DE9F0410746884615461E46002452
:1018E0000FB144F00104B8F1000F01D044F002043C
:1018F00015B144EA8500C4B216B144EA4610C4B238
:10190000FFF7CEFB7020FFF7C0FBE0B2FFF7BDFB97
:10191000FFF7CFFBBDE8F08110B5FFF7C1FB7220E8
:10192000FFF7B3FBFFF7C5FB10BD10B5FFF7B8FB22
:101930007320FFF7AAFBFFF7BCFB10BD10B5FFF744
:10194000AFFB0920FFF7A1FBDE20FFF79EFBED2098
:10195000FFF79BFB1320FFF798FB3120FFF795FB68
:10196000FFF7A7FB10BD10B5FFF79AFB0820FFF7A4
:101970008CFBA520FFF789FB5A20FFF786FB5F2031
:10198000FFF783FBF520FFF780FBFFF792FB10BD0D
:1019900010B50446FFF784FBA020FFF776FBE0B20A
:1019A000FFF773FBFFF785FB10BD10B50446FFF78B
:1019B00077FBA120FFF769FBE0B2FFF766FBFFF7BB
:1019C00078FB10BD10B50446FFF76AFBA220FFF7B5
:1019D0005CFBE0B2FFF759FBFFF76BFB10BD70B586
:1019E00004460D46FFF75CFBA420FFF74EFBE0B278
:1019F000FFF74BFBE8B2FFF748FBFFF75AFB70BD60
:101A000010B50446FFF74CFB0520FFF73EFBE0B2A4
:101A1000FFF73BFBFFF74DFB10BD2DE9F0470546F7
:101A20000E4617461C46DDE90889FFF739FB85207D
:101A3000FFF72BFBE8B2FFF728FBF0B2FFF725FB1F
:101A4000F8B2FFF722FB200AFFF71FFBE0B2FFF717
:101A50001CFB4FEA1820FFF718FB08F0FF00FFF708
:101A600014FB4FEA1920FFF710FB09F0FF00FFF706
:101A70000CFBFFF71EFBBDE8F08770B504460E4671
:101A80001546FFF70DFB8720FFF7FFFA200EFFF743
:101A9000FCFAC4F30740FFF7F8FAC4F30720FFF796
:101AA000F4FAE0B2FFF7F1FA31462846FFF72EFBD1
:101AB000FFF7FFFA70BD70B504460D46FFF7F0FA68
:101AC0008820FFF7E2FA200EFFF7DFFAC4F30740A1
:101AD000FFF7DBFAC4F30720FFF7D7FAE0B2FFF70E
:101AE000D4FA280AFFF7D1FAE8B2FFF7CEFAFFF7E7
:101AF000E0FA70BD10B5FFF7D3FAB120FFF7C5FAD1
:101B00000120FFF7C2FAFFF7D4FA10BD10B5044662
:101B1000FFF7C6FAB120FFF7B8FA0020FFF7B5FAD1
:101B2000200AFFF7B2FAE0B2FFF7AFFAFFF7C1FA07
:101B300010BD10B50446FFF7B3FAB320FFF7A5FABE
:101B4000E0B2FFF7A2FAFFF7B4FA10BD70B5044691
:101B50000D461646FFF7A4FAB120FFF796FA0220C9
:101B6000FFF793FA200AFFF790FAE0B2FFF78DFA39
:101B7000280AFFF78AFAE8B2FFF787FAF0B2FFF710
:101B800084FAFFF796FA70BD70B504460D46164606
:101B9000FFF786FAB120FFF778FA0320FFF775FA0E
:101BA000200AFFF772FAE0B2FFF76FFA280AFFF790
:101BB0006CFAE8B2FFF769FAF0B2FFF766FAFFF7DE
:101BC00078FA70BD70B504460D461646FFF768FA00
:101BD000B120FFF75AFA0420FFF757FA200AFFF75F
:101BE00054FAE0B2FFF751FA280AFFF74EFAE8B2CA
:101BF000FFF74BFAF0B2FFF748FAFFF75AFA70BD59
:101C000070B504460D461646FFF74AFAB120FFF7B5
:101C10003CFA1020FFF739FA200AFFF736FAE0B253
:101C2000FFF733FA280AFFF730FAE8B2FFF72DFA88
:101C3000F0B2FFF72AFAFFF73CFA70BD70B5044620
:101C40000D461646FFF72CFAB120FFF71EFA1020BA
:101C5000FFF71BFA200AFFF718FAE0B2FFF715FAB0
:101C6000280AFFF712FAE8B2FFF70FFA3046FFF73B
:101C700042FAFFF71EFA70BD70B505460E461446CF
:101C8000FFF70EFAB120FFF700FA1020FFF7FDF979
:101C9000280AFFF7FAF9E8B2FFF7F7F9300AFFF779
:101CA000F4F9F0B2FFF7F1F9200EFFF7EEF9C4F303
:101CB0000740FFF7EAF9C4F30720FFF7E6F9E0B2BF
:101CC000FFF7E3F9FFF7F5F970BD2DE9F04105469F
:101CD0000E461446FFF7E4F9B120FFF7D6F91020BD
:101CE000FFF7D3F9280AFFF7D0F9E8B2FFF7CDF9EB
:101CF000300AFFF7CAF9F0B2FFF7C7F90A20B4FBC0
:101D0000F0F0070E3846FFF7C0F90A20B4FBF0F0F8
:101D1000C0F307473846FFF7B8F90A20B4FBF0F0E4
:101D2000C0F307273846FFF7B0F90A20B4FBF0F0FC
:101D3000C7B23846FFF7A9F9FFF7BBF9BDE8F08154
:101D400070B505460E461446FFF7AAF9B120FFF715
:101D50009CF91020FFF799F9280AFFF796F9E8B2E5
:101D6000FFF793F9300AFFF790F9F0B2FFF78DF91A
:101D7000200EFFF78AF9C4F30740FFF786F9C4F392
:101D80000720FFF782F9E0B2FFF77FF9FFF791F93B
:101D900070BD70B504460D461646FFF781F9B120B7
:101DA000FFF773F91020FFF770F9200AFFF76DF9BC
:101DB000E0B2FFF76AF9280AFFF767F9E8B2FFF720
:101DC00064F9F0B2FFF761F9FFF773F970BD70B510
:101DD00004460D46FFF764F9B120FFF756F91120CC
:101DE000FFF753F9200AFFF750F9E0B2FFF74DF97A
:101DF000280AFFF74AF9E8B2FFF747F9FFF759F960
:101E000070BD70B504460D46FFF74AF9B120FFF7E3
:101E10003CF92020FFF739F9200AFFF736F9E0B244
:101E2000FFF733F9280AFFF730F9E8B2FFF72DF989
:101E3000FFF73FF970BD70B504460D46FFF730F966
:101E4000B120FFF722F92120FFF71FF9200AFFF741
:101E50001CF9E0B2FFF719F9280AFFF716F9E8B202
:101E6000FFF713F9FFF725F970BD70B504460D466D
:101E7000FFF716F9B120FFF708F92220FFF705F95F
:101E8000200AFFF702F9E0B2FFF7FFF8280AFFF790
:101E9000FCF8E8B2FFF7F9F8FFF70BF970BD70B581
:101EA00004460D461646FFF7FBF8B120FFF7EDF8A4
:101EB0002320FFF7EAF8200AFFF7E7F8E0B2FFF780
:101EC000E4F8280AFFF7E1F8E8B2FFF7DEF8F0B22D
:101ED000FFF7DBF8FFF7EDF870BD70B504460D466F
:101EE000FFF7DEF8B120FFF7D0F82420FFF7CDF898
:101EF000200AFFF7CAF8E0B2FFF7C7F8280AFFF791
:101F0000C4F8E8B2FFF7C1F8FFF7D3F870BD70B5B9
:101F100004460D46FFF7C4F8B120FFF7B6F82520B8
:101F2000FFF7B3F8200AFFF7B0F8E0B2FFF7ADF81B
:101F3000280AFFF7AAF8E8B2FFF7A7F8FFF7B9F801
:101F400070BD2DE9F04104460D4617461E46FFF7C9
:101F5000A7F8B120FFF799F83020FFF796F8200A8C
:101F6000FFF793F8E0B2FFF790F8280AFFF78DF833
:101F7000E8B2FFF78AF8F8B2FFF787F8300AFFF700
:101F800084F8F0B2FFF781F8FFF793F8BDE8F0812D
:101F900070B504460D461646FFF782F8B120FFF7EC
:101FA00074F83120FFF771F8200AFFF76EF8E0B2FD
:101FB000FFF76BF8280AFFF768F8E8B2FFF765F853
:101FC000F0B2FFF762F8FFF774F870BD2DE9F04149
:101FD00004460D4617469846069EFFF761F8B12065
:101FE000FFF753F83220FFF750F8200AFFF74DF8BB
:101FF000E0B2FFF74AF8280AFFF747F8E8B2FFF720
:1020000044F8F8B2FFF741F8300AFFF73EF8F0B2B3
:10201000FFF73BF831464046FFF778F8FFF749F8FD
:10202000BDE8F08170B504460D461646FFF738F856
:10203000B120FFF72AF83320FFF727F8200AFFF72F
:1020400024F8E0B2FFF721F8280AFFF71EF8E8B2FB
:10205000FFF71BF8F0B2FFF718F8FFF72AF870BD8A
:102060002DE9F04704460D4616461F46DDE908896E
:10207000FFF716F8B120FFF708F83420FFF705F84E
:10208000200AFFF702F8E0B2FEF7FFFF280AFEF78A
:10209000FCFFE8B2FEF7F9FFC6F30720FEF7F5FFF5
:1020A000F0B2FEF7F2FF380AFEF7EFFFF8B2FEF7E4
:1020B000ECFFC8F30720FEF7E8FF08F0FF00FEF78B
:1020C000E4FF4FEA1920FEF7E0FF09F0FF00FEF7FA
:1020D000DCFFFEF7EEFFBDE8F08710B50446FEF723
:1020E000DFFFB120FEF7D1FF1220FEF7CEFF200A5E
:1020F000FEF7CBFFE0B2FEF7C8FF10BD70B5044697
:102100000D46200AFEF7C1FFE0B2FEF7BEFF002039
:10211000FEF7BBFF0120FEF7B8FFE8B2FEF7B5FF00
:1021200070BD70B505460C46280AFEF7AEFFE8B252
:10213000FEF7ABFF0020FEF7A8FF0420FEF7A5FF87
:10214000200EFEF7A2FFC4F30740FEF79EFFC4F384
:102150000720FEF79AFFE0B2FEF797FF70BD70B55B
:1021600005460C46280AFEF790FFE8B2FEF78DFF01
:102170000020FEF78AFF0420FEF787FF200EFEF7FF
:1021800084FFC4F30740FEF780FFC4F30720FEF787
:102190007CFFE0B2FEF779FF70BD70B505460C46D6
:1021A000280AFEF772FFE8B2FEF76FFF0020FEF785
:1021B0006CFF0420FEF769FF200EFEF766FFC4F3F4
:1021C0000740FEF762FFC4F30720FEF75EFFE0B2B0
:1021D000FEF75BFF70BD01460A4600E0491C087827
:1021E0000028FBD1881A704770B504460D46200AB6
:1021F000FEF74BFFE0B2FEF748FF2846FFF7EBFF84
:10220000C0F307263046FEF740FF2846FFF7E3FFFE
:10221000C6B23046FEF739FF2846FEF76CFF70BDA8
:1022200070B504460D46200AFEF72FFFE0B2FEF718
:102230002CFF0020FEF729FF0220FEF726FF280AC8
:10224000FEF723FFE8B2FEF720FF70BD10B5FEF7E2
:1022500030FF10BD70B505460E461446FEF720FF50
:10226000B120FEF712FF4020FEF70FFF280AFEF70D
:102270000CFFE8B2FEF709FF300AFEF706FFF0B2E6
:10228000FEF703FF200EFEF700FFC4F30740FEF742
:10229000FCFEC4F30720FEF7F8FEE0B2FEF7F5FE01
:1022A000FEF707FF70BD70B504460D46FEF7F8FE59
:1022B000B120FEF7EAFE4120FEF7E7FE200AFEF716
:1022C000E4FEE0B2FEF7E1FE280AFEF7DEFEE8B229
:1022D000FEF7DBFEFEF7EDFE70BD70B504460D4661
:1022E000FEF7DEFEB120FEF7D0FE4220FEF7CDFE67
:1022F000200AFEF7CAFEE0B2FEF7C7FE280AFEF784
:10230000C4FEE8B2FEF7C1FEFEF7D3FE70BD70B5A5
:1023100004460D46FEF7C4FEB120FEF7B6FE44208B
:10232000FEF7B3FE200AFEF7B0FEE0B2FEF7ADFE08
:10233000280AFEF7AAFEE8B2FEF7A7FEFEF7B9FEEE
:1023400070BD70B504460D461646FEF7A9FEB120D5
:10235000FEF79BFE1820FEF798FE200AFEF795FE7A
:10236000E0B2FEF792FE280AFEF78FFEE8B2FEF713
:102370008CFE300AFEF789FEF0B2FEF786FEFEF70D
:1023800098FE70BD70B504460D461646FEF788FEF1
:10239000B120FEF77AFE1920FEF777FE200AFEF73D
:1023A00074FEE0B2FEF771FE280AFEF76EFEE8B298
:1023B000FEF76BFE300AFEF768FEF0B2FEF765FE30
:1023C000FEF777FE70BD2DE9F04104460D46174635
:1023D0001E46FEF765FEB120FEF757FE1320FEF7FE
:1023E00054FE200AFEF751FEE0B2FEF74EFE280A28
:1023F000FEF74BFEE8B2FEF748FEF8B2FEF745FEE8
:10240000300AFEF742FEF0B2FEF73FFEFEF751FE45
:10241000BDE8F0812DE9F04706460C4615461F46FB
:10242000DDE90889FEF73CFE8620FEF72EFEF0B2BD
:10243000FEF72BFE200AFEF728FEE0B2FEF725FE8F
:10244000280AFEF722FEE8B2FEF71FFEF8B2FEF7FA
:102450001CFE08F0FF00FEF718FE09F0FF00FEF773
:1024600014FEFEF726FEBDE8F087000010B586B02A
:1024700004460121052000F071FE0121880300F0CF
:102480006DFE4FF40070ADF8140018208DF81700A1
:1024900003208DF8160005A9274800F0A3FB4FF490
:1024A0008060ADF8140004208DF8170005A92248BB
:1024B00000F098FB214800F0B5FE01940020ADF833
:1024C0000800ADF80A00ADF80C00ADF810000C20C3
:1024D000ADF80E0001A9194800F0E7FE4FF4C06006
:1024E00000F0B2FA25208DF8000001208DF80100DF
:1024F000684600F0AEFA012240F225510F4800F084
:102500006CFF01210D4800F05CFF06B010BD10B556
:1025100004462146094800F0C1FF00BF802107485A
:1025200001F02AF80028F9D000BF4021034801F04B
:1025300023F80028F9D010BD000801400038014000
:1025400010B56448006880F000446349204605F0F7
:102550001FFD6249086010BD2DE9F14F86B0069855
:1025600005F072FB04465E4A5E4B05F085F9824633
:102570008B46069805F068FB04460D46069805F064
:1025800063FB8046584A594B05F076F906462246C9
:102590002B4605F071F952465B46CDE9000105F086
:1025A00069FA534A534BCDE9020104F035FFCDE9F6
:1025B000040104F0FFFE07B0BDE8F08F2DE9F14FF4
:1025C00086B0069805F040FB04464B4A4B4B05F09D
:1025D00053F982468B46069805F036FB04460D46B5
:1025E000069805F031FB8046454A464B05F044F914
:1025F000064622462B4605F03FF952465B46CDE99A
:10260000000104F009FF3C4A3F4BCDE9020104F010
:1026100003FFCDE9040104F0CDFE07B0BDE8F08F63
:102620002DE9F14F88B0089805F00EFB0446374AB3
:10263000374B05F021F9CDE90201089805F004FBBC
:1026400004460D46089805F0FFFA8046314A324BA1
:1026500005F012F9064622462B4605F00DF9CDE9A4
:102660000001DDE9022305F005FA82462B4A2C4BD6
:1026700004F0D2FE2B4A2C4BCDE9040105F0FCF806
:10268000CDE9060104F096FE09B0BDE8F08F2DE912
:10269000F05F06460C4615462046FFF7C1FF81460F
:1026A000294605F075FC07462046FFF755FF824690
:1026B0002046FFF783FF83465946304605F052FB1C
:1026C0008146514605F064FC8046394605F02CFDF4
:1026D000BDE8F09F140000200000204140000020D1
:1026E0006EA301BC0512D43FE09C11A5BDC1673F9C
:1026F0004A7B832F4C862C4012143FC6DCB5E43F46
:1027000094F6065F984C65BFDC7D4040B29DEFA714
:10271000C64B07408B6CE7FBA9F1A23F105839B4B8
:10272000C8CE5640FCA9F1D24D62503F10B50446C8
:10273000FEF7E7F82CB94FF40061274800F0FFFAE4
:1027400005E0012C03D1E102234800F0FAFA10BDA4
:1027500008B50121042000F001FD4FF40060ADF840
:10276000000010208DF8030002208DF80200694659
:10277000194800F037FA4FF40061174800F0DFFA0B
:102780000120FFF7D3FF08BD10B50446FEF7B9F8E6
:102790000020FFF7CBFF2046FEF783F80120FFF76C
:1027A000C5FF10BD10B5FEF7ACF80020FFF7BEFF67
:1027B0006420FEF776F80120FFF7B8FF6420FEF7EB
:1027C00070F80020FFF7B2FF6420FEF76AF80120DE
:1027D000FFF7ACFF10BD00000008014008B5012163
:1027E000102000F0BBFC4FF44070ADF8000010204A
:1027F0008DF8030003208DF8020069467F4800F041
:10280000F1F901207E4908607E49C1F8A00108BDA8
:1028100008B50121102000F0A1FC4FF48070ADF844
:10282000000010208DF8030003208DF80200694697
:10283000724800F0D7F908BD10B5FFF7E9FF012095
:102840006F49091F08606F49C1F8A4010420FEF711
:1028500049F800206A49091F08600420FEF742F881
:1028600000206849C1F8A40110BD10B5FFF7D0FFE2
:102870000020634908606349C1F8A0010420FEF705
:1028800031F801205E4908605E49C1F8A0010420CA
:10289000FEF728F810BD08B50121102000F05EFCFD
:1028A0004FF48070ADF8000048208DF8030003203D
:1028B0008DF802006946514800F094F908BD10B542
:1028C0000024FFF7E8FF01204D49091F0860FEF7CB
:1028D00009F801204B49C1F8A401FEF703F807E00D
:1028E000601CC4B2FA2C03DDFFF7BFFF012010BD4E
:1028F0004348843800680028F2D14149086000BF8D
:10290000F5E710B500203E490860FFF781FF002081
:102910003C49C1F8A0010220FDF7E4FF012038493D
:1029200008600220FDF7DEFF00203649C1F8A4014F
:1029300010BD10B5002032490860FFF769FF012083
:102940003049C1F8A0010220FDF7CCFF01202C493D
:1029500008600220FDF7C6FF00202A49C1F8A40143
:1029600010BD70B50446FFF753FF002024490860EE
:10297000002517E0E0092249091F08606006040EDF
:102980000220FDF7AFFF01201E49C1F8A40102207B
:10299000FDF7A8FF00201A4908600220FDF7A2FFFA
:1029A000681CC5B2082DE5DB70BD70B50546002476
:1029B000FFF771FF002616E0002011490860022091
:1029C000FDF790FF01200F49C1F8A4016006040E35
:1029D0000B488438006808B1601CC4B20120FDF7C0
:1029E00081FF701CC6B2082EE6DB15B9FFF7A1FF08
:1029F00001E0FFF786FF204670BD00000010014097
:102A0000A4012242000022420948804709480047A9
:102A1000FEE7FEE7FEE7FEE7FEE7FEE7FEE7FEE78E
:102A2000FEE7FEE704480549054A064B70470000EB
:102A300047060008ED000008B8440020B84A00200E
:102A4000B8460020B846002031490143314A1160A0
:102A5000704770B5002100230F22C47804B32D4CB9
:102A6000246804F4E064C4F5E064210AC1F10403BD
:102A7000CA40447804FA03F18478144021430901E0
:102A8000254C0678A155047804F01F050124AC40BC
:102A900005786D11AD0005F1E025C5F8004109E0AC
:102AA000047804F01F050124AC401C4D0678761113
:102AB00045F8264070BD1A4A0A400243154B1B1FB9
:102AC0001A60704739B1134A121D12680243114B44
:102AD0001B1D1A6006E00F4A121D126882430D4B3F
:102AE0001B1D1A607047042808D14FF0E0210969C6
:102AF00041F004014FF0E022116107E04FF0E021C6
:102B0000096921F004014FF0E022116170470000D3
:102B10000000FA050CED00E000E400E080E100E0D8
:102B200080FFFF1F10B50446CC48844208D1012124
:102B3000042000F02DFB0021042000F029FB46E0DA
:102B4000C748844208D10121082000F021FB002160
:102B5000082000F01DFB3AE0C248844208D1012160
:102B6000102000F015FB0021102000F011FB2EE0DA
:102B7000BD48844208D10121202000F009FB00213A
:102B8000202000F005FB22E0B848844208D1012152
:102B9000402000F0FDFA0021402000F0F9FA16E094
:102BA000B348844208D10121802000F0F1FA0021CD
:102BB000802000F0EDFA0AE0AE48844207D10121FE
:102BC000801500F0E5FA0021A01500F0E1FA10BD33
:102BD00010B50121084600F0DBFA0021012000F0C9
:102BE000D7FA10BD2DE9F04102460025002600204D
:102BF00000230024002791F803C00CF00F0591F882
:102C000003C00CF0100CBCF1000F03D091F802C00F
:102C10004CEA050591F800C0BCF1000F31D01468F2
:102C200000202BE04FF0010C0CFA00F3B1F800C0CB
:102C30000CEA03069E4220D183004FF00F0C0CFAE1
:102C400003F7BC4305FA03FC4CEA040491F803C003
:102C5000BCF1280F06D14FF0010C0CFA00FCC2F8B1
:102C600014C00AE091F803C0BCF1480F05D14FF041
:102C7000010C0CFA00FCC2F810C0401C0828D1D38B
:102C80001460B1F800C0BCF1FF0F34DD54680020BF
:102C90002EE000F1080C4FF0010808FA0CF3B1F82F
:102CA00000C00CEA03069E4221D183004FF00F0CB6
:102CB0000CFA03F7BC4305FA03FC4CEA040491F850
:102CC00003C0BCF1280F05D100F1080C08FA0CF87C
:102CD000C2F8148091F803C0BCF1480F07D100F18D
:102CE000080C4FF0010808FA0CF8C2F81080401CDC
:102CF0000828CED35460BDE8F0814FF6FF71018003
:102D0000022181700421C17070470246002093683F
:102D10000B400BB1012000E000207047014688689D
:102D200080B2704702460020D3680B400BB10120EF
:102D300000E0002070470146C86880B2704701611A
:102D40007047416170470AB1016100E0416170471D
:102D5000C16070474FF480320A43826181618261B1
:102D600082698269704702460020434B18684FF61B
:102D70008073184040EA021008433F4B18607047C8
:102D80003E49C8617047F0B50A460023002400217F
:102D9000002500F00046B6F1004F02D1364EF16931
:102DA00001E0354E7168C0F3034583B200F440166C
:102DB000B6F5401F08D121F070612F4E766826F0DD
:102DC00070662D4F7E6012E000F48016B6F5801F0D
:102DD00006D1032606FA05F4A14341F0706106E02E
:102DE000460D360103FA06F6B14341F0706122B197
:102DF000460D360103FA06F6314300F00046B6F1FF
:102E0000004F02D11C4EF16101E01B4E7160F0BD1C
:102E100030B500228B071C0F0F2303FA04F2164B68
:102E200008338C1053F824309343134C08348D101E
:102E300044F8253023468C1053F824308C07240F97
:102E400000FA04F423430C4C08348D1044F8253068
:102E500030BD0A49DC3108607047000000080140BD
:102E6000000C014000100140001401400018014016
:102E7000001C0140002001400000014000002042F1
:102E8000DF48006840F00100DD49086008464068FE
:102E9000DC490840DA49486008460068DA490840D9
:102EA000D74908600846006820F48020086008467A
:102EB000406820F4FE0048604FF41F0088607047AF
:102EC000CF49096821F48031CD4A11601146096863
:102ED00021F480211160B0F5803F03D0B0F5802F40
:102EE0000ED106E0C649096841F48031C44A116038
:102EF00007E0C349096841F4A021C14A116000E01C
:102F000000BF00BF704710B501460022002300201B
:102F10004A11012A02D1BA4C236806E0022A02D1E2
:102F2000B74C236A01E0B64C636A01F01F0201242A
:102F300094401C400CB1012000E0002010BD38B5C9
:102F4000002000900024002500BF3120FFF7DBFFA8
:102F500005460098401C00900098B0F5A06F01D085
:102F6000002DF2D03120FFF7CEFF08B1012400E0A0
:102F70000024204638BD01460020A14A106820F0F8
:102F8000F80040EAC10010607047A049086070472F
:102F9000024600209A4B586820F47C1042EA010354
:102FA0001843974B58607047984908667047014628
:102FB0000020934A506820F0030008435060704797
:102FC0008F48406800F00C007047014600208C4A92
:102FD000506820F0F0000843506070470146002020
:102FE000874A506820F4E06008435060704701460B
:102FF0000020834A506820F4605040EAC1005060CD
:10300000704729B17E4A527A02437D4B5A7204E0DE
:103010007B4A527A82437A4B5A7270477B49D83145
:103020000860704701460020754A506820F440400F
:103030000843506070470021714A20321170704A75
:1030400082F82010012802D004280AD104E00121CE
:103050006B4A2032117005E00521694A2032117057
:1030600000E000BF00BF70476949086070476449CD
:10307000096A0143624A1162704765494439086030
:10308000704730B500210022002400235C4D6D689C
:1030900005F00C0121B1042905D0082923D105E050
:1030A0005C4D056022E05B4D05601FE0544D6D688E
:1030B00005F47012524D6D6805F48034022505EB5D
:1030C00092421CB9544D554305600BE04C4D6D6860
:1030D00005F400351DB1504D5543056002E04D4DDE
:1030E0005543056002E04B4D056000BF00BF444DF5
:1030F0006D6805F0F0010909484D6B5C0568DD401D
:1031000045603F4D6D6805F4E061090A434D6B5C15
:103110004568DD4085603A4D6D6805F46051C90A27
:103120003E4D6B5C4568DD40C560354D6D6805F40E
:103130004041890B3A4D6B5CC568B5FBF3F5056101
:1031400030BD29B12E4A526902432D4B5A6104E029
:103150002B4A526982432A4B5A61704729B1284A47
:1031600092690243264B9A6104E0254A92698243A0
:10317000234B9A61704729B1214AD2690243204BFF
:10318000DA6104E01E4AD26982431D4BDA6170475E
:1031900029B11B4AD2680243194BDA6004E0184A8D
:1031A000D2688243164BDA60704729B1144A12691B
:1031B0000243134B1A6104E0114A12698243104B17
:1031C0001A61704712494039086070470F49C86456
:1031D00070470B49C87170470948406A40F08070D9
:1031E00007494862704701460020054A92680A4034
:1031F0000AB1012000E00020704701498872704741
:10320000001002400000FFF8FFFFF6FE00004242FF
:103210008004424200127A0000093D004400002070
:103220005400002010B50446FB48844209D1012116
:103230008803FFF7ADFF00214FF48040FFF7A8FFA0
:1032400032E0F648844209D101214804FFF7ADFF7E
:1032500000214FF40030FFF7A8FF25E0F04884423A
:1032600009D101218804FFF7A0FF00214FF480203D
:10327000FFF79BFF18E0EB48844209D10121C80405
:10328000FFF793FF00214FF40020FFF78EFF0BE0C4
:10329000E548844208D101210805FFF786FF002197
:1032A0004FF48010FFF781FF10BD2DE9F04786B085
:1032B00005460E460024A24600BFA1460027B0895D
:1032C00000B100BF2F462C8A4CF6FF700440F088F6
:1032D00004432C82AC894EF6F3100440B088318947
:1032E0000843718908430443AC81AC8A4FF6FF4020
:1032F0000440B0890443AC8201A8FFF7C2FEC6486F
:10330000874202D1DDF810A001E0DDF80CA0A88909
:1033100000F4004040B10AEBCA0000EB0A1031682B
:103320004900B0FBF1F807E00AEBCA0000EB0A1015
:1033300031688900B0FBF1F86420B8FBF0F00401BB
:103340002009642101FB1089A88900F4004040B1E4
:10335000322000EBC900B0FBF1F000F0070004439D
:1033600008E0322000EB09106421B0FBF1F000F01E
:103370000F0004432C8106B0BDE8F0874FF41651CE
:10338000016000218180C18001810C2141810021E7
:103390008181704710B502460020108A4FF2FF036A
:1033A00018400B884C8823438C882343CC882343C4
:1033B0001843108210BD0021018041808180C180AE
:1033C000704721B1828942F40052828104E08289EF
:1033D0004DF6FF731A4082817047F0B50346002412
:1033E00000260025002040F66A17B94200D100BF30
:1033F0001846C1F3421401F01F06012707FA06F52B
:10340000012C01D10C3004E0022C01D1103000E07D
:1034100014301AB107682F43076002E00768AF4312
:103420000760F0BD1AB1838A0B43838202E0838A6E
:103430008B4383827047028A4FF6F0731A400282F0
:10344000028A0A430282704782894FF2FF731A4050
:10345000828182890A438281704721B1828942F048
:103460000202828104E082894FF6FD731A40828154
:103470007047028A4FF6DF731A400282028A0A43BB
:103480000282704721B1028A42F48042028204E043
:10349000028A4BF6FF731A4002827047C1F308029A
:1034A0008280704701468888C0F308007047818990
:1034B00041F0010181817047028BD2B20283028BFD
:1034C00042EA012202837047028B02F47F420283A8
:1034D000028B0A430283704721B1828A42F02002A4
:1034E000828204E0828A4FF6DF731A40828270473C
:1034F00021B1828A42F01002828204E0828A4FF671
:10350000EF731A408282704721B1828A42F008022A
:10351000828204E0828A4FF6F7731A4082827047F3
:1035200021B1828942F40042828103E08289C2F3A0
:103530000E028281704721B1828A42F40062828247
:1035400004E0828A4FF2FF731A4082827047828AB7
:103550004FF6FB731A408282828A0A438282704746
:1035600021B1828A42F00202828204E0828A4FF60E
:10357000FD731A408282704702460020B1F5007F39
:1035800000D100BF13880B400BB1012000E00020E8
:10359000704701F40072B2F5007F00D100BFCA434A
:1035A0000280704770B502460024002300250020E9
:1035B00040F66A16B14200D100BFC1F3421501F0D6
:1035C0001F03012606FA03F3012D02D19689334029
:1035D00006E0022D02D1168A334001E0968A33407C
:1035E0000C12012606FA04F41688344013B10CB10B
:1035F000012000E0002070BD10B50022002340F63D
:103600006A14A14200D100BF0A1201249440A3B25F
:10361000DC43048010BD000000380140004400403D
:1036200000480040004C004000500040704700BF80
:10363000FEE700BFFEE700BFFEE700BFFEE7704702
:10364000704710B540F225510648FFF7ABFF38B17F
:103650000448FFF727FFC4B22046FDF728FC00BF4F
:1036600010BD0000003801407CB5002514E069461B
:10367000284601F0D9FF064666B9F74850F82540BC
:1036800044B1012C06D0D4E9020100EB8100606452
:103690000198A064681CC5B23F2DE8D97CBD002408
:1036A00000BF02E0282002F0C9F8EC4800780028AA
:1036B000F8D0EB4800686421B0FBF1F0E8490860FD
:1036C0000846006828B90020E6490870FF2001F08C
:1036D000EDFF00BF02F08AF90446E3480068E349C1
:1036E00008600020E0490860204602F083F9DF48C6
:1036F0000068DB490968B0FBF1F0C0F16400D9490A
:10370000087002F0D2F9FFF7AFFF142002F096F82C
:10371000E0E700B587B0032000218022D44BCDE93B
:103720000132CDE903104FF6FE703E23D14A0090DE
:10373000AFF2950001F091FD06AACFA13E2001F065
:10374000F5FE07B000BD002400BF00BF02F04EF937
:103750000446C5480068401CC3490860204602F082
:1037600049F902F0A1F9F1E700B587B00320002183
:103770008022C54BCDE90132CDE903104FF6FF7031
:103780003F23C24A0090AFF2410001F066FD06AA55
:10379000BFA13F2001F0CAFE07B000BD04E0002237
:1037A00000F8012B4A1E91B20029F8D1704770B57C
:1037B000C821BB48FFF7F2FF00230FE0581C85B279
:1037C00003EB8300B64901EB800405EB850001EBB8
:1037D0008006002020706660581C83B2092BEDD350
:1037E00003EB8300AE4901EB800400202070606091
:1037F0000846AC49086070BD70B54FF47C71AA48AA
:10380000FFF7CCFF4FF480719348FFF7C7FF002408
:1038100013E0601CC5B2C4EBC40000EB4000A24939
:1038200001EB8003C5EBC50000EB400001EB800617
:103830005E619EA0D864601CC4B20B2CE9D3C4EBBB
:10384000C40000EB4000984901EB80030020586160
:1038500096A0D8640020964908609348954908606E
:1038600070BD0021944A1170002004E00021934AA9
:103870001154411CC8B20828F8D30021904A117095
:10388000904A1170904A1160904A11607047002070
:103890008F4908608F4908708F4908708F490870F8
:1038A0008F4908708F4908606F4908606F49086048
:1038B0006B49086069490870704710B502F0F0F86C
:1038C000FFF7E5FFFFF7CDFFFFF796FFFFF76FFF6D
:1038D00000F0EAFE01F0E1F9FFF746FFFFF719FFFC
:1038E00002F0DFF810BD7E480078012808D1794841
:1038F0000078FF2804D277480078401C754908708A
:10390000704779496C4A1278885C6C49095C764A40
:10391000515C01EBC0016B4A1170704710B5002477
:103920006F480078012830D102F060F804466948F9
:10393000007820B167480078401E664908706548E5
:103940000078F8B964480078E0B9FFF7DAFF424838
:103950005C49097850F821005B49086059480078B3
:103960005749097888420DD057480068806B401C41
:103970005549096888635B480068401C59490860DC
:1039800002F053F8204602F035F810BD10B50024BF
:1039900053480078012811D102F028F804464D4818
:1039A000007840B94C480078FF2804D24A48007893
:1039B000401C49490870204602F01CF810BD10B5A3
:1039C000002402F013F8044642480078F8B942484F
:1039D0000078E0B9FFF795FF1F483A49097850F899
:1039E000210039490860374800783549097888420C
:1039F0000DD035480068806B401C334909688863E6
:103A000038480068401C3749086002F007F8204633
:103A100001F0F0FF10BD10B50024314800780128F6
:103A20006FD101F0E3FF04462B48007880B12A48AB
:103A30000078401E284908700846007848B9254893
:103A4000007838B9204601F0D5FFFFF7B8FF58E0FD
:103A500054E04FE04AE00000C03E0020700000202B
:103A60006800002064000020800000206C0000201E
:103A7000C03A0020BC3C002075432F4F532D4949CC
:103A80002053746174000000C03C0020BC3E002044
:103A900075432F4F532D49492049646C6500000040
:103AA000A83900205C000020C03F00203F0000003B
:103AB0009000002088000020750000207600002083
:103AC00073000020740000208C000020840000207F
:103AD0009C00002071000020720000207F00002068
:103AE0007E0000205800002016820008204601F0C9
:103AF00081FF06E0204601F07DFF02E0204601F054
:103B000079FF10BD10B5EB48007890B9FFF7F9FECA
:103B1000E9480078E9490870E948E749097850F828
:103B20002100E849086008460068E749086001F09C
:103B300064FF10BD10B50024022001F07FFE01F0EB
:103B400055FF04460020E1490860204601F052FF7D
:103B5000142001F073FE01F049FF0446DB480068C1
:103B6000DB4908600120DB490870204601F042FF74
:103B700010BD70B5002601F0E8FF01F037FF0646E2
:103B8000D5480068401CD4490860304601F032FF37
:103B9000C8480078012853D1D048007820B10128C6
:103BA00004D0022809D103E001250BE0002509E03B
:103BB00001250120C949087004E001250020C749FA
:103BC000087000BF00BF05B970BDC548046833E088
:103BD00001F00CFF0646E06A50B3E06A401EE06266
:103BE000E06A28BB94F8300000F0370040B114F8C8
:103BF000300F00F0C800207001206070303C02E0FF
:103C0000002084F8310094F8300000F0080078B902
:103C10003434A078B34909780843B2490870207851
:103C2000B149085C6178084314F83419AE4A50541D
:103C30006469304601F0DEFE94F832003F28C7D1B7
:103C400000BFC1E740F223107047704710B590F8ED
:103C5000342001F10B039B5C90F83540A34301F144
:103C60000B04A35423469B5C23B98B7A90F836400F
:103C7000A3438B7210BD2DE9F04F05460F469046C9
:103C80009946A87A99490E5C05F10B00805D11F800
:103C900000B00BEBC60000F0FF0A894850F82A403C
:103CA00000202034E0602760207C20EA0800207497
:103CB00084F81190207C203C00F0080068B994F84A
:103CC0003600884909780843864908708648805D2F
:103CD00094F8351008438449885529462046FFF753
:103CE000B5FF5046BDE8F08F10B5774A1268D06135
:103CF000754A126892F8343000F10B02D25C724BB4
:103D00001B6893F835301A436F4B1B6893F83440A7
:103D100000F10B031A55827A6B4B1B6893F836300F
:103D20001A438272684A126892F834106E4A525CE2
:103D3000654B1B6893F835309A436B4B5A541A46BF
:103D4000525C42B9604A126892F83630654A12787D
:103D50009A43644B1A7010BD014600228A720020FB
:103D600005E0002301F10B021354421CD0B20828D5
:103D7000F7D3704705E011F8013B00F8013B531EF3
:103D80009AB2002AF7D170470146002002E0491C90
:103D9000421CD0B20A78002AF9D170472DE9F84FB9
:103DA00005460F4690469946DDE90AAB0020009093
:103DB00001F01CFE00904E480468002C75D01834A9
:103DC00054F8040C4A490860009801F013FE44F8C6
:103DD000187CA576002020766076606144F814BCDB
:103DE00044F80CAC44F8108C0C9824F8080C24F817
:103DF000069C0020E077E810207705F00700E076C9
:103E0000217F01208840A077E17E012088406077F3
:103E100000206060E060A0602062A0626062E062FA
:103E20002063AFF278306063183C002606E0002182
:103E300004F1500040F82610701CC6B2002EF6D0D7
:103E4000204601F081FE204601F02CFE01F0CEFD5F
:103E500000901B4840F82540214800686061002020
:103E6000A0611F48006810B11D48006884611C48AB
:103E700004603434A0781B49097808431949087054
:103E800020781949085C6178084314F83419164AF7
:103E9000505418480078401C16490870009801F0EA
:103EA000A9FD0020BDE8F88FFFE7009801F0A2FD12
:103EB0004220F7E77E0000207400002073000020FD
:103EC000C03E00208C0000208400002080000020E4
:103ED00068000020700000209C000020940000205A
:103EE0009000002075000020760000201682000857
:103EF000880000207F0000202DE9F05F04460F4677
:103F000091461E464FF0000B2078052804D0012072
:103F100030700020BDE8F09F09F0800ABAF1000F70
:103F200004D029F080094FF0010801E04FF00008AB
:103F30000020307001F05AFD8346B9F1000F2CD0FB
:103F4000B9F1010F3BD0B9F1020F03D0B9F1030F62
:103F500046D111E0208900EA0705BD4206D1B8F13B
:103F6000010F05D12089A843208101E07020307025
:103F7000584601F03FFD3AE0208900EA070535B1D7
:103F8000B8F1010F05D12089A843208101E07020FC
:103F90003070584601F02EFD29E0208927EA0005FF
:103FA000BD4206D1B8F1010F05D1208928432081F7
:103FB00001E070203070584601F01CFD17E02089A8
:103FC00027EA000535B1B8F1010F05D12089284352
:103FD000208101E070203070584601F00BFD06E0B2
:103FE000584601F007FD00256F20307000BF00BF6C
:103FF00028468FE72DE9F04106460D460027FA488E
:10400000007820B1102028700020BDE8F08101F078
:10401000EDFC0746F548046884B100684068F34940
:10402000086005202070268100206060F0A0E0601C
:10403000384601F0DFFC0020287004E0384601F02B
:10404000D9FC722028702046DFE730B501464A6867
:1040500008682AB9CC68606028B10025456002E094
:10406000106000B142608B6800255D6230BDF0B524
:1040700006460F46B4680020283460602780207A06
:1040800000F0DF00207200206072207A283C88B99E
:104090003434A078D74909780843D6490870207885
:1040A000D549085C6178084314F83419D24A505451
:1040B000012500E000253046FFF7C7FF2846F0BD88
:1040C0002DE9F0470446894615464FF0000AC648D8
:1040D000007820B10F2028702046BDE8F0872078B6
:1040E000052803D0012028702046F6E701F07EFC69
:1040F0008246606808B1012700E00027B9F1000F8F
:1041000003D0B9F1010F3CD119E08FB9B8A0E0603C
:1041100000202070B5480068606000202081B3480E
:104120000460504601F066FC00202870002605E07F
:10413000504601F05FFC49202870264628E0D4F85C
:10414000048005E000214046FFF791FFD8F8008089
:10415000B8F1000FF6D1A6A0E06000202070A348BF
:104160000068606000202081A0480460504601F093
:1041700041FC012F01D1FFF722FC0020287000260E
:1041800006E0504601F036FC07202870264600BFA6
:1041900000BF3046A1E72DE9F04105460E46144622
:1041A00000279148007820B1112020700020BDE840
:1041B000F08101F01BFC07462878052806D0384618
:1041C00001F018FC012020700020F0E7E868306062
:1041D0003068FFF7D9FD8046384601F00BFC00201F
:1041E00020704046E3E72DE9F04105460E461446AF
:1041F00000277D48007818B112202070BDE8F081BA
:1042000001F0F4FB07462878052805D0384601F070
:10421000F1FB01202070F1E7EE60384601F0EAFB87
:104220000020207000BFE9E7F0B51446059E734FEB
:104230003F6897F8307047F02007DFF8C0C1DCF81E
:1042400000C08CF830700027DFF8B0C1DCF800C087
:104250008CF83170694F3F68FE62684F3F68796241
:104260000C828B74654F3F688F6047680F60002732
:104270004F60C860456805B1696041605F4F3F6845
:1042800097F834205C4FBF5CDFF870C1DCF800C0E9
:104290009CF835C027EA0C07DFF85CC10CF8027007
:1042A0006746BF5C5FB9554F3F6897F836C0514FBE
:1042B0003F7827EA0C07DFF83CC18CF80070F0BDAE
:1042C0002DE9F04F89B005460F4691469A46129E59
:1042D000002002904448007828B10220307000206D
:1042E00009B0BDE8F08F4648007818B10D20307055
:1042F0000020F5E72878052803D001203070002041
:10430000EEE709F0800BBBF1000F04D009F07F0944
:104310004FF0010801E04FF0000801F067FB029048
:10432000B9F1000F4AD0B9F1010F78D0B9F1020FFD
:1043300003D0B9F1030F71D120E0288900EA070406
:10434000BC420FD1B8F1010F02D12889A0432881C6
:104350002A4800680485029801F04CFB0020307068
:104360002046BDE74B463A4604A92846CDF800A0B2
:10437000FFF75AFF029801F03DFB78E0288900EA38
:1043800007047CB1B8F1010F02D12889A04328812C
:104390001A4800680485029801F02CFB0020307058
:1043A00020469DE74B463A4604A92846CDF800A092
:1043B000FFF73AFF029801F01DFB58E0288927EA31
:1043C0000004BC421ED1B8F1010F02D1288920435C
:1043D00028810A4800680485029801F00BFB002040
:1043E000307020467CE71AE0710000206000002059
:1043F0003F000000750000207600002084000020AF
:10440000720000204B463A4604A92846CDF800A089
:10441000FFF70AFF029801F0EDFA28E01FE0288973
:1044200027EA00047CB1B8F1010F02D128892043AA
:104430002881B14800680485029801F0DBFA002069
:10444000307020464CE74B463A4604A92846CDF842
:1044500000A0FFF7E9FE029801F0CCFA07E002980D
:1044600001F0C8FA00246F203070204638E700BF02
:10447000FFF7A5FA01F0BAFA02909F48006890F899
:10448000310020B39C48006890F831000390002070
:104490009949096881F8310004A8FFF7D6FD00208A
:1044A0009549096881F83000029801F0A3FA0024C8
:1044B0000398012805D0022802D10E20307003E0B5
:1044C00000BF0A20307000BF00BF204608E78A48BE
:1044D0000068048DB8F1010F1ED1B9F1000F0ED0A4
:1044E000B9F1010F0CD0B9F1020F03D0B9F1030FEC
:1044F0000AD100E000BF2889A04328810BE000BF5B
:1045000028892043288106E0029801F073FA6F2081
:1045100030700020E4E600BF029801F06BFA002042
:1045200030702046DCE670B5002501F05FFA0546E4
:1045300071480068048D284601F05CFA204670BD81
:104540002DE9FC5F0446894692461E4600200090F5
:104550002078052804D0012030700020BDE8FC9FA1
:1045600001F044FA0090BAF1000F03D0BAF1010F44
:104570000AD104E0208920EA090020810BE020898B
:1045800040EA0900208106E0009801F033FA71202A
:1045900030700020E2E700BF4FF0000B656855E087
:1045A000A87C40B3012838D0022802D0032844D187
:1045B00011E02089298A00EA0107288AB84209D136
:1045C00039462846FFF753FD8046B8F1010F01D167
:1045D0004FF0010B38E02089298A00EA01074FB12A
:1045E00039462846FFF743FD8046B8F1010F01D157
:1045F0004FF0010B28E0288A218920EA0107288A48
:10460000B84209D139462846FFF731FD8046B8F156
:10461000010F01D14FF0010B16E0288A218920EA11
:1046200001074FB139462846FFF721FD8046B8F112
:10463000010F01D14FF0010B06E0009801F0DAF90B
:104640006F203070002089E700BF2D68002DA7D1B2
:10465000009801F0CFF9BBF1010F01D1FFF7AFF9DD
:1046600001F0C4F9009020890190009801F0C2F98E
:1046700000203070019871E72DE9F04104460D46A5
:1046800000272078052804D0012028700020BDE8EC
:10469000F08101F0ABF907462689384601F0AAF906
:1046A000002028703046F2E72DE9F04150211348F0
:1046B000FFF774F800250EE0681C86B20F4800EB87
:1046C000051400EB0617002020706760AFF2E020B1
:1046D000E060681C85B2042DEED3084800EB051499
:1046E000002020706060AFF2F820E06003480449C9
:1046F0000860BDE8F081000084000020703A0020CE
:10470000600000202DE9F04106460D464FF00008FC
:104710003078022804D0012028700020BDE8F08104
:1047200001F064F980467468E08A78B12169081D57
:1047300020610F68E08A401EE082A16820698842FB
:1047400001D1606820610020287002E01F202870DD
:104750000027404601F04EF93846DFE72DE9F041E9
:1047600006460F464FF00008F748007810B10020C9
:10477000BDE8F08101F03AF98046F4480568006828
:1047800020B1F24800684068F0490860404601F0F6
:1047900031F93DB301F02AF98046ED480468C4B10F
:1047A00000680068EA490860404601F023F9666045
:1047B00006EB8700A060E6602661A7820020E08209
:1047C00002202870002028816C602846FFF7C4FA78
:1047D00008E0DE4800686860DC480560404601F09B
:1047E00009F900252846C3E72DE9F0470446894624
:1047F00015464FF0000A2078022804D001202870C6
:104800002046BDE8F087D048007818B10F20287006
:104810002046F6E701F0EAF88246A07A10B14FF0A0
:10482000010801E04FF00008B9F1000F03D0B9F121
:10483000010F45D11FE0B8F1000F15D16668C448DB
:1048400000683060C248066000202070BF480068E1
:10485000606000202081BD480460504601F0CAF825
:1048600000202870002705E0504601F0C3F84920D9
:10487000287027462BE005E0002304221946204635
:10488000FFF7F9F9A07A0028F6D16668B048006809
:104890003060AF48066000202070AC48006860605F
:1048A00000202081A9480460504601F0A3F8B8F127
:1048B000010F01D1FFF783F800202870002706E0E0
:1048C000504601F097F807202870274600BF00BF28
:1048D000384696E770B50546002601F087F806468B
:1048E0006C686068E060606820610020E0823046AB
:1048F00001F080F8002070BD2DE9F047074688469A
:1049000015464FF000093878022804D0012028709D
:104910000020BDE8F0878C48007818B1022028708C
:104920000020F6E78B48007818B10D202870002091
:10493000EFE701F05BF881467C68E08A98B1216975
:10494000081D20610E68E08A401EE082A16820698F
:10495000884201D160682061484601F04BF8002090
:1049600028703046D5E77C48006890F8300040F069
:1049700004007949096881F8300000207649096807
:1049800081F8310074480068C0F82C803846FFF781
:10499000ABF9484601F02EF8FFF711F801F026F8C0
:1049A00081466D48006890F8310020B101280DD093
:1049B00002280AD105E068480068066A00202870CD
:1049C0000DE000260E20287009E000BF394662483D
:1049D0000068FFF73BF900260A20287000BF00BFDF
:1049E00000205D49096881F830005B49096881F859
:1049F000310059490968C861574909680862484641
:104A000000F0F8FF304684E72DE9F04104460F46F8
:104A100015464FF000082078022804D001202870A5
:104A20000020BDE8F08100F0E1FF8046A07A20B3CD
:104A300000267FB1012F0CD107E0022304220021C0
:104A40002046FFF718F9701CC6B2A07A0028F4D1EE
:104A500009E000BF0223042200212046FFF70BF9E2
:104A6000701CC6B200BF00BF404600F0C3FFFEF797
:104A7000A6FF0E2028703046D3E7404600F0BAFF6C
:104A80000020287000BFCCE72DE9F04105460E4616
:104A900000272878022802D00120BDE8F08100F02C
:104AA000A5FF0746A87A60B10023042231462846B4
:104AB000FFF7E1F8384600F09DFFFEF780FF002089
:104AC000EBE76C68E08AA18A884204DB384600F094
:104AD00091FF1E20E1E7E168081DE0600E60E08ABA
:104AE000401CE082D4E90210884201D16068E06095
:104AF000384600F07FFF0020CFE72DE9F041054662
:104B00000E4600272878022802D00120BDE8F08157
:104B100000F06CFF0746A87A60B1002304223146FA
:104B20002846FFF7A8F8384600F064FFFEF747FF75
:104B30000020EBE76C68E08AA18A88420EDB3846E9
:104B400000F058FF1E20E1E7710000205C0000200B
:104B50009800002072000020840000206168206915
:104B6000884201D1A06820612069001F206120696E
:104B70000660E08A401CE082384600F03BFF0020DF
:104B8000C4E72DE9F04105460F4616464FF00008F0
:104B90002878022802D00120BDE8F08100F026FF2D
:104BA0008046A87AE8B106F0010050B105E0002384
:104BB000042239462846FFF75EF8A87A0028F6D185
:104BC00005E00023042239462846FFF754F8404602
:104BD00000F010FF06F0040008B9FEF7F0FE002018
:104BE000DAE76C68E08AA18A884204DB404600F07C
:104BF00001FF1E20D0E706F0020058B1616820696D
:104C0000884201D1A06820612069001F20612069CD
:104C1000076009E0E168081DE0600F60D4E9021058
:104C2000884201D16068E060E08A401CE082404632
:104C300000F0E0FE0020AFE72DE9F04705460C4606
:104C40004FF0000A2878022802D00120BDE8F08742
:104C500000F0CCFE8246A87A207405F10B0804F11E
:104C60000809002705E018F8010B09F8010B781C6A
:104C7000C7B2082FF7D36E68F08A18B130690068A0
:104C8000206001E000202060F08AA080B08AE080EF
:104C9000504600F0AFFE0020D8E72DE9F041782122
:104CA0001048FEF77BFD00240DE0601C86B204EB8B
:104CB00044000C4901EBC00506EB460001EBC007C0
:104CC0002F60601C84B2042CEFD304EB4400054930
:104CD00001EBC00500202860084603490860BDE8D4
:104CE000F0810000B04300209800002070B5044619
:104CF00000262078032801D0002070BD00F076FE49
:104D00000646258915B12089401E2081304600F0D5
:104D100071FE2846F1E770B505460026D2480078B6
:104D200008B1002070BD00F061FE0646CF4804685F
:104D3000006820B1CD4800684068CC490860304622
:104D400000F058FE3CB103202070258100206060F7
:104D50002046FFF701F82046E4E72DE9F047044636
:104D6000884615464FF000092078032804D001201A
:104D700028702046BDE8F087BB48007818B10F20A6
:104D800028702046F6E700F031FE8146A07A08B18F
:104D9000012700E00027B8F1000F03D0B8F1010FA0
:104DA00035D117E07FB900202070B04800686060FE
:104DB00000202081AD480460484600F01BFE002022
:104DC0002870002605E0484600F014FE49202870AF
:104DD000264623E005E00023012219462046FEF77F
:104DE0004AFFA07A0028F6D12070A04800686060D1
:104DF000002020819D480460484600F0FBFD012F03
:104E000001D1FEF7DCFD00202870002606E04846B0
:104E100000F0F0FD07202870264600BF00BF304696
:104E2000A8E72DE9F04105460E46144600272878EC
:104E3000032803D001202070BDE8F0818A48007863
:104E400010B102202070F7E78948007810B10D20DA
:104E50002070F1E700F0CAFD0746288940B1288993
:104E6000401E2881384600F0C5FD00202070E3E791
:104E70008048006890F8300040F001007D490968E2
:104E800081F8300000207B49096881F831007948B9
:104E90000068C6622846FEF727FF384600F0AAFDE4
:104EA000FEF78DFD00F0A2FD07467248006890F8FD
:104EB000310020B1012809D0022806D102E00020EB
:104EC00020700BE00E20207008E000BF29466948E2
:104ED0000068FEF7BBFE0A20207000BF00BF002064
:104EE0006449096881F830006249096881F8310035
:104EF00060490968C861384600F07CFD00BF9BE747
:104F00002DE9F04104460F4615464FF00008207881
:104F1000032804D0012028700020BDE8F08100F0B3
:104F200065FD8046A07A20B300267FB1012F0CD109
:104F300007E00223012200212046FEF79CFE701CA0
:104F4000C6B2A07A0028F4D109E000BF02230122F2
:104F500000212046FEF78FFE701CC6B200BF00BFC6
:104F6000404600F047FDFEF72AFD0E20287030462F
:104F7000D3E7404600F03EFD0020287000BFCCE79C
:104F800070B5044600252078032801D0012070BDAB
:104F900000F02CFD0546A07A60B1002301221946DD
:104FA0002046FEF768FE284600F024FDFEF707FDC8
:104FB0000020ECE720894FF6FF71884207D2208954
:104FC000401C2081284600F015FD0020DFE7284620
:104FD00000F010FD3320DAE72DE9F04704460D46D6
:104FE0004FF000092078032802D00120BDE8F087A7
:104FF00000F0FCFC8146A07AA87204F10B0705F1D1
:105000000208002605E017F8010B08F8010B701CD8
:10501000C6B2082EF7D320892880484600F0EAFC63
:105020000020E3E72DE9F04104460E46154600272F
:105030002078032803D001202870BDE8F08100F01B
:10504000D5FC074600202870208908B1268105E09C
:10505000A07A08B9268101E049202870384600F07E
:10506000C9FC00BFE9E70000710000205C000020DF
:1050700072000020840000202DE9FF5F81468846F1
:105080000020009000F0B2FC0090F94850F8280091
:1050900030B1009800F0AEFC282004B0BDE8F09FCD
:1050A000B9F1FF0F03D1F348006890F83290F0484F
:1050B00050F8294024B9009800F09CFC2920ECE726
:1050C000012C04D1009800F095FC4320E5E74FEA5D
:1050D000E80708F0070003900120B84000F0FF0A3D
:1050E00001210398814001F0FF0B0020E04941F8C5
:1050F0002900084640F8284014F8346FA078029040
:105100006078343C0190DC48815D01980140D1B168
:10511000D948805D01998843D74988550846805D04
:1051200028B9D648007802998843D4490870D348F2
:10513000007840EA0A00D1490870CF48C05D40EAD3
:105140000B00CD49C855E569D5B105F10B00805D6F
:105150000199884305F10B0188550846805D18B90F
:10516000A87A02998843A872A87A40EA0A00A8722D
:1051700005F10B00C05D40EA0B0005F10B01C855BD
:1051800084F8328084F83470039884F8330084F80B
:1051900036A084F835B0009800F02CFCB8480078B0
:1051A000012801D1FEF70BFC002076E72DE9FE4F28
:1051B00006460F4690461C464FF0000900F016FCCC
:1051C0008146B048007828B1484600F013FC3C20E6
:1051D000BDE8FE8FA64850F8240060BB0120A4491A
:1051E00041F82400484600F005FC002342463946B9
:1051F000304600F05BFC82460020009001900346A0
:105200000246514602902046FEF7C8FD054635B9D4
:105210009B48007801280CD1FEF7D1FB09E000F093
:10522000E5FB81460020924941F82400484600F001
:10523000E1FB2846CCE7484600F0DCFB2820C7E726
:1052400002F0010343B102F002032BB102E0491E58
:10525000002308C00029FAD170472DE9F04F85B02E
:1052600081468A4693461C46DDE90F78129D002050
:10527000039000F0BBFB03908248007830B10398A4
:1052800000F0B8FB3C2005B0BDE8F08F784850F83E
:10529000240088BB0120764941F82400039800F0DF
:1052A000A9FB2A4641463846FFF7CAFF2B465A4615
:1052B0005146484600F0FAFB04901198CDE9008071
:1052C00002953A4620460E9B0499FEF767FD064676
:1052D00036B96B48007801280CD1FEF770FB09E065
:1052E00000F084FB03900020614941F824000398FA
:1052F00000F080FB3046C6E7FFE7039800F07AFB3A
:105300002820C0E72DE9F041054600275D480078D8
:1053100010B14020BDE8F0813F2D01D13E20F9E7DA
:1053200000F064FB0746FF2D03D15248006890F857
:1053300032504F4850F8254024B9384600F05AFB07
:105340004320E7E7012C04D1384600F053FB3D2011
:10535000E0E714F8340F4849085C61788843217805
:10536000454A505414F834091146085C30B994F891
:10537000361042480078884340490870E06918B107
:105380002046E169FEF762FC666A16B13046FEF718
:105390005CFE0020E06284F8300084F831003A4876
:1053A0000078FF2804D238480078401C364908703D
:1053B000384600F01FFBFEF748FC00F017FB0746DD
:1053C0003148007820B130480078401E2E490870DE
:1053D000204600F068FB2D480078401E2B490870DD
:1053E0000020234941F82500A06930B900206169F7
:1053F000886127496069086005E0D4E905014861D2
:10540000D4E9051088612348006860612148046080
:1054100021A0E064384600F0EDFA19480078012830
:1054200001D1FEF7CCFA002074E72DE9F0410446E3
:1054300000273F2C02D13E20BDE8F081FF2C0BD18C
:1054400000F0D4FA07460B48006890F837603846F9
:1054500000F0D0FA3046EFE700F0C8FA07460448FB
:1054600050F82450D5B9384600F0C4FA4320E3E799
:10547000C03E00208400002076000020750000203F
:105480007E00002071000020720000207F000020BC
:1054900090000020880000203F000000012D04D172
:1054A000384600F0A7FA3D20C6E73F2085F83700D0
:1054B000384600F09FFA0020BEE72DE9F047064687
:1054C0000F4614464FF00008D648007820B111204E
:1054D00020700020BDE8F08700F088FA8046FF2E9B
:1054E00003D1D148006890F83260D04850F8265077
:1054F00035B9404600F07EFA432020700020E9E7ED
:10550000012D06D1404600F075FA4320207000209E
:10551000E0E7E86C38603868FEF736FC81464046C4
:1055200000F068FA002020704846D3E72DE9F041EA
:1055300006460F4614464FF00008BA48007818B1E6
:1055400012202070BDE8F08100F050FA8046FF2E56
:1055500003D1B548006890F83260B44850F826503E
:105560002DB9404600F046FA43202070EAE7012DAD
:1055700005D1404600F03EFA43202070E2E7EF6498
:10558000404600F037FA0020207000BFDAE770B51F
:105590000546002600F02AFA0646A44850F82540A1
:1055A00024B9304600F026FA462070BD012C04D103
:1055B000304600F01FFA4320F7E794F8300000F07F
:1055C000080060B314F8300F00F0F700207014F8F2
:1055D0003009F8B9E06AC8B93434A0789449097838
:1055E00008439349087020789249085C6178084321
:1055F00014F834198F4A5054304600F0FBF98E48A5
:105600000078012809D1FEF7DAF906E0304600F00B
:10561000F1F902E0304600F0EDF90020C5E7304630
:1056200000F0E8F94420C0E72DE9F04707460D46B1
:105630004FF0000A00202860686000F0D7F9824629
:10564000FF2F03D17848006890F83270774850F8FF
:1056500027402CB9504600F0CDF94320BDE8F08733
:10566000012C04D1504600F0C5F94320F6E7207C18
:1056700000F0010020B9504600F0BCF94520EDE7EC
:105680000026D4F80C90D4F80880504600F0B2F907
:1056900000E0761C58F8041B0029FAD0B0002860FE
:1056A000A9EB0600800068600020D7E72DE9F041F3
:1056B00005464FF0000800F099F98046FF2D05D10E
:1056C0005948006890F83250012608E056480068B2
:1056D00090F83200A84201D1012600E0002653488C
:1056E00050F825402CB9404600F084F94820BDE828
:1056F000F081012C04D1404600F07CF94320F6E70C
:1057000094F834704B48C05D94F83510884349498B
:10571000C8550846C05D30B994F836104448007842
:1057200088434349087094F8300040F0080084F83A
:105730003000404600F05EF9012E01D1FEF73FF93E
:105740000020D4E72DE9F04105460E46002700F081
:105750004DF90746FF2D03D13348006890F83250C9
:10576000324850F825402CB9384600F043F929203A
:10577000BDE8F081012C04D1384600F03BF943200C
:10578000F6E7542221463046FEF7F4FA384600F098
:1057900031F90020ECE72DE9F04704460E461746A4
:1057A0004FF0000900F022F98146FF2C02D11E487B
:1057B000056802E01D4850F8245005F1500050F8EB
:1057C0002680484600F016F9002038704046BDE8B3
:1057D000F0872DE9F04704460E46174698464FF0ED
:1057E000000900F003F98146FF2C02D10E4805683C
:1057F00002E00E4850F8245005F1500040F82670A1
:10580000484600F0F7F8002088F80000BDE8F0876F
:1058100010B50548006800F099F9FF20FFF772FD08
:1058200010BD00007100002084000020C03E002058
:1058300075000020760000207E00002070B505462F
:1058400000266348007800B170BD6248007800B15E
:10585000FAE71DB300F0CAF806465F48006890F802
:1058600034405E48005D5C49096891F83510884312
:105870005A4908550846005D40B95748006890F8F5
:1058800036105748007888435549087052480068D8
:10589000C562304600F0AEF8FEF791F800BFD3E7DE
:1058A0002DE9F04104460D4616461F46484800784B
:1058B00010B15520BDE8F0814648007808B132208B
:1058C000F8E7B81CC82148434FF47A71B0FBF1F1F6
:1058D0004FF461606043C5EB051200EB8200304479
:1058E00000EBC00202EB001001EBC0084046FFF7DE
:1058F000A5FF0020DEE770B5054600263F2D01D349
:105900002A2070BD00F072F80646364850F825404F
:1059100024B9304600F06EF84320F2E7012C04D1A0
:10592000304600F067F84320EBE7E06A20B93046E4
:1059300000F060F85020E4E70020E06294F83000C6
:1059400000F0370040B114F8300F20F0370020701D
:1059500001206070303C02E0002084F8310094F8AF
:10596000300000F00800A8B93434A0781C49097848
:1059700008431B49087020781849085C617808437F
:1059800014F83419154A5054304600F033F8FEF735
:1059900016F802E0304600F02DF80020B1E770B5AF
:1059A000002500F023F805460F480468284600F05B
:1059B00021F8204670BD70B50446002500F016F8A9
:1059C000054609480460284600F014F870BD000040
:1059D000710000207200002084000020760000206A
:1059E00075000020C03E00209C000020EFF31080D6
:1059F00072B6704780F310887047204C204D2560A8
:105A00004FF0000484F309881E4C4FF00105257007
:105A10001D4C4FF08055256062B6FEE730B41A4C3D
:105A20004FF08055256030BC704730B4164C4FF0B5
:105A30008055256030BC704700BF72B6EFF3098017
:105A400028B1203880E8F00F10490968086000B5D7
:105A50000F4880475DF804EB0E480F490A78027042
:105A60000A480E490A680260106890E8F00F20307A
:105A700080F309884EF0040E62B6704720ED00E016
:105A80000000FFFF7E00002004ED00E08400002005
:105A9000475B000873000020740000208C00002089
:105AA00070477047704770477047704770B504463D
:105AB00010464FF080750560051F28462C606FF07A
:105AC0000106051F28462E604FF01236051F284696
:105AD0002E604FF00336051F28462E604FF0023629
