:020000040800F2
:1000000058490020F15900088D0600088F060008A5
:1000100093060008970600089B06000800000000F1
:100020000000000000000000000000009F06000823
:10003000A106000800000000E78900085504000838
:100040000B5A00080B5A00080B5A00080B5A0008FC
:100050000B5A00080B5A00080B5A00080B5A0008EC
:100060000B5A00080B5A00080B5A00080B5A0008DC
:100070000B5A00080B5A00080B5A00080B5A0008CC
:100080000B5A00080B5A00080B5A00080B5A0008BC
:100090000B5A00080B5A00080B5A00080B5A0008AC
:1000A0000B5A00080B5A00080B5A00080B5A00089C
:1000B0000B5A00080B5A00080B5A00080B5A00088C
:1000C0000B5A00080B5A00080B5A00080B5A00087C
:1000D0000B5A00082345000805480008DD4A0008BF
:1000E0000B5A00080B5A00080B5A000800F002F8DF
:1000F00000F090F80AA090E8000C82448344AAF132
:100100000107DA4501D100F085F8AFF2090EBAE82F
:100110000F0013F0010F18BFFB1A43F0010318473B
:10012000F8A8000018A90000103A24BF78C878C1C8
:10013000FAD8520724BF30C830C144BF04680C60ED
:10014000704700000023002400250026103A28BF35
:1001500078C1FBD8520728BF30C148BF0B60704739
:100160006E2909F0B680702908F0C18566290AF069
:100170006B8265290AF0688267290AF06582612925
:10018000AFF3008003681B0A28BF41F08001692992
:1001900008F03485642908F03185752908F02E852A
:1001A0006F2909F09B81782908F08D85E92909F0EC
:1001B0003781E42909F03481F52909F03181EF29EB
:1001C00009F09881F82908F08C850368DB0928BFBD
:1001D00041F08001632909F0B880732909F0BD80DE
:1001E000E32909F01585F32909F01A8500207047E5
:1001F0001FB508F0FBFF0400002000210AF0F8F909
:10020000401C6060002000210AF008FAE0601FBD79
:1002100010B510BD09F036FD1146FFF7E9FF00F0FB
:10022000F5F809F001FE03B4FFF7F2FF03BC09F093
:1002300001FE000000B585B002F069FB032000213B
:100240004FF48062874BCDE90132CDE903100920DC
:100250000346854A0090854807F0D5FF032000211A
:100260004FF48072824BCDE90132CDE903100720B3
:100270000346804A0090804807F0C5FF05B000BDE6
:1002800010B5002402F043FB02F07DFD044634B1BA
:1002900001207A49087008464088083048800020CC
:1002A0007649087105F064FB38B90120734908717B
:1002B000FE2005F0DEFA72490870704800780128C7
:1002C00001D1FF2010BD0020FCE710B50024B021B3
:1002D0006A4808F01FFF00206849087048800871CC
:1002E00048718871C8713C20A1F87E005C21654886
:1002F00008F010FF4021644808F00CFF012007F0CF
:10030000E0FC62490860012007F0DBFC60490860FE
:10031000012007F0D6FC5F49086005F012F9044699
:10032000642094FBF0F0554981F83600642094FB7A
:10033000F0F100FB11400A2190FBF1F0C1B24F48EF
:1003400080F837100A2094FBF0F100FB1140C1B295
:100350004A4880F8381010BD10B502F0D7FA01F005
:1003600095FE02F0D5FA04F00CF804F061FC04F0FC
:10037000F7FE05F015F904F07BFE05F021F805F015
:1003800074FA10BD002400BF06F0AAFBFFF7E4FFDB
:10039000032001F04FFE4FF47A7001F003FF0020BC
:1003A00001F048FEFFF791FFFFF76AFF04461CB11A
:1003B000022001F03FFE02E0012001F03BFE03F0CD
:1003C00006FDFFF737FFFF2008F046F900BF0020C9
:1003D0008047FCE710B56FF0040005F078FB2E486D
:1003E00000682E49B0FBF1F441F2883044434FF0ED
:1003F000E020006940F002004FF0E021086108466B
:100400004461006940F00100086110BD00B585B08D
:1004100023A11F2008F072FD4FF4A06005F008FB37
:10042000FFF7D8FF06F01FFA032000214FF40072F7
:100430001C4BCDE90132CDE90310052003461A4AD1
:100440000090AFF2BF0007F0DEFE06F031FB0020A7
:1004500005B000BD10B506F01CFA06F060FB06F012
:1004600033FA10BDD8080020D41800208D0B0008E6
:10047000D8180020D41C00208F1C0008D81C002095
:100480004C000020881D0020E41D002000000020FA
:1004900004000020080000201000002000127A0054
:1004A00043000000D8000020D40800200CB5002034
:1004B000019000906C48006840F480306A49086000
:1004C00000BF6948006800F4003000900198401CAB
:1004D0000190009818B90198B0F5A06FF1D1624869
:1004E000006800F4003010B10120009001E000200D
:1004F00000900098012843D15C48006840F010004B
:100500005A4908600846006820F003000860084661
:10051000006840F002000860534840685249486053
:100520000846406848600846406840F4806048607B
:100530000846406820F47C1048600846406840F453
:10054000E81048600846006840F08070086000BF0E
:100550004548006800F000700028F9D04248406823
:1005600020F00300404948600846406840F002001F
:10057000486000BF3C48406800F00C000828F9D1F2
:100580000CBD10B5FFF792FF10BD10B536480068DE
:1005900040F001003449086008464068344908408A
:1005A0003149486008460068324908402E490860D1
:1005B0000846006820F4802008600846406820F45F
:1005C000FE0048604FF41F008860FFF7DAFF4FF02D
:1005D00000602949086010BD10B5002100200022EC
:1005E000214B5B6803F00C0121B1042906D00829D6
:1005F00028D107E0214B224C236027E01F4B204CE1
:10060000236023E0184B5B6803F47010164B5B68A3
:1006100003F48032022303EB904022B9194B434389
:10062000174C23600DE0104B5B6803F4003323B1DB
:10063000144B4343124C236003E0104B4343104CD4
:10064000236003E00D4B0E4C236000BF00BF064B40
:100650005B68C3F303130C4CE15C094B1B68CB4094
:10066000074C236010BD0000001002400020024033
:100670000000FFF8FFFFF6FE08ED00E000127A0030
:100680001000002000093D0014000020704700BF4A
:10069000FEE700BFFEE700BFFEE700BFFEE77047D2
:1006A000704700000246FC4890F86A0008B9002034
:1006B00070478A4201D80020FAE7FF20F8E77CB5AE
:1006C0000446002502F023F9684604F0E4FD0546DF
:1006D0000DB1FF207CBD0098A060BDF80400A08192
:1006E0009DF80600A0730020F4E72DE9F0419AB0D0
:1006F00000240026002016901790189019900027CB
:1007000080460025069002F002F9342109A808F07D
:1007100001FDE248E2A109680160E34890F82D007C
:10072000C043DE490871E04890F82E00C04348718C
:10073000DD4A2D32002003F02FFBC4B21CB1FF2094
:100740001AB0BDE8F08116A9022002F0EBFFC4B296
:100750000CB1FF20F4E70422D4A10DF1620008F0EF
:10076000E7FB002853D19DF86100E52802D0E62878
:1007700046D100E044E020208DF81C009DF85E008A
:1007800001F009FF8DF81D009DF85C0001F003FFEA
:100790008DF81E009DF85B0001F0FDFE8DF81F0036
:1007A0009DF85A0001F0F7FE8DF820009DF85900E1
:1007B00001F0F1FE8DF821009DF8580001F0EBFEEC
:1007C0008DF8220007A804F0CDFD9DF822009DF8C9
:1007D00021109DF820209DF81F30CDE90132CDE990
:1007E00003109DF81E0000909DF81D309DF81C2000
:1007F000B0A109A808F09CF909A800F029FC00BFE5
:1008000000BF4FF4FA7004F0E7FEFF2098E7A64817
:10081000FFF755FF04460CB1FF2091E79DF8580003
:100820008DF818009DF859008DF819009DF86700A3
:100830008DF81A0006A801F090FF04461CB104F0E0
:10084000D9FEFF207CE79DF862009749C8732020FD
:1008500081F852009DF85A0001F09DFE924981F8FE
:1008600053009DF85B0001F096FE8F4981F854001B
:100870009DF85C0001F08FFE8B4981F85500002146
:10088000894880F8561080F8571080F85810523078
:1008900001F015FE07468448083001F010FE80463E
:1008A00004F04FFE0646642096FBF0F07A4981F88A
:1008B0003600642096FBF0F100FB11600A2190FBEA
:1008C000F1F0C1B2744880F837100A2096FBF0F1BD
:1008D00000FB1160C1B2704880F8381090F8360003
:1008E000642148436C4991F8371001EB810100EB1A
:1008F0004101694890F838000844C5B279A000F079
:10090000A7FB9DF859109DF8580001EB002279A132
:1009100009A808F00DF909A800F09AFB9DF85C0001
:1009200000909DF85B309DF85A2076A109A808F048
:10093000FFF809A800F08CFB9DF8622078A109A8B7
:1009400008F0F6F809A800F083FB9DF8612078A173
:1009500009A808F0EDF809A800F07AFB2A4678A16A
:1009600009A808F0E5F809A800F072FB9DF86400FA
:100970009DF863109DF860209DF85F30CDE900324E
:10098000CDE902109DF85E309DF85D2070A109A8A8
:1009900008F0CEF809A800F05BFB4348C07B0128B3
:1009A00006D002280AD0032814D004281AD117E050
:1009B0009DF85D003C4981F8240015E03946404629
:1009C000FFF770FE04461CB104F014FEFF20B7E6EA
:1009D0000020B5E69DF85D00334981F8240003E06E
:1009E0000020ADE6FF20ABE600BF9DF85D00A84209
:1009F00007D09DF85F00A84203D09DF86300A8428D
:100A00000BD139464046FFF74DFE04461CB104F0B9
:100A1000F1FDFF2094E6002092E604F0EBFDFF20BC
:100A20008EE638B500240020009001F070FF03F03E
:100A3000D4F91D495131002002F038FCC4B244B150
:100A400019495131002002F031FCC4B20CB1FF2031
:100A500038BD154A2D320021932002F065FCC4B246
:100A60000CB1FF20F4E76A460F492D31932002F0C4
:100A70007FFDC4B20CB1FF20EAE70B4890F85100AB
:100A8000042804D0084890F8510002287AD1FFF7D2
:100A90002CFE044678E075E0D81C0020D42200200B
:100AA0008F8E8D8C00000000881D0020000000004B
:100AB00000000000C9E8D6C3CAB1BCE43A20253022
:100AC0003258253032582D253032582D25303258A5
:100AD00020253032583A253032583A253032580DD8
:100AE0000A000000B6C1C8A1BFA8C6ACD0C5CFA23D
:100AF0002E0D0A00BFA8BAC53A20253035640D0A6C
:100B000000000000D3D0D0A7C6DA3A2025303264E6
:100B10002D253032642D253032640D0A000000008E
:100B2000BFA8C0E0D0CD3A20253032640D0A0000C5
:100B3000B7D6C7F8BAC53A20253033640D0A00008D
:100B4000B5A5D4AABAC53A20253033640D0A0000F1
:100B5000D4A4C9E8B5A5D4AA3A2025303364C2A5E7
:100B600025303264B2E32025303364C2A52530320B
:100B700064B2E32025303364C2A525303264B2E389
:100B80000D0A0000FF2063E7204661E700260024ED
:100B9000012500BF01F0BBFE00BF01F0B8FE601CE4
:100BA000C4B2322C09DB0DB9012000E0002005465B
:100BB00000242946012001F094FA2021FE4805F086
:100BC00098F8B8B9002004F0D9FC0021084601F0DB
:100BD00088FA002004F03AFA4FF4967001F0C0FA57
:100BE0000121002001F07DFA012004F02FFA0120FC
:100BF00004F0C4FCFFF715FF064602F038FFC6B943
:100C0000002004F0BBFC0021084601F06AFA002035
:100C100004F01CFA4FF4967001F0A2FA01210020B2
:100C200001F05FFA012004F011FA012004F0A6FCA3
:100C3000B3E70121002001F054FAAEE770B5054694
:100C40000E4600243146284601F05BFD044620464E
:100C5000E11704EB1161C1F30721A955E11704EB7A
:100C600011610912A4EB0121CAB2711C6A5470BD52
:100C700010B5D248D2A10A68026009790171052134
:100C8000FFF7DCFF0721CD4803F07BFC10BD2DE909
:100C9000FF4100240025002600270020009001903D
:100CA0000290039001F033FEC748007801280BD171
:100CB0000422C5492831C54808F03AF947B25FB166
:100CC000FF2004B0BDE8F081C0482D38FFF7F7FCE5
:100CD00004460CB1FF20F4E7BD48AFF23C2109689F
:100CE0000160BA482D3890F82D00C043B84908710A
:100CF000B6482D3890F82E00C0434871B34A002002
:100D000003F04AF8C4B20CB1FF20DAE769460220CA
:100D100002F008FDC4B20CB1FF20D2E79DF8090033
:100D2000AA492D39C873202081F852009DF802008D
:100D300001F031FCA5492D3981F853009DF80300DD
:100D400001F029FCA1492D3981F854009DF80400D7
:100D500001F021FC9D492D3981F8550000219B4867
:100D60002D3880F8561080F8571080F858105230FF
:100D700001F0A5FB05469548253801F0A0FB064685
:100D80009DF809006D280ED19048253801F097FB99
:100D9000064629463046FFF785FC04460CB1FF2085
:100DA0008FE700208DE7FF208BE730B58DB0002462
:100DB00001F0ADFD03F011F86946002002F076FA6B
:100DC000C4B214B1FF200DB030BD9DF800507F4A71
:100DD0000021932002F0A8FAC4B20CB1FF20F2E780
:100DE000022D01D0042D02D1FFF751FF04460CB1B2
:100DF000FF20E8E70020E6E71FB500240020009070
:100E000001900290039001F082FD6946042002F0F7
:100E100089FCC4B214B1FF2004B010BD9DF80B00D2
:100E2000042802D146F68520F6E704208DF80B0051
:100E30000F21684601F0D0F98DF80F0069460420B3
:100E400002F0C8FCC4B20CB1FF20E5E711205F49F5
:100E50002D3981F824000020DEE710B5002401F0D0
:100E600056FDFFF7C9FF04460CB1204610BD574898
:100E70002D3890F82400574981F8A50008465349B9
:100E80002D394968C0F8A610AFF2E0310968C0F802
:100E9000AA100020EAE70146080E4F4AD070080C5D
:100EA0009070080A507011701046704738B50024D1
:100EB0000020009001F02BFD464890F8AF0001287B
:100EC00009D1072041492D3981F824000846C0691D
:100ED0000862002038BD3D482D38C0693B492D3996
:100EE0000969884202D249F20140F3E737492D39B6
:100EF0000869FFF7D0FF054605232A461946C0209A
:100F000002F0E6FCC4B20CB1FF20E3E706236A4618
:100F10000521C02002F0DCFC2C482D38C0692B498B
:100F20002D390969401A29492D390862062081F8AE
:100F300024000020CEE710B5002401F0E8FCFFF704
:100F4000B5FF04460CB1204610BD20482D3890F85E
:100F50002400204981F8A50008461C492D3949681C
:100F6000C0F8A61019492D39096AC0F8AA10002046
:100F7000EAE710B5044601F0CAFC207B617B084417
:100F8000FF2807D1207BA17B884203D1607BE17BD6
:100F9000884201D0012010BD2078217A88421ED1DC
:100FA0006078617A88421AD1A078A17A884216D1F5
:100FB000E078E17A884211E0000C0140482F0020DF
:100FC000BBFF006A00000000E41D0020B51D0020EA
:100FD000D4220020D81C00203C00002001D0022098
:100FE000D9E7207821790844FF2810D16078617909
:100FF0000844FF280BD1A078A1790844FF2806D126
:10100000E078E1790844FF2801D10020C3E70320FC
:10101000C1E70146C87800068A7800EB02404A78AA
:1010200000EB02200A7810447047000038B50446EF
:10103000002000906A460021FA48006806F0C7FECA
:10104000204603F042FAF748006806F06FFF38BD0B
:1010500038B50446002000906A460021F148006837
:1010600006F0B5FE204607F0B3FF85B229462046BC
:1010700003F087FAEB48006806F058FF38BD38B532
:1010800004460D46002000906A460021E5480068AD
:1010900006F09DFE2946204603F073FAE1480068F9
:1010A00006F044FF38BD08B50020009000BF01F0F5
:1010B0002EFCDD49684603F0CEF8012802D19DF8E8
:1010C000000008BD052300221146104607F0BEFBB4
:1010D000EDE710B503F0F2F910BD2DE9F04104463B
:1010E0000D4616461F464FF000083B46324629463D
:1010F000204603F056FA80464046BDE8F0810FB422
:1011000010B58EB000200D9011A80C900DAA0021F2
:10111000C448006806F05BFEC4480C9A1099006849
:1011200007F0F4FCC148006807F052FF84B2214682
:10113000BE48006803F025FA0AA804F0CFF89DF82D
:101140002E0000909DF82D309DF82C20B8A102A80B
:1011500007F0EEFC0DAA0021B948006806F037FE42
:10116000B84807F035FF044602A807F031FF2044D5
:10117000B0F57A7F03D202A9B24807F048FFB14820
:1011800007F026FF0446A948006807F021FF204425
:10119000B0F57A7F04D2A5480168AA4807F037FF66
:1011A000A748006806F0C2FE9E48006806F0BEFE32
:1011B0000EB010BC5DF814FBF0B585B005460020FC
:1011C000A149087000240027A0A0FFF741FF04E018
:1011D000285D0DF80400601CC4B2285D202803D0EF
:1011E000285D08B1142CF3DB00200DF80400002664
:1011F0000DE006EB4600964A02EB80004168684627
:1012000007F0B0FF08B9374603E0701CC6B2092EDC
:10121000EFDB00BF092E02DBFF2005B0F0BD18E0B8
:10122000285D202813D188480078002801DD00209F
:101230002855601CC4B228198649834A127841F89F
:10124000220081480078401C7F49087001E0601C42
:10125000C4B2285D0028E3D13846DEE7704700B508
:101260000246FFF7FBFF002000BD2DE9F04395B0DB
:1012700007460C464FF00008002601F048FB73A01B
:10128000FFF7E6FE022F0FD07348FFF7E1FE73A0D1
:10129000FFF7DEFE77A0FFF7DBFE7DA0FFF7D8FEAD
:1012A000FF2015B0BDE8F08382A1206807F02EFE74
:1012B00028B981A1206807F029FE00287DD00A22E4
:1012C00005A9606807F0E2FD054660680599884257
:1012D00004D17AA0FFF7BCFEFF20E2E77E488542FA
:1012E00004DD76A0FFF7B4FEFF20DAE77B4895FB2C
:1012F000F0F0C0B28DF82000784895FBF0F100FBCB
:10130000115042F2107190FBF1F0C0B28DF8210043
:10131000084695FBF0F100FB11504FF47A7190FBF9
:10132000F1F0C0B28DF82200084695FBF0F100FB09
:101330001150642190FBF1F0C0B28DF823006420BD
:1013400095FBF0F100FB11500A2190FBF1F0C0B2C7
:101350008DF824000A2095FBF0F100FB1150C0B27B
:101360008DF825009DF821009DF8201040EA01101D
:101370005B4981F836009DF823009DF8221040EA71
:101380000110C1B2564880F837109DF825009DF82D
:10139000241040EA0110C1B2514880F8381051A021
:1013A000FFF756FE4E4890F83600642148434C49FA
:1013B00091F8371001EB810100E010E000EB4101F2
:1013C000474890F838000A184AA11848006807F002
:1013D000AFFB16480068FFF73BFE002061E74BA11A
:1013E000206807F093FD28B94AA1206807F08EFD18
:1013F000002815D0606807F0EBFD0E2804D047A048
:10140000FFF726FEFF204CE70026AFE007F076FB53
:10141000006861688957405C202802D101209CE067
:101420003EE199E004000020C82A0020440000208A
:10143000253032783A253032783A2530327820001B
:101440000C000020241E0020400000200D0A000097
:1014500034230020A0230020C4A90008B8F1CABD8D
:101460003A2073657420787878207878782E0D0A81
:1014700000000000C0FDC8E7C9E8D6C369643A208F
:10148000736574206964203030303030310D0A00CB
:10149000C7E5B3FD61706E7061737377643A207352
:1014A00065742061706E706173737764204E554C63
:1014B0004C0D0A0069640000494400004944CEAA6A
:1014C00036CEBBCAFDD7D6A3ACC7EBD6D8D0C2CADE
:1014D000E4C8EBA1A30D0A003F420F00A086010063
:1014E000D81C0020736574206964206F6B2E0D0A70
:1014F00000000000D6D5B6CBB1E0BAC52869642992
:101500003A20253036640D0A0000000074696D65CC
:101510000000000054494D4500000000B8F1CABD6C
:10152000B2BBB6D4A3ACC7EBD6D8D0C2CAE4C8EB22
:10153000A1A3B8F1CABDCEAA595959594D4D444439
:1015400048484D4D5353D2BBB9B23134B8F6D7D613
:10155000BDDAA1A30D0A00000020012805D0AFF2DA
:101560004400FFF775FDFF209BE6761C606807F0DE
:101570002FFDB0423FF64AAF08A8616807F004FDAE
:101580009DF8210000F0B0FF81469DF8200000F09A
:10159000ABFF49EA0010C0B28DF818009DF8230097
:1015A00000F0A2FF81469DF8220000F09DFF49EA6D
:1015B0000010C0B28DF819009DF8250000F094FFCE
:1015C00081469DF8240000F08FFF49EA0010C0B268
:1015D0008DF81A009DF8270000F086FF81469DF8DF
:1015E000260000F081FF49EA0010C0B28DF81B0010
:1015F0009DF8290000F078FF81469DF8280000F052
:1016000073FF49EA0010C0B28DF81C009DF82B0052
:1016100000F06AFF81469DF82A0000F065FF49EA64
:101620000010C0B28DF81D009DF82D0000F05CFF89
:1016300081469DF82C0000F057FF49EA0010C0B227
:101640008DF81E0006A803F08DFEFEA0FFF700FD3A
:1016500006A803F020FE8046B8F1000F02D000205B
:10166000069007909DF81E009DF81D109DF81C2007
:101670009DF81B30CDE90132CDE903109DF81A0029
:1016800000909DF819309DF81820F2A1FC480068E0
:1016900007F04EFAFA480068FFF7DAFC002000E68F
:1016A000F848FFF7D5FCAFF24C20FFF7D1FCAFF2C2
:1016B0003C20FFF7CDFCAFF22820FFF7C9FCFF204C
:1016C000EFE570B588B005460E4601F020F9E0A0C0
:1016D000FFF7BEFCEC48FFF7BBFCEC48FFF7B8FC9B
:1016E000EBA0FFF7B5FC06A9052006F073FF044642
:1016F0000CBB0522EDA101A807F01AFA01A8FFF71B
:10170000A7FCDDE906014218EAA101A807F010FADA
:1017100001A8FFF79DFCE9A101A8069A07F008FAC5
:1017200001A8FFF795FCE7A101A8079A07F000FAC6
:1017300001A8FFF78DFCE5A0FFF78AFC06A90920A8
:1017400006F048FF04460CBB0922D8A101A807F007
:10175000EFF901A8FFF77CFCDDE906014218D5A1ED
:1017600001A807F0E5F901A8FFF772FCD3A101A8D1
:10177000069A07F0DDF901A8FFF76AFCD1A101A8DC
:10178000079A07F0D5F901A8FFF762FCD6A0FFF78A
:101790005FFC06A9072006F01DFF04460CBB0722CC
:1017A000C2A101A807F0C4F901A8FFF751FCDDE9C7
:1017B00006014218BFA101A807F0BAF901A8FFF776
:1017C00047FCBEA101A8069A07F0B2F901A8FFF7ED
:1017D0003FFCBCA101A8079A07F0AAF901A8FFF7EE
:1017E00037FCC8A0FFF734FC06A9062006F0F2FE7D
:1017F00004460CBB0622ADA101A807F099F901A887
:10180000FFF726FCDDE906014218AAA101A807F0AE
:101810008FF901A8FFF71CFCA8A101A8069A07F000
:1018200087F901A8FFF714FCA6A101A8079A07F001
:101830007FF901A8FFF70CFC002008B070BD70B55F
:1018400004460D4601F063F881A0FFF701FC24B9BE
:10185000B3A0FFF7FDFBFF2070BDB7A1286807F01C
:1018600081FC20B1B6A0FFF7F3FBFF20F4E7B7A09F
:10187000FFF7EEFBBBA0FFF7EBFB0020ECE7F0B5BA
:1018800087B006460F46002500BF01F040F870A063
:10189000FFF7DEFB03F055FE0446642094FBF0F0F6
:1018A000B34981F83600642094FBF0F100FB11404D
:1018B0000A2190FBF1F0C1B2AD4880F837100A2040
:1018C00094FBF0F100FB1140C1B2A94880F8381038
:1018D000A84AA9A16A48006807F02AF96848006880
:1018E000FFF7B6FBA24890F8360064214843A049B0
:1018F00091F8371001EB810100EB41019C4890F811
:1019000038000A18AFF214415D48006807F010F97A
:101910005B480068FFF79CFB95480079012805D1DA
:1019200099A15748006807F003F904E09BA15448C7
:10193000006807F0FDF852480068FFF789FB05A82A
:1019400003F0A9FC054615B10020059006909DF80E
:101950001A009DF819109DF818209DF81730CDE950
:101960000132CDE903109DF8160000909DF8153066
:101970009DF814208DA14248006807F0D9F840482E
:101980000068FFF765FB7A480078012811D193A120
:101990003B48006807F0CCF839480068FFF758FB6F
:1019A0007348408800F0080030B18FA0FFF750FB6B
:1019B00002E091A0FFF74CFB31480068FFF748FBBD
:1019C000002007B0F0BD02460020704770B5054604
:1019D0000E4600241EA0FFF73BFB8AA0FFF738FB52
:1019E00000BF13E004EB44008A4901EB800040682B
:1019F00050B104EB4401874A02EB81014868FFF7CC
:101A000027FB13A0FFF724FB601CC4B2092CE9DB01
:101A1000002070BD002100BF08E0002001EB410262
:101A20007C4B03EB82025060481CC1B20929F4DBF5
:101A30000020784A108078A05060AFF26F0090606C
:101A40000120EDE07365742074696D65206F6B2E65
:101A50000D0A000054494D453A20253032582530B2
:101A600032582D253032582D25303258202530322D
:101A7000583A253032583A253032580D0A000000C5
:101A800044000020C4A900087CA9000834A900086B
:101A90005461736B537461727420202020202020C5
:101AA00020202020202020203A20200025346420DF
:101AB00020000000253131642020000025313064F1
:101AC0002020000025313064200D0A005461736B22
:101AD00047656E6572616C4374726C202020202013
:101AE000202020203A2020007461736B5F736865AA
:101AF0006C6C20202020202020202020202020204E
:101B00003A2020007461736B5F677072732020202D
:101B10002020202020202020202020203A202000CB
:101B2000666F726D6174BAF3C3E6C7EBB8FAC3DCD3
:101B3000C2EB2E0D0A000000303030303030000093
:101B4000C3DCC2EBB4EDCEF32E0D0A005374617208
:101B50007420666F726D617474696E672E2E2E0D1F
:101B60000A00000053756363657373210D0A00005A
:101B7000D81C00204CA60008B0E6B1BEBAC53A2079
:101B800025730D0A00000000B4E6B4A2C9E8B1B89C
:101B90003A4545524F4D0D0A00000000B4E6B4A28C
:101BA000C9E8B1B83A5352414D0D0A00CAB1BCE47C
:101BB0002874696D65293A2025303258253032580D
:101BC0002D253032582D2530325820253032583AC4
:101BD000253032583A253032580D0A00C9E8B1B8DC
:101BE000B9CAD5CF0D0A0000B6C1D0B4CDB7B4ED97
:101BF000CEF3210D0A000000C9E8B1B8D5FDB3A3AA
:101C00000D0A0000616C6C20636F6D6D616E647312
:101C10003A0D0A003423002068656C700000000053
:101C20009081DFA2DF480261AFF2652242610220AB
:101C3000DC4A1083DCA2DB48C261AFF2BD32026233
:101C40000320D84A9084DAA2D6488262AFF21142C9
:101C5000C2620420D34A1086D7A2D2484263AFF2B0
:101C60009D5282630520CF4A9087D5A2CD48026459
:101C7000AFF6092242640620CA4AA2F84800D1A25F
:101C8000C848C264AFF629220265002070478EB0B2
:101C900000250020009000BFFFF7BCFE00208DF85B
:101CA0000400CAA0FFF7D4F9D1A0FFF7D1F900BF13
:101CB00000BF00BFFFF7F7F944B2302C01DB392C2D
:101CC00015DD612C01DB7A2C11DD412C01DB5A2C56
:101CD0000DDD2E2C0BD0202C09D02D2C07D02F2C35
:101CE00005D00D2C03D0082C01D02C2CE2D1082CCF
:101CF00040D00D2C02D0202C53D142E01DB9BCA005
:101D0000FFF7A6F935E0681E01A9085C202801D17B
:101D1000681EC5B2002001A9485501A8FFF74CFA7A
:101D20000646FF2E0AD10025002001A94855B1A082
:101D3000FFF78EF9AEA0FFF78BF91AE006EB46002D
:101D4000984901EB800087686A460021AE48006828
:101D500006F03DF8AD49AE480078B847AA4800689B
:101D600006F0E4F80025002001A94855A0A0FFF7DF
:101D70006FF920E025B1681EC5B2A6A0FFF768F98B
:101D800019E0681E01A9085C202809D045B1302D52
:101D900006DC01A84455681CC5B2E0B2FFF746F95D
:101DA00009E0302D06DC01A84455681CC5B2E0B23C
:101DB000FFF73CF900BF7CE72DE9FE4F80460E4659
:101DC00014461D46DDE90C9A0027BB469248808DDB
:101DD000401C914988850846808D642801DB0020DD
:101DE00088858D48828D8DA1684606F0A1FE00276A
:101DF00033E0FFF76EF906F1180081B24046FFF7B5
:101E00003EF953464A4629462046FFF766F983467F
:101E1000BBF1000F1ED12078402800D01BE029889C
:101E2000204600F076FC00B115E0E07D452803D1A6
:101E3000207E522800D10EE0A0799DF80010884243
:101E400004D1E0799DF80110884200D003E0002021
:101E5000BDE8FE8F00BF781CC7B20A2FC9DDFF2086
:101E6000F6E730B585B00020049000F050FD6DA17C
:101E70006E48006807F088F86C48006807F0A8F81A
:101E800085B20A204FF4FA7104ABCDE9001068481E
:101E90002946026865480068FFF78EFF0446002C5B
:101EA0007BD163490968087E00F01EFB0546604946
:101EB0000968C87D00F018FB45EA0010C0B28DF833
:101EC00008005B490968887E00F00EFB054658490A
:101ED0000968487E00F008FB45EA0010C0B28DF8A2
:101EE000090053490968087F00F0FEFA0546504989
:101EF0000968C87E00F0F8FA45EA0010C0B28DF813
:101F00000A004B490968887F00F0EEFA0546484907
:101F10000968487F00F0E8FA45EA0010C0B28DF881
:101F20000B004349096891F8200000F0DDFA0546EE
:101F30003F490968C87F00F0D7FA45EA0010C0B2EF
:101F40008DF80C003A49096891F8220000F0CCFAAB
:101F500005463749096891F8210000F0C5FA45EABD
:101F60000010C0B28DF80D003149096891F82400C5
:101F700000F0BAFA05462E49096891F8230000F0EE
:101F8000B3FA45EA0010C0B28DF80E0002A803F0C3
:101F90000CFA002005B030BDFFE7FF20FAE7000093
:101FA000666C700034230020696E666F00000000CC
:101FB000666F726D6174000063686B73746B000010
:101FC0007365740075706C6F616400000D0ABBB6B8
:101FD000D3AD2121210D0ACAE4C8EB696E666FB248
:101FE000E9BFB4D0C5CFA2B2CECAFD2E000000001A
:101FF0000D0A23000D0A57726F6E6420636F6D6DBA
:10200000616E642E0000000000000020A02300206C
:102010004000002008200800D81C00202530326431
:102020000000000054494D4530303000440000208D
:102030004800002010B50446012C08D10121404879
:1020400003F071FE02213E4803F06FFE1DE0022CFA
:1020500008D101213A4803F068FE0221384803F014
:1020600062FE12E0032C08D10121354803F05DFE29
:102070000221334803F059FE07E00121304803F004
:1020800052FE02212E4803F04EFE10BD08B501217C
:10209000082004F057F80120ADF8000010208DF85A
:1020A000030002208DF802006946254803F08EFDEA
:1020B0000121234803F037FE0220ADF80000102074
:1020C0008DF8030002208DF8020069461C4803F0D9
:1020D0007DFD02211A4803F026FE0020FFF7AAFF2B
:1020E00008BD70B505460C4655B924B90121144800
:1020F00003F01BFE10E00121114803F014FE0BE079
:10210000012D09D124B902210D4803F00EFE03E090
:1021100002210B4803F007FE70BD10B500210846F0
:10212000FFF7DFFF4FF47A7000F01AF8012100206A
:10213000FFF7D7FF4FF47A7000F012F810BD0000DF
:10214000000C01400022002107E0002201E0531CA6
:10215000DAB2692AFBDB4B1C99B28142F5DB70478E
:1021600030B50446002500BF04E06420FFF7EAFF15
:10217000681C85B2A542F8DB30BD70B50446002569
:1021800000F0C5FB00BF07E00A23002211461046FD
:1021900006F05CFB681C85B20A2094FBF0F0A842B4
:1021A000F2DC70BD10B504462046FFF7D9FF10BD24
:1021B00010B504462046FFF7E0FF10BD00220021C5
:1021C00007E0002201E0531CDAB20B2AFBDB4B1CB8
:1021D00099B28142F5DB704710B502460B460021EB
:1021E000002000BF03E0545C60404C1CA1B2994247
:1021F000F9DB10BD01460A46C81701EB907080104C
:10220000A1EB800070B9642091FBF0F300FB131088
:1022100030B94FF4C87091FBF0F300FB131008B90C
:10222000012070470020FCE710B5044600F06FFB6A
:1022300004F00F00211101EB810100EB4100C0B25D
:1022400010BD2DE9F0439BB004463422FE490EA890
:1022500006F02EFF3422FC49343101A806F028FF95
:102260002078202803D000201BB0BDE8F0836078E0
:10227000FFF7DAFF81462078FFF7D6FF00EBC001B9
:1022800001EB001009EB80084046FFF7B3FF07465B
:10229000012F2AD1A078FFF7C7FF01A951F82080AC
:1022A000E078FFF7C1FF404400EB4000C000C0EB06
:1022B00000108000C0EB00104FEA80082079FFF783
:1022C000B3FFC0EB00108000C0EB001008EB8008EB
:1022D0006079FFF7A9FFC0EB001008EB8008A07938
:1022E000FFF7A2FF08EB000529E0A078FFF79CFFAD
:1022F0000EA951F82080E078FFF796FF404400EBEC
:102300004000C000C0EB00108000C0EB00104FEA9E
:1023100080082079FFF788FFC0EB00108000C0EB39
:10232000001008EB80086079FFF77EFFC0EB00101B
:1023300008EB8008A079FFF777FF08EB00054FF462
:10234000FA660BE03046FFF755FF012802D1BF487F
:10235000054401E0BE480544701C86B26078FFF772
:1023600063FF80462078FFF75FFF00EBC00101EBC1
:10237000001008EB8000B042E4DC284674E72DE949
:10238000F0439BB0044600253422AF4968310EA8C3
:1023900006F08EFE3422AC499C3101A806F088FE7E
:1023A0002078202803D000201BB0BDE8F08360789F
:1023B000FFF73AFF81462078FFF736FF00EBC001B8
:1023C00001EB001009EB80084046FFF713FF0746BA
:1023D000012F2AD1A078FFF727FF01A951F820800B
:1023E000E078FFF721FF404400EB4000C000C0EB65
:1023F00000108000C0EB00104FEA80082079FFF742
:1024000013FFC0EB00108000C0EB001008EB800849
:102410006079FFF709FFC0EB001008EB8008A07996
:10242000FFF702FF08EB000529E0A078FFF7FCFEAC
:102430000EA951F82080E078FFF7F6FE404400EB4B
:102440004000C000C0EB00108000C0EB00104FEA5D
:1024500080082079FFF7E8FEC0EB00108000C0EB99
:10246000001008EB80086079FFF7DEFEC0EB00107B
:1024700008EB8008A079FFF7D7FE08EB00054FF4C2
:10248000FA660BE03046FFF7B5FE012802D16F482F
:10249000054401E06E480544701C86B26078FFF781
:1024A000C3FE80462078FFF7BFFE00EBC00101EBC2
:1024B000001008EB8000B042E4DC284674E70146D7
:1024C00000200A7813064A7803EB02438A7803EB6C
:1024D0000222CB78D0187047014600204B780A784A
:1024E00003EB022290B2704710B5044600F00FFAD9
:1024F000392C03DCA4F13000C0B210BD612C01D036
:10250000412C01D10A20F8E7622C01D0422C01D1E4
:102510000B20F2E7632C01D0432C01D10C20ECE717
:10252000642C01D0442C01D10D20E6E7652C01D0AC
:10253000452C01D10E20E0E70F20DEE701460A20FE
:1025400091FBF0F200FB12100A2291FBF2F240EA3A
:102550000210C0B2704710B5044600F0D8F9092C3B
:1025600003DC04F13000C0B210BD0A2C01D14120BF
:10257000FAE70B2C01D14220F6E70C2C01D14320C5
:10258000F2E70D2C01D14420EEE70E2C01D14520BD
:10259000EAE74620E8E710B5044600F0B8F90A205B
:1025A00094FBF0F100FB11400A2194FBF1F140EAA9
:1025B0000110C0B210BD2DE9F04106460F46144689
:1025C0000025B046002C01DCBDE8F081002506E0C6
:1025D0007A5D08EB45001FA106F0AAFA6D1CA54222
:1025E000F6DB002008F8140000BFEDE72DE9F04706
:1025F00007460D4616460024B84600F088F9002E1E
:1026000001DCBDE8F087002419E0204604EBD0711E
:102610004910A4EB410101B910E0285DFFF764FF08
:102620008246611E685CFFF75FFF4AEA0010A14620
:1026300004EBD971491008F8010000BF641CB442D2
:10264000E3DB00BFDDE7000054A600080085E201DF
:102650008033E1012530327800000000014601F1AD
:102660003000C0B270472DE9F04104460D46002706
:10267000002600F04CF900BF03E0E05D4640781C06
:10268000C7B2281FB842F8DCE81E215C06F00F0034
:102690003030814209D1281F205C302101EB161116
:1026A000884202D10020BDE8F081FF20FBE72DE940
:1026B000F04105460F4600F02AF94FF6FF7418E086
:1026C00000F025F915F8011B84EA012400260EE02C
:1026D00004F4004028B141F2210080EA440084B2B1
:1026E00003E04FF6FF7000EA4404701CC6B2082EE7
:1026F000EEDB3800A7F101018FB2E1D12046BDE841
:10270000F08170B504460D4629462046FFF7CFFFFD
:1027100070BD70B506460D46002400F0F8F8A81EFE
:1027200081B23046FFF7C3FF0446E21704EB1262A2
:10273000C2F30723AA1EB25C93420CD1E21704EB4A
:1027400012621212A4EB0222D3B26A1EB25C93424E
:1027500001D1002070BDFF20FCE770B505460024C4
:102760006748007900285DD16648007858B9664806
:1027700029880180A978817062480078401C6149ED
:102780000870002070BD5F480078502802DB5020A0
:102790005C490870002428E004EB44005A4A811880
:1027A0000222284606F0C4FBE8B904EB440056496F
:1027B00008448078A978884201DDFF20E2E704EB35
:1027C0004400514908448078A978884201D100200A
:1027D000D8E704EB44004C49084429880180A978D3
:1027E00081700020CEE7601CC4B246480078844265
:1027F000D2DB44480078844212DBA87880B141489B
:102800000078401C3F4908700846007800EB400003
:102810003D49084429880180A97881700020B1E7EA
:102820000020AFE73748007880B90322294600200E
:1028300003F0C6F833480078401C32490870084657
:102840000178FE2003F041F800209BE72D48007836
:10285000502802DB50202B49087000242FE004EBA5
:102860004402294BD11804EB4400032203F097F8EB
:1028700004EB4400244A81180222284606F058FB43
:10288000D8B904EB4400204908448078A9788842EC
:1028900001DDFF2076E704EB44001B490844807803
:1028A000A978884201D100206CE704EB44000322A0
:1028B000294603F085F8002064E7601CC4B2114883
:1028C00000788442CBDB0F480078844215DBA8787F
:1028D00098B10C49097801EB41000322294603F025
:1028E0006FF808480078401C0649087008460178CF
:1028F000FE2002F0EAFF002044E7002042E700004B
:10290000D81C00204C000020F023002070477047A6
:1029100008B5FFF7FCFF0121042003F013FC0120A0
:10292000ADF8000010208DF8030003208DF80200A0
:102930006946FA4803F04AF90121F84803F0F3F92F
:102940001020ADF800008DF8030003208DF8020080
:102950006946F24803F03AF91021F04803F0E3F930
:102960002020ADF8000010208DF8030003208DF822
:1029700002006946E94803F029F92021E74803F0FD
:10298000D2F94020ADF8000048208DF80300032064
:102990008DF802006946E14803F018F98020ADF88F
:1029A000000010208DF8030003208DF80200694616
:1029B000DA4803F00BF98021D84803F0B4F908BDD8
:1029C000704770B5044600251BE02021D34803F072
:1029D000ACF904F0800020B98021D04803F0A5F9BB
:1029E00003E08021CD4803F09EF9FFF7E9FF2021A5
:1029F000CA4803F098F9FFF7E3FF6006040E681C6D
:102A0000C5B2082DE1DB2021C44803F08EF98021F6
:102A1000C24803F08AF970BD2DE9F04104460D4625
:102A200000267F2000EA440705F0B6FF0646102185
:102A3000BA4803F07AF93846FFF7C3FF2846FFF794
:102A4000C0FF1021B54803F06EF9304605F0A8FF2D
:102A5000BDE8F08170B50024002516E06006040E84
:102A6000FFF7AEFF2021AD4803F05DF94021AB48F0
:102A700003F03FF908B1601CC4B2FFF7A1FF2021A9
:102A8000A64803F052F9681CC5B2082DE6DB2046C3
:102A900070BD2DE9F04104460025802040EA440045
:102AA000C7B205F079FF054610219C4803F03DF9B7
:102AB0003846FFF786FFFFF7CDFF06460020FFF7F9
:102AC00080FF1021954803F02EF9284605F068FF95
:102AD0003046BDE8F08170B505460C460026284614
:102AE000FFF7D7FF46B246EA0400C1B22846FFF717
:102AF00093FF70BD70B505460C4600262846FFF7CB
:102B0000C8FF46B226EA0400C1B22846FFF784FF98
:102B100070BD10B501218248FFF7DDFF10BD2DE922
:102B2000F041002700240026002500BF4FF4FA7072
:102B3000FFF716FB0121794803F0F5F86420FFF751
:102B40000FFB05F029FF07460121744803F0EDF85B
:102B50000A20FFF7F7FA0AE06D1C7248854206D991
:102B6000384605F01DFF6FF07C00BDE8F0816C4831
:102B70000838FFF78EFF00F03F003F28ECD100251A
:102B800009E06D1C6748854205D9384605F008FF05
:102B90006FF07C00E9E762480838FFF77AFF00F041
:102BA0003F000028EDD176B900214FF00040FFF73B
:102BB00033FF5B480838FFF76CFF10B16FF0190660
:102BC00003E0002601E06FF01806002E7BD1002103
:102BD00053481630FFF720FF402151481630FFF7C9
:102BE0001BFF0A20FFF7AEFA40214D481630FFF7D1
:102BF00081FF0E214A481430FFF70EFF4A484B4A26
:102C0000127810F8221046480B30FFF705FF4648AF
:102C1000464A127800EB8200817841480C30FFF779
:102C2000FBFE4348434A127810F832103C481030FB
:102C3000FFF7F2FE3E483F4A127800EBC20081786F
:102C400037481130FFF7E8FE39483A4A127800EB6E
:102C5000C200017932481330FFF7DEFE3448354AAE
:102C6000127800EBC20081792D481430FFF7D4FEB2
:102C7000AD212B481230FFF7CFFE01212848153037
:102C8000FFF7CAFE1A2126482030FFF7C5FE0221B1
:102C900023482230FFF7C0FE032121482430FFF7EC
:102CA000BBFE3F211E480930FFF7B6FE03211C483A
:102CB0000830FFF71FFF0120FFF752FA03211848E1
:102CC0000830FFF708FF384605F06AFE1448123056
:102CD000FFF7DFFE0446AD2C00D027E71048133085
:102CE000FFF7D7FE0446FE2C00D01FE70C48153036
:102CF000FFF7CFFE0446012C00D017E7084810303C
:102D0000FFF7C7FE0446732C00D00FE704482030BD
:102D1000FFF7BFFE04461A2C0ED007E7000801405B
:102D200009000080A086010044A70008610000207F
:102D300024A7000860000020FA48FFF7AAFE044616
:102D4000022C00D0F2E6F748801CFFF7A2FE0446F2
:102D5000032C00D0EAE6F3481938FFF79AFE044640
:102D60003F2C00D0E2E6EF481638FFF792FE04460B
:102D7000ED48EE49097800EB81004088A04200D080
:102D8000D4E63046F1E610B50024FFF7C8FEC4B221
:102D90000CB1FF2010BD0020FCE72DE9F84F0746DD
:102DA0008A46934600200090804600260024FFF7C4
:102DB000AEFD3F21DB482538FFF72EFE3F21D948E5
:102DC0002438FFF729FE0021D6482A38FFF724FED1
:102DD000FFF79FFE0020D6498871122F29D00DDC05
:102DE000072F21D005DCB7B1012F17D0032F42D117
:102DF00017E00B2F19D00C2F3DD117E0192F29D038
:102E000004DC142F18D0162F35D118E01A2F24D037
:102E10001E2F30D124E0002600242FE0112610249C
:102E20002CE00726042429E000BF00BF0526042467
:102E300024E01126102421E0042604241EE0B948D1
:102E40001C38FFF726FE00114042B949487106269A
:102E5000042413E00526042410E0052604240DE0D4
:102E6000B0481C38FFF715FE00114042B0494871C8
:102E70003D26042402E06FF0160800BF00BFB8F141
:102E8000000F7CD146F0200644F0200446F080017B
:102E9000A4482538FFF7C0FD3946A2482A38FFF775
:102EA000BBFD05F079FD0090B2E09E482538FFF7A4
:102EB000F0FD06469B482438FFF7EBFD00EA0605C7
:102EC0009B48807928439A49887105F00100E0B356
:102ED000002194482A38FFF79FFD92482738FFF7D2
:102EE000D8FDC0F1400000F0FF099148C07890493A
:102EF0008978401A48450BDC8D48C0788C49897820
:102F0000401A00F0FF09012186482538FFF784FDAB
:102F100000260EE0864880781AF80010814829388B
:102F2000FFF77AFD82488078401C81498870701CC8
:102F3000C6B24E45EEDB39467A482A38FFF76CFDBB
:102F4000012178482438FFF767FD05F01000C8B16B
:102F5000102174482438FFF75FFD8221714825381D
:102F6000FFF75AFD7248007893280BD102216D4873
:102F70000938FFF751FD00214FF0004000E0B6E0B6
:102F8000FFF74AFD05F00E00E8B166482738FFF765
:102F900080FD814600260EE062482938FFF779FD62
:102FA000634909790BF8010061480079401C6049C8
:102FB0000871701CC6B24E45EEDB05F00A01594897
:102FC0002438FFF729FD05F00400B0B12021554851
:102FD0002538FFF721FD202152482438FFF71CFD3A
:102FE00025F020055248807920F020005049887152
:102FF00004214C482438FFF70FFD05F0200038B1BC
:10300000202148482438FFF707FD4FF0FF3805E03E
:1030100047488079204000283FF447AF00BF009820
:1030200005F0BEFC0120FFF79BF83F213D48253805
:10303000FFF7F2FC3F213B482438FFF7EDFC042169
:1030400038482238FFF747FD002136482A38FFF775
:10305000E3FC37488079204008B96FF01A08B8F1CE
:10306000000F4DD12F482138FFF713FD00F0170452
:103070004CB304F0010040B12A482038FFF709FDA5
:103080002B49C8716FF0170807E000202849C87164
:1030900004F0020008B16FF0040804F0040008B165
:1030A0006FF0140804F0100018B1FFF732FD6FF054
:1030B000120804F0080008B16FF00108B8F1000F21
:1030C00001D16FF063081E2F01D0162F1BD11548B8
:1030D0002638FFF7DEFC00F007044CB114484179B4
:1030E0000079401E04EBC0000844114948710AE011
:1030F0000F484179007901EBC0000D49487102E0A9
:1031000000200B49C8714046BDE8F88F00200849EF
:10311000087048708870C870087148718871C871EB
:10312000704700002B00008044A7000861000020C9
:103130005000002010B50446112C6ED2DFE804F0D8
:10314000AA09131D27313B454F59636E78828C962F
:10315000A0000721FE48FFF75FFC6A21FC48801CA5
:10316000FFF75AFCA0E00721F948FFF755FCA02122
:10317000F748801CFFF750FC96E00921F448FFF760
:103180004BFCA021F248801CFFF746FC8CE0092193
:10319000EF48FFF741FCFF21ED48801CFFF73CFCA6
:1031A00082E00D21EA48FFF737FCA021E848801CA7
:1031B000FFF732FC78E00B21E548FFF72DFCA0215A
:1031C000E348801CFFF728FC6EE00E21E048FFF783
:1031D00023FCA021DE48801CFFF71EFC64E00D21CB
:1031E000DB48FFF719FC8121D948801CFFF714FC4C
:1031F0005AE00F21D648FFF70FFC4121D448801C2C
:10320000FFF70AFC50E00F21D148FFF705FC8121B0
:10321000CF48801CFFF700FC46E03BE01321CC4880
:10322000FFF7FAFB1121CA48801CFFF7F5FB3BE0D2
:103230001321C748FFF7F0FB2121C548801CFFF789
:10324000EBFB31E01321C248FFF7E6FB4121C04808
:10325000801CFFF7E1FB27E01321BD48FFF7DCFBF3
:103260008121BB48801CFFF7D7FB1DE00921B8482E
:10327000FFF7D2FBFF21B648801CFFF7CDFB13E020
:103280001521B348FFF7C8FBFF21B148801CFFF7A9
:10329000C3FB09E00721AE48FFF7BEFB2146AC485F
:1032A000801CFFF7B9FB00BF00BF10BD70B505461D
:1032B0000C4600260DB9262500E052250220FFF716
:1032C00039FF0321A2480838FFF7A6FB0821A048D0
:1032D0002138FFF70FFC07219D481B38FFF79CFBA7
:1032E000FFF714FF9B480068057001209A49C870D9
:1032F0009A480268974801681E20FFF74EFD06466F
:1033000016B1002020700DE093484079102804D0B9
:10331000002020706FF00A0604E000268F48006845
:1033200000782070304670BD2DE9F04F85B08246A0
:103330000C4616464FF00009C846002700200490AE
:10334000002503900120FFF7F5FE28218048103862
:10335000FFF762FB08217E482138FFF7CBFB0020F6
:103360000490E3E0FFF7D2FE032179480838FFF725
:1033700053FB2046E11704EB5171C910A4EBC101C6
:10338000CFB2CFB147EA0710C1B271481B38FFF77F
:1033900043FB2046E11704EB5171C910491C01F0B1
:1033A000FF08072F0ED193206B49087039466848F3
:1033B0001B38FFF731FB05E02046E11704EB5171A4
:1033C000C1F3C7086348006880F800A02046E117F1
:1033D00004EB5171C910202202EB011139445D4AFE
:1033E00012685170002506E0715D5A480268A81CF9
:1033F0001154681CC5B24545F6DB08F10200564978
:10340000C87056480268534801681E20FFF7C5FC83
:103410008146072F33D100200090002514E04F484B
:10342000006810F805B04D480068405DC5F107011F
:1034300088406A1C00991141084348490968485569
:10344000CDF800B0681CC5B243480079A842E6DC5C
:103450004148407940490979401A3F494871084636
:10346000C07960B10846C079801D092190FBF1F058
:10347000C0F107003849C97908443749C871B9F122
:10348000000F03D009F1180000284FD132484079CD
:10349000C4F12801884202D06FF00A0946E00020FA
:1034A00003905FB1A8F10100305C2C4909680978EC
:1034B0000843A8F1010170540120039000250DE09C
:1034C000B8F1040F00DD0DE0039828442349096892
:1034D000085C08EB05017054681CC5B2C8F1040013
:1034E000A842EDDC00BF09F11800C0B13078717856
:1034F0004840B1784840F178484002901648007939
:10350000401E16490968095C0191DDE901108842F5
:1035100002D06FF0070909E00120049006E00E4890
:10352000C0792044C01BC4B24FF00009049818B9F8
:10353000B9F1000F3FF416AFB9F1000F02D008A0A7
:1035400000683060202102481038FFF7D3FA0BE002
:103550002A00008058000020500000205C0000205D
:103560003030303000000000484605B0BDE8F08F34
:103570002DE9F04105460E4614460120FFF7DAFD1D
:103580000F21FE48FFF748FA0821FC481938FFF7D9
:10359000B1FA0027FFF7BAFDF948006805707020FE
:1035A000F74909684870F64800683168C0F80210A9
:1035B000F34800688078F2490968C9784840F049C2
:1035C000096809794840EE49096849794840EC4959
:1035D000096888710720EB49C870EB480268E84821
:1035E00001681E20FFF7D9FB07460020207057B95D
:1035F000E4484079082802D06FF00A0703E0E24867
:103600000068007820703846BDE8F0812DE9F0416F
:1036100005464FF000080120FFF78CFDFFF779FA0F
:10362000FFF774FD002416E0285D00F00F06285D0A
:103630000711F04346EA0010012101EB4401D04A92
:1036400012685054F84347EA0010CD49096801F860
:103650001400601CC4B2062CE6DB0C20C949C870FB
:10366000C9480268C64801681920FFF796FB8046E2
:103670004046BDE8F0812DE9F04105460E4617466B
:103680000024BE481838FFF704FA00F0400444B1A3
:1036900004F0400010B16FF0080440E06FF0030444
:1036A0003DE00720FFF746FDB54800680570B448C7
:1036B00000684770B24800683168C0F80210FFF730
:1036C00025FD0620AF49C870AF480268AC480168C4
:1036D0000C20FFF762FB040021D1A8481D38FFF73A
:1036E000D8F900F0070010B16FF00A0417E0FFF7F7
:1036F0000DFD0020A349C870A3480268A0480168D6
:103700001420FFF74AFB040009D19C481938FFF741
:10371000C0F900F0080000B101E06FF0030420469A
:10372000BDE8F08170B505460E460024FFF7F1F9BB
:103730000320FFF7FFFC0F219048FFF76DF9FFF71B
:10374000E5FC30208E49096808708D480068457096
:1037500002208C49C8708C480268894801681E2084
:10376000FFF71BFB0446F4B1601CB0B185484079FB
:10377000042812D184480068007800F00F008249C4
:103780000968087080480068007800F00A0010B9E5
:103790006FF0090401E06FF0050410227BA13046B0
:1037A00005F041FC11E077480079102807D06FF050
:1037B0000B04102275A1304605F035FC05E01022FF
:1037C00071480168304605F02EFC0120FFF7B2FC7D
:1037D000204670BD70B505460E4600240420FFF754
:1037E000A9FC0F216548FFF717F9FFF78FFCA02010
:1037F00063490968087062480068457002206149A1
:10380000C870614802685E4801681E20FFF7C5FA6B
:103810000446601CF0B15B484079042802D06FF088
:103820000A0417E058480068007800F00F00564975
:103830000968087054480068007810B10A2805D15A
:1038400002E06FF0090404E0002402E06FF00504D8
:1038500000BF00BF002C39D10320FFF76BFCFFF73E
:1038600055FC102231464648006805F0DCFB10206C
:103870004449C87044480268414801681E20FFF767
:103880008CFA0446601CF0B13E484079042802D00E
:103890006FF00A0417E03C480068007800F00F0061
:1038A00039490968087038480068007810B10A285A
:1038B00005D102E06FF00E0404E0002402E06FF096
:1038C000050400BF00BF0120FFF734FC204670BD97
:1038D0002DE9F04105460E46174698460024012082
:1038E000FFF728FCFFF712FC254800680570244804
:1038F0000068467002202349C870234802682048A7
:1039000001681E20FFF749FA0446601C18B31D48E1
:103910004079042802D06FF00A041CE01A480068BD
:10392000007800F00F001849096808701648006810
:10393000007820B1012807D00A2808D102E06FF0F2
:10394000090407E0002405E06FF07B0402E06FF05B
:10395000050400BF00BF6CBB0420FFF7EBFBFFF7C3
:10396000D5FB074800683968016004200549C87024
:1039700005480268024801681E2011E0220000800C
:1039800058000020500000205C0000203030303013
:1039900030303030303030303030303000000000E7
:1039A000FFF7FBF90446FCB9F6484079042802D039
:1039B0006FF00A041BE0F4480068007800F00F0084
:1039C000F14909680870F0480068007810B10128D2
:1039D00006D102E06FF0090405E06FF07B0402E01D
:1039E0006FF0050400BF02E0601C00B9002474BB46
:1039F000FFF78CFBB020E54909680870E3480068D0
:103A000080F801800220DF49C870DF480268DF4883
:103A100001681E20FFF7C1F90446601CB8B1D948FF
:103A20004079042802D06FF00A041DE0D6480068EF
:103A3000007800F00F00D44909680870D248006887
:103A4000007828B1012808D00A2809D103E00BE04A
:103A50006FF0090407E0002405E06FF07B0402E04A
:103A60006FF0050400BF00BF2046BDE8F08110B52F
:103A70006FF005040120FFF75DFBFFF747FB5020C7
:103A8000C249096808700020C049096848700220CE
:103A9000BC49C870BC480268BC4801681E20FFF7DA
:103AA0007CF9044624B1601C08B11A3000B9002426
:103AB0000021B748FEF7B0FF204610BD2DE9F047C2
:103AC00080460D4616461C46DDE9089A0027B9F1E6
:103AD000000F07D00F21AE482130FEF79DFFA81E32
:103AE000C5B204E00321AA482130FEF795FF0AF091
:103AF000FF00FFF71FFBFFF70CF8FFF707FB002D98
:103B00000CDDA048C570324641461E20FFF745F93E
:103B100007462FB99B480079207001E06FF03B0702
:103B20006FB9B9F1000F0CD02078801C20700021F3
:103B30002078801E31542078401E315401E000204E
:103B40002070F8B2BDE8F0872DE9F04FA1B08046B3
:103B5000894615461E464FF0000AD34600202090A5
:103B600005901220049000BF0027002003900D2034
:103B700099FBF0F000F0FF0B0D2099FBF0F100FB3A
:103B80001190C0B2209000BF57E08248007818B969
:103B900001208049087002E000207E4908707D49BC
:103BA0000978049808438DF84C000AEB8A0000EB72
:103BB000CA0000EB08010D220DF14D0005F033FAAB
:103BC0000C20012105AB06AACDE90010102113A895
:103BD000FFF774FF04461CB99DF8140003281DDA92
:103BE0000320FEF7BDFA6B48007840F0B2008DF874
:103BF0004C000C20012105AB06AACDE900100321E1
:103C000013A8FFF75BFF04461CB99DF814000328B6
:103C100004DA4CF2020021B0BDE8F08F9DF81800E4
:103C20005C49097841F0A201884202D04CF20200BE
:103C3000F1E70AF1010000F0FF0ADA45A5DB55487B
:103C4000007818B901205349087002E0002051495A
:103C500008705048007840F002008DF84C000BEBE3
:103C60008B0000EBCB0000EB08010DF14D00209A1A
:103C700005F0D9F90C200121CDE900102098C01CD5
:103C8000C1B205AB06AA13A8FFF718FF04461CB97A
:103C90009DF8140003281BDA0320FEF761FA3D4863
:103CA000007840F0B2008DF84C000C20012105ABEB
:103CB00006AACDE90010032113A8FFF7FFFE044672
:103CC0001CB99DF81400032802DA4CF20200A2E7A6
:103CD00000BF9DF8180000F0120012282FD107EB4A
:103CE000870101EBC70148190D220DF1190105F0FB
:103CF0009AF92848007818B901202649087002E08E
:103D00000020244908702348007840F0A2008DF874
:103D10004C000520012105AB06AACDE900100321C6
:103D200013A8FFF7CBFE04461CB99DF81400032826
:103D300002DA4CF202006EE7781CC7B2C9E79DF8C0
:103D40001410CA1E07EB870101EBC70148190DF1DA
:103D5000190105F068F907EB870000EBC7009DF833
:103D600014100844C01E30703078801E285C039008
:103D70003078401E295C039801EB002080B203904C
:103D8000039848E7500000205C0000205800002005
:103D900001000080620000202DE9F04105460E463A
:103DA0001746FEF7B4FD3046FFF730FC044614B169
:103DB0002046BDE8F081A806020E39466020FFF7D4
:103DC0005AFC04460CB12046F3E70020F1E710B599
:103DD0001021F848FEF77FFE10BD10B50024102119
:103DE000F448FEF787FE0A20FEF7C7F9F148FEF710
:103DF00050FE0446082C10D07CB11021ED48FEF78F
:103E000079FE0A20FEF7B9F9EA48FEF742FE0446B9
:103E1000082C02D00CB1FEF782FE10BD70B505462D
:103E20000024FEF774FD00BF04E02046FEF731FEDB
:103E30002855641C402CF8D370BD2DE9F04780460E
:103E40000D4616461C46DDE9089A0027B9F1000F19
:103E500007D00F21D7481930FEF7DEFDA81EC5B2E6
:103E600004E00321D3481930FEF7D6FD0AF0FF0025
:103E7000FFF760F9FEF74DFEFFF748F9002D0CDD66
:103E8000CD48C570324641461E20FEF786FF0746E4
:103E90002FB9C9480079207001E06FF03B0767B97E
:103EA000B9F1000F09D02078801C20700021207803
:103EB000801E31542078401E3154F8B2BDE8F0879E
:103EC0002DE9F04FA5B08046894615461E464FF0B5
:103ED000000A00202490239008901220079000BF31
:103EE0000027002006908346B44A07CA03AB07C3E5
:103EF0000D2099FBF0F0C0B224900D2099FBF0F159
:103F000000FB1190C0B2239000BF57E0AC4800788E
:103F100018B90120AA49087002E00020A8490870D9
:103F2000A7490978079808438DF858000AEB8A00DA
:103F300000EBCA0000EB08010D220DF1590005F05D
:103F400072F80C20012108AB09AACDE9001010215C
:103F500016A8FFF772FF04461CB99DF8200003283D
:103F60001DDA0320FEF7FCF89548007840F0B20017
:103F70008DF858000C20012108AB09AACDE90010EA
:103F8000032116A8FFF759FF04461CB99DF820002D
:103F9000032804DA4CF2020025B0BDE8F08F9DF84A
:103FA00024008749097841F0A201884202D04CF2EE
:103FB0000200F1E70AF1010000F0FF0A24988245AF
:103FC000A4DB7F48007818B901207D49087002E021
:103FD00000207B4908707A48007840F002008DF894
:103FE0005800249800EB800202EBC00000EB0801AF
:103FF0000DF15900239A05F016F80C200121CDE9A6
:1040000000102398C01CC1B208AB09AA16A8FFF77C
:1040100014FF04461CB99DF82000032821DA4FF054
:10402000000B14E00C20012108AB09AACDE9001017
:10403000032103A8FFF701FF04461CB19DF82000EF
:10404000032800DD06E00BF1010000F0FF0BBBF1DF
:104050000A0FE7DB00BFBBF10A0F02DB4CF20200E4
:104060009AE700BF9DF8240000F0120012282FD11B
:1040700007EB870101EBC70148190D220DF125015E
:1040800004F0D1FF4E48007818B901204C4908705F
:1040900002E000204A4908704948007840F0A20038
:1040A0008DF858000C20012108AB09AACDE90010B9
:1040B000032116A8FFF7C1FE04461CB99DF8200095
:1040C000032802DA4CF2020066E7781CC7B2C9E79F
:1040D0009DF82010CA1E07EB870101EBC7014819A4
:1040E0000DF1250104F09FFF07EB870000EBC700EF
:1040F0009DF820100844C01E30703078801E285C67
:1041000006903078401E295C069801EB002080B2B2
:104110000690069840E770B5A2B0002007900024F2
:10412000002600252648007818B901202449087087
:1041300002E00020224908702148007840F0020087
:104140008DF854001FA00168CDF8551000798DF846
:1041500059000C20012107AB08AACDE90010082165
:1041600015A8FFF76AFE9DF8200000F0F000F02887
:1041700039D19DF81C2008A902A804F099FF9DF8E8
:104180001C60002424E00C20012107AB08AACDE923
:104190000010314602A8FFF750FE9DF81C00001FDA
:1041A00008A9085C902811D19DF81C00C01E085C6D
:1041B00060B910E0090000805000002054A70008FA
:1041C00062000020800E000000000000601C84B22D
:1041D000B4F57A7FD7DB00BFB4F57A7F03DB4CF20E
:1041E000020022B070BD9DF81C00001F08A90D5CE4
:1041F0009DF81C00C01E085C00EB052085B2284617
:10420000EFE700002DE9F04704460E4617469846B2
:104210004FF00009ECB11C2E1BD3254604F0BCFB6B
:104220008146A6F11800E881E9892C4605F11800BD
:104230000844A86005F11800286068600020A88183
:104240002F61C5F81480484604F0AAFB0120BDE8A0
:10425000F087FF20FBE72DE9F04106460D460027D9
:104260004FF0FF082DB32C4604F096FB0746A089BB
:10427000002812DD2068007830702068401C206023
:10428000A1682068884202D304F118002060A08948
:10429000401EA0814FF0010808E04FF0040820699B
:1042A00020B121463046226990478046384604F0C6
:1042B00077FB4046BDE8F0812DE9F04105460E460A
:1042C00000274FF0FF0835B32C4604F065FB074686
:1042D000A089E189884211DA606806706068401C34
:1042E0006060D4E90101884202D304F118006060E3
:1042F000A089401CA0814FF0010809E04FF0080898
:10430000606928B10122314620466369984780469A
:10431000384604F045FB4046BDE8F08170B50446E0
:104320000025002634B104F037FB0546A68928464F
:1043300004F036FB304670BD70B5044600250026FB
:1043400034B104F029FB0546E689284604F028FB31
:10435000304670BD70B5044600266CB1254604F0A9
:104360001BFB06462C4605F11800286068600020FB
:10437000A881304604F014FB70BD034600BF002046
:10438000704700B587B0AFF20D0300224FF4806193
:10439000FA48FFF737FFAFF21D0300224FF48061A8
:1043A000F748FFF72FFF012144F2040001F0CAFE95
:1043B000F44801F02BFF4FF40070ADF81800032013
:1043C0008DF81A0018208DF81B0006A9EE4801F0A0
:1043D000FDFB4FF48060ADF8180003208DF81A0043
:1043E00004208DF81B0006A9E74801F0EFFB4FF40D
:1043F000E13002900020ADF80C00ADF80E00ADF8F1
:104400001000ADF814000C20ADF8120002A9DD4830
:1044100001F03FFF25208DF8040003208DF80500F2
:1044200002208DF8060001208DF8070001A801F098
:1044300004FB012240F22551D24801F0C2FF0121C4
:10444000D04801F0B2FF07B000BD2DE9FF4107469B
:104450000D4616461C46FEF75AFA0097082D03D162
:104460000020ADF8040003E04FF48050ADF80400E4
:10447000012E03D10020ADF8060003E04FF40050F8
:10448000ADF806001CB90020ADF808000AE0012CC8
:1044900004D14FF4C060ADF8080003E04FF4806031
:1044A000ADF808000020ADF80C000C20ADF80A00B3
:1044B0006946B44801F0EDFEBDE8FF8110B5FEF796
:1044C00026FAAF48FFF746FF10BD10B50446FEF7C9
:1044D0001EFA2146AB4801F0D5FF00BF4021A94894
:1044E00002F03EF80128F9D110BD70B505460E4620
:1044F0000024FEF70CFA002240F22551A14801F0F9
:1045000060FF00BF04E0285DFFF7DFFF601C84B29E
:10451000B442F8DB012240F225519A4801F051FFE4
:1045200070BD38B500240020009040F22551954818
:1045300002F02CF838B1934801F0A8FFC4B221462C
:104540008F48FFF7B9FE40F227718E4802F01EF83F
:10455000B0B18A496846FFF77EFE012805D19DF873
:104560000010884801F08EFF0AE040F2277185486C
:1045700002F036F8002240F22771824801F021FF54
:1045800038BD70B505460E460024FEF7C0F900BFE1
:1045900004E0285DFFF799FF601C84B2B442F8DBA9
:1045A00070BD2DE9F84305460F4690469946002018
:1045B000009000240026FEF7AAF900BF7049684663
:1045C000FFF749FE012806D19DF800202046611C16
:1045D0008CB22A541EE0FEF79AF9B8F1000F06D10A
:1045E000052300221146104604F030F9E6E7761C58
:1045F0000520B8FBF0F0B04205D2002028553C80E1
:10460000FF20BDE8F883052300221146104604F080
:104610001DF9D3E700BF002600BF59496846FFF7E0
:104620001AFE012807D19DF800202046611C8CB29B
:104630002A540026F1E7FEF76AF9761C052099FB5B
:10464000F0F0B04203D2002028553C80D9E7052382
:1046500000221146104604F0F9F8DEE7034600BFD9
:104660000020704700B587B0AFF20F030022802111
:104670004648FFF7C7FDAFF21B03002280214448E4
:10468000FFF7C0FD0121042001F05CFD0121480479
:1046900001F065FD3F4801F0B9FD0420ADF81800B8
:1046A00003208DF81A0018208DF81B0006A9364843
:1046B00001F08CFA0820ADF8180003208DF81A00DC
:1046C00004208DF81B0006A92F4801F07FFA4FF453
:1046D000164002900020ADF80C00ADF80E00ADF8C9
:1046E0001000ADF814000C20ADF8120002A9294802
:1046F00001F0CFFD26208DF8040003208DF8050081
:104700008DF8060001208DF8070001A801F095F949
:10471000012240F225511F4801F053FE01211D489E
:1047200001F043FE07B000BD2DE9FF4107460D46ED
:1047300016461C46FEF7EBF80097082D03D1002023
:10474000ADF8040003E04FF48050ADF80400012EF2
:1047500003D10020ADF8060003E04FF40050ADF89F
:1047600006001CB90020ADF8080019E0012C13D197
:104770004FF4C060ADF8080012E0000048260020A9
:10478000C82A00200038014000080140482A0020C3
:10479000C82E0020004400404FF48060ADF80800AF
:1047A0000020ADF80C000C20ADF80A006946F8486E
:1047B00001F06FFDBDE8FF8110B5FEF7A8F8F548E0
:1047C000FFF7C8FD10BD10B50446FEF7A0F821465E
:1047D000F148FFF771FD012240F22771EC4801F02A
:1047E000F0FD10BD70B505460E460024FEF78FF8AB
:1047F00000BF04E0285DFFF7E6FF601C84B2B4420E
:10480000F8DB70BD38B500240020009040F225513F
:10481000DF4801F0BBFE38B1DD4801F037FEC4B21D
:104820002146DC48FFF748FD40F22771D84801F0E7
:10483000ADFEB0B1D8496846FFF70DFD012805D19E
:104840009DF80010D24801F01DFE0AE040F22771E9
:10485000CF4801F0C5FE002240F22771CC4801F09C
:10486000B0FD38BD70B505460E460024FEF74FF882
:1048700000BF04E0285DFFF7A6FF601C84B2B442CD
:10488000F8DB70BD2DE9F84305460F469046994682
:104890000020009000240026FEF739F800BFBD4933
:1048A0006846FFF7D8FC012806D19DF80020204675
:1048B000611C8CB22A541CE0B8F1000F06D105230C
:1048C00000221146104603F0C1FFE8E7761C0520E0
:1048D000B8FBF0F0B04205D2002028553C80FF2004
:1048E000BDE8F883052300221146104603F0AEFF11
:1048F000D5E700BF002600BFA6496846FFF7ABFC1E
:10490000012807D19DF800202046611C8CB22A5452
:104910000026F1E7761C052099FBF0F0B04203D2A7
:10492000002028553C80DBE7052300221146104675
:1049300003F08CFFE0E7034600BF0020704700B59E
:1049400087B0AFF20D03002204219448FFF75AFC10
:10495000AFF21D03002204219148FFF753FC01210F
:10496000082001F0EFFB0121880401F0F8FB8D48DD
:1049700001F04CFC4FF48060ADF8180003208DF876
:104980001A0018208DF81B0006A9874801F01EF9AF
:104990004FF40060ADF8180003208DF81A000420D1
:1049A0008DF81B0006A9804801F010F94FF416504D
:1049B00002900020ADF80C00ADF80E00ADF810002C
:1049C000ADF814000C20ADF8120002A9754801F0F2
:1049D00060FC27208DF8040003208DF805000020DE
:1049E0008DF8060001208DF8070001A801F025F8D8
:1049F000012240F225516B4801F0E3FC0121694896
:104A000001F0D3FC07B000BD2DE9FF4107460D467C
:104A100016461C46FDF77BFF0097082D03D10020AA
:104A2000ADF8040003E04FF48050ADF80400012E0F
:104A300003D10020ADF8060003E04FF40050ADF8BC
:104A400006001CB90020ADF808000AE0012C04D1D2
:104A50004FF4C060ADF8080003E04FF48060ADF89B
:104A600008000020ADF80C000C20ADF80A006946E3
:104A70004C4801F00EFCBDE8FF8110B5FDF747FF83
:104A80004748FFF767FC10BD10B50446214645486E
:104A900001F0F8FC00BF4021424801F061FD01280F
:104AA000F9D110BD70B505460E460024FDF72FFF65
:104AB000002240F225513B4801F083FC00BF04E096
:104AC000285DFFF7E1FF601C84B2B442F8DB0122ED
:104AD00040F22551334801F074FC70BD38B5002414
:104AE0000020009040F225512E4801F04FFD38B1D2
:104AF0002C4801F0CBFCC4B221462948FFF7DCFB6F
:104B000040F22771274801F041FDB0B123496846C2
:104B1000FFF7A1FB012805D19DF80010214801F005
:104B2000B1FC0AE040F227711E4801F059FD002255
:104B300040F227711B4801F044FC38BD70B50546B2
:104B40000E460024FDF7E3FE00BF04E0285DFFF7FA
:104B50009BFF601C84B2B442F8DB70BD2DE9F843C2
:104B600005460F46904699460020009000240026F6
:104B7000FDF7CDFE00BF0A496846FFF76CFB012830
:104B800014D19DF800202046611C8CB22A542AE0E2
:104B900000440040C82E0020482A00206400002065
:104BA0006800002000480040000C0140B8F1000FF0
:104BB00006D1052300221146104603F047FEDAE72E
:104BC000761C0520B8FBF0F0B04205D20020285535
:104BD0003C80FF20BDE8F8830523002211461046E3
:104BE00003F034FEC7E700BF002600BF0F49684648
:104BF000FFF731FB012807D19DF800202046611CFA
:104C00008CB22A540026F1E7761C052099FBF0F0BF
:104C1000B04203D2002028553C80DBE70523002268
:104C20001146104603F012FEE0E700006800002085
:104C300008B50121082001F085FA8020ADF80000B8
:104C400014208DF8030003208DF802006946FD480A
:104C500000F0BCFF8021FB4801F065F84020ADF872
:104C6000000014208DF8030003208DF8020069462F
:104C7000F44800F0ABFF4021F24801F054F8012065
:104C800003F01FF8F049086008BD10B50520FDF7D6
:104C900095FA10BD38B500248020ADF800004820FA
:104CA0008DF8030003208DF802006946E54800F006
:104CB0008DFFFFF7EAFF8021E24801F01AF800B902
:104CC00000E001248020ADF8000014208DF80300DE
:104CD00003208DF802006946DA4800F077FFFFF7FD
:104CE000D4FF204638BD38B500244020ADF8000080
:104CF00048208DF8030003208DF802006946D14852
:104D000000F064FFFFF7C1FF4021CE4800F0F1FF43
:104D100000B900E001244020ADF8000014208DF817
:104D2000030003208DF802006946C64800F04EFFDC
:104D3000FFF7ABFF204638BD10B50520FDF73EFA62
:104D400010BD10B5FDF7E3FDFFF7F6FF8021BD486C
:104D500000F0E9FFFFF7F0FF4021BA4800F0E3FF61
:104D6000FFF7EAFFFFF796FF08B9FF2010BDFFF736
:104D7000BAFF08B9FF20F9E78021B24800F0D5FF5B
:104D8000FFF7DAFF4021AF4800F0CFFFFFF7D4FF75
:104D90000020EBE710B5FDF7BAFDFFF7CDFF80214E
:104DA000A84800F0C0FFFFF7C7FF4021A54800F06A
:104DB000BAFFFFF7C1FF8021A24800F0B6FFFFF75E
:104DC000BBFF40219F4800F0B0FFFFF7B5FF002078
:104DD00010BD10B5FDF79BFD80219A4800F0A5FF9E
:104DE000FFF7AAFF4021974800F09DFFFFF7A4FFBF
:104DF0008021944800F097FFFFF79EFF0520FDF704
:104E0000AFF910BD10B5FDF782FDFFF795FF8021CA
:104E10008C4800F08AFFFFF78FFF4021894800F09F
:104E200082FFFFF789FF4021864800F07EFFFFF7F1
:104E300083FF10BD10B5FDF76AFDFFF77DFF8021F0
:104E4000804800F070FFFFF777FF40217D4800F0B9
:104E50006AFFFFF771FF40217A4800F066FFFFF715
:104E60006BFF10BD10B5FDF752FDFFF765FF402148
:104E7000744800F058FFFFF75FFFFFF70BFF044691
:104E80004021704800F051FFFFF756FF0CB9002099
:104E900010BDFF20FCE770B50546FDF738FD002486
:104EA0001DE005FA04F000F0800020B18021654883
:104EB00000F039FF03E08021624800F036FFFFF781
:104EC0003BFF40215F4800F02EFFFFF735FF4021F8
:104ED0005C4800F02AFFFFF72FFF601CC4B2082CCB
:104EE000DFDB8021574800F01EFFFFF725FF402140
:104EF000544800F018FFFFF71FFFFFF7CBFE0646F0
:104F00004021504800F011FFFFF716FF304670BDFA
:104F100070B50024FDF7FBFC80214A4800F003FF38
:104F2000002515E04021474800F0FDFEFFF704FF93
:104F30006006040EFFF7AEFE012801D1601CC4B26A
:104F40004021404800F0F1FEFFF7F6FE681CC5B2B4
:104F5000082DE7DB204670BD2DE9F84380460F465B
:104F6000164699460024002500200090FDF7CFFC4E
:104F70006A4600213448006802F029FFFFF7E1FE8D
:104F80000446C4B1142513E0FFF723FFFFF7D9FE51
:104F9000044614B1681E85B200E00BE045B9FFF786
:104FA00018FF2948006802F0C1FFFF20BDE8F88320
:104FB000002DE9D100BF4046FFF76DFF04463CB12C
:104FC000FFF707FF2048006802F0B0FFFF20EDE781
:104FD0003846FFF760FF04463CB1FFF7FAFE1A4877
:104FE000006802F0A3FFFF20E0E7FFF7AAFE08F148
:104FF0000101C8B2FFF74FFF04463CB1FFF7E9FEDD
:105000001148006802F092FFFF20CFE7002507E07B
:10501000FFF77EFF3070FFF7F5FE761C681C85B247
:10502000A9F10100A842F3DCFFF772FF3070FFF72F
:1050300001FFFFF7CEFE0448006802F077FF002072
:10504000B4E70000000C01407400002010B50446D5
:10505000FDF75DFC2CB94FF48051134800F065FE5C
:1050600005E0012C03D121030F4800F05CFE10BDC8
:1050700008B50121042001F065F84FF48050ADF827
:10508000000010208DF8030002208DF80200694610
:10509000054800F09BFD4FF48051034800F043FEAB
:1050A0000120FFF7D3FF08BD00080140F8B507460F
:1050B0000E460024002500200090FDF728FC6A46DB
:1050C0000021BD48006802F082FEFFF73AFE044668
:1050D000BCB1142512E0FFF77CFEFFF732FE044658
:1050E00014B1681EC5B200E00AE03DB9FFF771FED9
:1050F000B148006802F01AFFFF20F8BD002DEAD188
:1051000000BF6420FFF7C7FE04463CB1FFF761FE15
:10511000A948006802F00AFFFF20EEE73846FFF7D3
:10512000BAFE04463CB1FFF754FEA348006802F003
:10513000FDFEFF20E1E73046FFF7ADFE04463CB13F
:10514000FFF747FE9C48006802F0F0FEFF20D4E71E
:10515000FFF73FFE9848006802F0E8FE0020CCE729
:1051600070B5012002F0ADFD94490860002510E003
:105170002021E020FFF79AFF044604B107E0202138
:10518000F020FFF793FF044604B100E003E0681C41
:10519000C5B20A2DECDB00BF70BD70B50546FDF74A
:1051A000B6FBAC780A2C05DB102C01DB122C01DDE0
:1051B000FF2070BDEC78312C01DDFF20F9E704F011
:1051C0000F04092C01DDFF20F3E72C79232C01DDEE
:1051D000FF20EEE704F00F04092C01DDFF20E8E7D3
:1051E0006C79592C01DDFF20E3E704F00F04092C52
:1051F00001DDFF20DDE7AC79592C01DDFF20D8E788
:1052000004F00F04092C01DDFF20D2E70020D0E7D5
:105210000146CA1701EB92729210A1EB820292B979
:10522000642091FBF0F200FB121050B94FF4C870EB
:1052300091FBF0F200FB121008B90120704700202A
:10524000FCE70120FAE70020F8E7FEB50446002558
:105250000026FDF75CFB07236A4631466420FFF712
:105260007BFE05460DB1FF20FEBD9DF80000A0713C
:105270009DF8010060719DF8020020719DF8040006
:10528000E0709DF80500A0709DF806006070202079
:1052900020700020E8E7F8B505460026002400202D
:1052A00000906A4600214548006802F090FD00BF6A
:1052B0000CE02846FFF7C9FF06462EB93F480068B4
:1052C00002F034FE0020F8BD601CC4B20A2CF0DBF2
:1052D0003A48006802F02AFEFF20F4E710B50446C1
:1052E0002046FFF7D8FF10BD70B50446FDF70FFB51
:1052F0002021E020FFF7DAFE05460DB1FF2070BD4A
:10530000A1790020FFF7D2FE05460DB1FF20F6E798
:1053100061791020FFF7CAFE05460DB1FF20EEE7C8
:1053200021792020FFF7C2FE05460DB1FF20E6E7F8
:10533000E1784020FFF7BAFE05460DB1FF20DEE719
:10534000A1785020FFF7B2FE05460DB1FF20D6E749
:1053500061786020FFF7AAFE05460DB1FF20CEE779
:105360000020CCE7F8B50546002600240020009078
:105370006A4600211148006802F029FD00BF0CE0D8
:105380002846FFF7B1FF06462EB90C48006802F028
:10539000CDFD0020F8BD601CC4B20A2CF0DB07482C
:1053A000006802F0C3FDFF20F4E710B50446204674
:1053B000FFF7D8FF10BD0000740000207800002027
:1053C00008B50121082000F0BDFE4FF48060ADF863
:1053D000000048208DF8030002208DF80200694685
:1053E000644800F0F3FB4FF48061624800F09BFCDE
:1053F0004FF40060ADF8000048208DF80300022053
:105400008DF8020069465B4800F0E0FB4FF4006154
:10541000584800F088FC4FF48050ADF80000482058
:105420008DF8030002208DF802006946514800F013
:10543000CDFB4FF480514F4800F075FC4FF4005005
:10544000ADF8000048208DF8030002208DF802001E
:105450006946484800F0BAFB4FF40051454800F057
:1054600062FC4FF48040ADF8000048208DF8030046
:1054700002208DF8020069463E4800F0A7FB4FF479
:1054800080413C4800F04FFC4FF40040ADF8000074
:1054900048208DF8030002208DF802006946354847
:1054A00000F094FB4FF40041324800F03CFC4FF414
:1054B0008070ADF8000048208DF8030002208DF8C0
:1054C000020069462B4800F081FB4FF480712948A7
:1054D00000F029FC4FF40070ADF8000048208DF872
:1054E000030002208DF802006946224800F06EFB9E
:1054F0004FF400711F4800F016FC2020ADF80000AA
:1055000048208DF8030002208DF8020069461948F2
:1055100000F05CFB2021174800F005FC08BD0246A6
:10552000002000210AE042FA01F303F001031843CE
:10553000072901DA4306180E4B1CD9B20829F2DB01
:10554000704770B50B4800F0DDFBC04384B204F433
:10555000807020B90020084981F86A0003E001202A
:10556000054981F86A0004F47E4425122846FFF7B5
:10557000D6FF70BD000C0140D81C002010B50446B9
:10558000FDF7C5F92CB94FF40061274800F0CBFBBB
:1055900005E0012C03D1E102234800F0C6FB10BD59
:1055A00008B50121042000F0CDFD4FF40060ADF8F6
:1055B000000010208DF8030002208DF802006946DB
:1055C000194800F003FB4FF40061174800F0ABFBF3
:1055D0000120FFF7D3FF08BD10B50446FDF797F98A
:1055E0000020FFF7CBFF2046FCF7C7FD0120FFF7A7
:1055F000C5FF10BD10B5FDF78AF90020FFF7BEFF0B
:105600006420FCF7BAFD0120FFF7B8FF6420FCF727
:10561000B4FD0020FFF7B2FF6420FCF7AEFD0120CF
:10562000FFF7ACFF10BD00000008014008B50121E4
:10563000042000F087FD0C20ADF8000010208DF84C
:10564000030003208DF802006946E64800F0BEFA28
:105650004FF48070ADF8000010208DF80300022098
:105660008DF802006946DF4800F0B0FA4FF480710F
:10567000DC4800F05AFB0120DB490860DB49C1F837
:10568000880108BD08B50121042000F05BFD04205D
:10569000ADF8000010208DF8030003208DF8020003
:1056A0006946D04800F092FA08BD10B5FFF7EAFF4E
:1056B0000120CD49091F0860CC49C1F88C010420A4
:1056C000FCF77CFD0020C849091F08600420FCF796
:1056D00075FD0020C549C1F88C0110BD10B5FFF75C
:1056E000D1FF0020C0490860C049C1F888010420EA
:1056F000FCF764FD0120BC490860BC49C1F8880181
:105700000420FCF75BFD10BD08B50121042000F06A
:1057100019FD0420ADF8000048208DF80300032097
:105720008DF802006946AF4800F050FA08BD10B588
:105730000024FFF7E9FF0120AB49091F0860FCF7CF
:105740003DFD0120A949C1F88C01FCF737FD07E0B8
:10575000601CC4B2FA2C03DDFFF7C0FF012010BDAE
:10576000A148843800680028F2D19F49086000BF32
:10577000F5E710B500209C490860FFF783FF002083
:105780009A49C1F888010220FCF718FD01209649CA
:1057900008600220FCF712FD00209449C1F88C013A
:1057A00010BD10B5002090490860FFF76BFF012085
:1057B0008E49C1F888010220FCF700FD01208A49CA
:1057C00008600220FCF7FAFC00208849C1F88C012F
:1057D00010BD70B50446FFF755FF002082490860F0
:1057E000002517E0E0098049091F08606006040EE3
:1057F0000220FCF7E3FC01207C49C1F88C01022067
:10580000FCF7DCFC0020784908600220FCF7D6FC9D
:10581000681CC5B2082DE5DB70BD70B505460024D7
:10582000FFF772FF002616E000206F490860022093
:10583000FCF7C4FC01206D49C1F88C016006040E20
:1058400069488438006808B1601CC4B20120FCF7C4
:10585000B5FC701CC6B2082EE6DB15B9FFF7A1FF38
:1058600001E0FFF786FF204670BD10B5FFF7DEFEB2
:1058700010BD70B504460026FFF717FF2546E11757
:1058800004EB11610912A02202EB4101C8B2FFF73B
:10589000A0FFFFF74CFFE11704EB11610912A4EB25
:1058A0000121C8B2FFF795FFFFF741FFFFF7FDFEAB
:1058B000A120FFF78EFFFFF73AFF0020FFF7ADFFB3
:1058C0000646FFF70BFF304670BD70B504460E4626
:1058D000FFF7EBFE2546E11704EB11610912A02248
:1058E00002EB4101C8B2FFF774FFFFF720FFE11799
:1058F00004EB11610912A4EB0121C8B2FFF769FFA3
:10590000FFF715FF3046FFF764FFFFF710FFFFF7C3
:10591000E5FE0A20FCF724FC70BD2DE9F0410546A8
:105920000E461746002409E0E20026FA02F2D1B240
:105930002A1990B2FFF7C9FF601CC4B2BC42F3DB66
:10594000BDE8F0812DE9F04107460C460026002510
:1059500009E036023919491B491E88B2FFF789FF51
:105960000644681CC5B2A542F3DB3046BDE8F081B1
:1059700010B5FF20FFF77DFF0446552C01D1002014
:1059800010BD5521FF20FFF7A0FFFF20FFF771FF9B
:105990000446552C01D10020F2E70120F0E770B554
:1059A00006460C46154608E03046721C96B2FFF7D4
:1059B00060FF04F8010B681E85B2002DF4D170BDA4
:1059C00070B505460C46164606E021782846FFF7D6
:1059D0007CFF681C85B2641C3000A6F101018EB208
:1059E000F3D170BD000801408C012142000021422A
:1059F0000948804709480047FEE7FEE7FEE7FEE763
:105A0000FEE7FEE7FEE7FEE7FEE7FEE7044805499E
:105A1000054A064B704700008B050008ED000008A2
:105A20005843002058490020584500205845002080
:105A300031490143314A1160704770B5002100239C
:105A40000F22C47804B32D4C246804F4E064C4F538
:105A5000E064210AC1F10403CA40447804FA03F166
:105A60008478144021430901254C0678A155047817
:105A700004F01F050124AC4005786D11AD0005F15F
:105A8000E025C5F8004109E0047804F01F05012471
:105A9000AC401C4D0678761145F8264070BD1A4A78
:105AA0000A400243154B1B1F1A60704739B1134A55
:105AB000121D12680243114B1B1D1A6006E00F4AAB
:105AC000121D126882430D4B1B1D1A60704704287B
:105AD00008D14FF0E021096941F004014FF0E022C4
