:020000040800F2
:10000000104C002069580008910700089307000869
:10001000970700089B0700089F07000800000000E2
:10002000000000000000000000000000A30700081E
:10003000A5070008000000009F88000815050008BB
:100040008358000883580008835800088358000824
:100050008358000883580008835800088358000814
:100060008358000883580008835800088358000804
:1000700083580008835800088358000883580008F4
:1000800083580008835800088358000883580008E4
:1000900083580008835800088358000883580008D4
:1000A00083580008835800088358000883580008C4
:1000B00083580008835800088358000883580008B4
:1000C00083580008835800088358000883580008A4
:1000D00083580008A3420008854500085D480008D1
:1000E00083580008835800088358000800F002F87D
:1000F00000F090F80AA090E8000C82448344AAF132
:100100000107DA4501D100F085F8AFF2090EBAE82F
:100110000F0013F0010F18BFFB1A43F0010318473B
:100120001CA800003CA80000103A24BF78C878C181
:10013000FAD8520724BF30C830C144BF04680C60ED
:10014000704700000023002400250026103A28BF35
:1001500078C1FBD8520728BF30C148BF0B60704739
:100160006E2909F01280702908F01D8566290AF0B1
:10017000C78165290AF0C48167290AF0C181612914
:10018000AFF3008003681B0A28BF41F08001692992
:1001900008F09084642908F08D84752908F08A8419
:1001A0006F2909F0F780782908F0E984E92909F036
:1001B0009380E42909F09080F52909F08D80EF29DA
:1001C00009F0F480F82908F0E8840368DB0928BF07
:1001D00041F08001632909F01480732909F0198026
:1001E000E32909F07184F32909F07684002070472F
:1001F0001FB508F057FF0400002000210AF054F951
:10020000401C6060002000210AF064F9E0601FBD1E
:1002100010B510BD09F092FC1146FFF7E9FF00F0A0
:1002200055F909F05DFD03B4FFF7F2FF03BC09F0D7
:100230005DFD000000B585B002F026FA0320002124
:100240004FF48062C44BCDE90132CDE9031009209F
:100250000346C24A0090C24807F031FF0320002144
:100260004FF48072BF4BCDE90132CDE90310072076
:100270000346BD4A0090BD4807F021FF05B000BD10
:1002800030B58FB0002402F0FFF902F03CFC0446C8
:1002900034B10120B64908700846408808304880CB
:1002A000B4A102A808F0CCFD9DF8090002F0A2F864
:1002B00005469DF8080002F09DF845EA0010C0B21E
:1002C0008DF800009DF80B0002F094F805469DF8AB
:1002D0000A0002F08FF845EA0010C0B28DF8010064
:1002E0009DF80D0002F086F805469DF80C0002F01E
:1002F00081F845EA0010C0B28DF802009DF80F00A9
:1003000002F078F805469DF80E0002F073F845EA11
:100310000010C0B28DF803009DF8110002F06AF8D9
:1003200005469DF8100002F065F845EA0010C0B2DD
:100330008DF804009DF8130002F05CF805469DF866
:10034000120002F057F845EA0010C0B28DF805001F
:100350009DF8150002F04EF805469DF8140002F0D5
:1003600049F845EA0010C0B28DF80600684605F06D
:1003700027F97F480078012802D1FF200FB030BD57
:100380000020FBE710B50024B021794808F01EFEDC
:100390000020774908704880087148718871C871D9
:1003A0003C20A1F87E005C21764808F00FFE402139
:1003B000754808F00BFE012007F0DFFB7349086069
:1003C000012007F0DAFB72490860012007F0D5FB35
:1003D00070490860012007F0D0FB6F49086005F004
:1003E000CDF90446642094FBF0F0614981F83600B1
:1003F000642094FBF0F100FB11400A2190FBF1F026
:10040000C1B25B4880F837100A2094FBF0F100FB82
:100410001140C1B2564880F8381010BD10B502F036
:1004200022F901F0B9FD02F033F903F06AFE04F09D
:100430002DFD04F0C3FF05F0D1F904F047FF05F0EE
:10044000EDF810BD002400BF06F0A6FAFFF7E6FFA6
:10045000032001F075FD4FF47A7001F029FE0020B1
:1004600001F06EFDFFF78EFFFFF70AFF04461CB197
:10047000022001F065FD02E0012001F061FD03F0C2
:1004800066FBFFF7D7FEFF2008F042F800BF002010
:100490008047FCE710B56FF0040005F054FA3F48C0
:1004A00000683F49B0FBF1F441F2883044434FF01B
:1004B000E020006940F002004FF0E02108610846AA
:1004C0004461006940F00100086110BD00B585B0CD
:1004D00034A11F2008F06EFC4FF4A06005F0E4F991
:1004E000FFF7D8FF06F01BF9032000214FF400723C
:1004F0002D4BCDE90132CDE90310052003462B4AEF
:100500000090AFF2BF0007F0DAFD06F02DFA0020F0
:1005100005B000BD10B506F018F906F05CFA06F05B
:100520002FF910BD10B59AB000240020009002F001
:10053000ABF800200E490872087A6A4601A904F057
:100540005CFA044614B1FF201AB010BD002008491F
:10055000087200BFF8E70000D8080020D418002077
:10056000BF0A0008D8180020D41C0020A51B0008D2
:10057000D81C002032303136303531383131343505
:1005800000000000881D0020E41D00200000002065
:1005900004000020080000200C00002010000020B3
:1005A00000127A0043000000D8000020D408002088
:1005B0000CB50020019000906C48006840F4803039
:1005C0006A49086000BF6948006800F40030009084
:1005D0000198401C0190009818B90198B0F5A06FDF
:1005E000F1D16248006800F4003010B101200090A1
:1005F00001E0002000900098012843D15C48006889
:1006000040F010005A4908600846006820F00300D6
:1006100008600846006840F00200086053484068DF
:10062000524948600846406848600846406840F4BF
:10063000806048600846406820F47C1048600846A6
:10064000406840F4E81048600846006840F0807058
:10065000086000BF4548006800F000700028F9D02D
:100660004248406820F0030040494860084640681E
:1006700040F00200486000BF3C48406800F00C00B9
:100680000828F9D10CBD10B5FFF792FF10BD10B5C9
:100690003648006840F00100344908600846406868
:1006A00034490840314948600846006832490840EA
:1006B0002E4908600846006820F48020086008463B
:1006C000406820F4FE0048604FF41F008860FFF788
:1006D000DAFF4FF000602949086010BD10B5002115
:1006E00000200022214B5B6803F00C0121B104299A
:1006F00006D0082928D107E0214B224C236027E0AF
:100700001F4B204C236023E0184B5B6803F47010F0
:10071000164B5B6803F48032022303EB904022B94E
:10072000194B4343174C23600DE0104B5B6803F4F7
:10073000003323B1144B4343124C236003E0104BAE
:100740004343104C236003E00D4B0E4C236000BF6D
:1007500000BF064B5B68C3F303130C4CE15C094B11
:100760001B68CB40074C236010BD00000010024006
:10077000002002400000FFF8FFFFF6FE08ED00E059
:1007800000127A001000002000093D001400002033
:10079000704700BFFEE700BFFEE700BFFEE700BFF7
:1007A000FEE77047704700000246FD4890F86A0077
:1007B00008B9002070478A4201D80020FAE7FF20DC
:1007C000F8E77CB50446002501F05EFF684604F0BA
:1007D00090FE05460DB1FF207CBD684604F00BFE7F
:1007E00005460DB1FF20F7E70098A060BDF80400B2
:1007F000A0819DF80600A0730020EDE72DE9F041EF
:1008000096B00024002500201290139014901590AB
:1008100000278046002601F037FF342105A808F0A4
:10082000D5FBE048E0A109680160E14890F82D009F
:10083000C043DC490871DE4890F82E00C04348717F
:10084000DB4A2D32002003F067F9C4B21CB1FF204F
:1008500016B0BDE8F08112A9022002F023FEC4B256
:100860000CB1FF20F4E7D248FFF7ABFF04460CB110
:10087000FF20EDE79DF85200CD49C873202081F894
:1008800052009DF84A0001F00CFEC94981F853005E
:100890009DF84B0001F005FEC54981F854009DF814
:1008A0004C0001F0FEFDC24981F855000021C0480E
:1008B00080F8561080F8571080F85810523001F028
:1008C00084FD0746BA48083001F07FFD8046B9A094
:1008D00000F068FB9DF84800C0EB00209DF849102F
:1008E0004218B8A105A808F07FF805A800F05AFB47
:1008F0009DF84C0000909DF84B309DF84A20B5A122
:1009000005A808F071F805A800F04CFB9DF85220EE
:10091000B6A105A808F068F805A800F043FB9DF80B
:100920005120B6A105A808F05FF805A800F03AFB31
:100930009DF854009DF853109DF850209DF84F30BD
:10094000CDE90032CDE902109DF84E309DF84D20E2
:10095000AEA105A808F048F805A800F023FB04F0B4
:100960000DFF0546642195FBF1F08D4981F83600B5
:10097000642195FBF1F201FB12500A2190FBF1F08A
:10098000C1B2874880F837100A2195FBF1F201FBCC
:100990001250C1B2824880F8381090F836006421B5
:1009A00048437F4991F8371001EB810100EB410189
:1009B0007B4890F838000844C6B27D48C07B0128C7
:1009C00006D002280AD0032814D004281AD117E030
:1009D0009DF84D00764981F8240015E039464046DF
:1009E000FFF7E2FE04461CB104F022FFFF202FE7D0
:1009F00000202DE79DF84D006D4981F8240003E0AB
:100A0000002025E7FF2023E700BF9DF84D00B042FE
:100A100007D09DF84F00B04203D09DF85300B0427C
:100A20000BD139464046FFF7BFFE04461CB104F027
:100A3000FFFEFF200CE700200AE704F0F9FEFF208C
:100A400006E738B500240020009001F01DFE03F0F9
:100A500084F857495131002002F0E8FAC4B244B199
:100A600053495131002002F0E1FAC4B20CB1FF2029
:100A700038BD4F4A2D320021932002F015FBC4B23D
:100A80000CB1FF20F4E76A4649492D31932002F06A
:100A90002FFCC4B20CB1FF20EAE7454890F85100A2
:100AA000042804D0424890F85100022803D1FFF7EF
:100AB000A5FE044601E0FF20DAE72046D8E700243F
:100AC00000BF01F0E1FD00BFFFF7BBFF044602F0ED
:100AD0008EFEC4B9002004F06FFE0021084601F02C
:100AE00086FA002004F0E0FB4FF4967001F0BEFAA5
:100AF0000121002001F07BFA012004F0D5FB012048
:100B000004F05AFEE0E70121002001F070FADBE773
:100B100070B505460E4600243146284601F077FDA3
:100B200004462046E11704EB1161C1F30721A955E2
:100B3000E11704EB11610912A4EB0121CAB2711C87
:100B40006A5470BD10B53E483EA10A68026009793A
:100B500001710521FFF7DCFF0721394803F0D1FBC4
:100B600010BD2DE9FF4100240025002600270020AC
:100B7000009001900290039001F086FD33480078C8
:100B8000012865D104223149283109482D3008F067
:100B90002BF947B21FB1FF2004B0BDE8F08160E03F
:100BA000D81C0020BC2600208F8E8D8C00000000F9
:100BB000881D0020B6C1C8A1BFA8C6ACD0C5CFA2B1
:100BC0002E0D0A00BFA8BAC53A20253036640D0A9A
:100BD00000000000D3D0D0A7C6DA3A202530326416
:100BE00025303264253032640D0A0000BFA8C0E011
:100BF000D0CD3A20253032640D0A0000B7D6C7F8B0
:100C0000BAC53A20253033640D0A0000D4A4C9E8DF
:100C1000B5A5D4AA3A2025303364C2A52530326464
:100C2000B2E32025303364C2A525303264B2E3201C
:100C300025303364C2A525303264B2E30D0A0000CA
:100C400004320020BBFF006A00000000E41D002009
:100C5000C548FFF7B6FD04461CB1FF2004B0BDE84F
:100C6000F081C248AFF2C00109680160BE4890F847
:100C70002D00C043BD490871BB4890F82E00C04309
:100C80004871B94A2D32002002F046FFC4B20CB1BF
:100C9000FF20E3E76946022002F004FCC4B20CB175
:100CA000FF20DBE79DF80900AF49C873202081F8D9
:100CB00052009DF8020001F0F4FBAB4981F85300AB
:100CC0009DF8030001F0EDFBA74981F854009DF861
:100CD000040001F0E6FBA44981F855000021A24878
:100CE00080F8561080F8571080F85810523001F0F4
:100CF0006CFB05469C48083001F067FB06469DF8F2
:100D000009006D280ED19848083001F05EFB0646B8
:100D100029463046FFF748FD04460CB1FF209DE709
:100D200000209BE7FF2099E730B58DB0002401F04B
:100D3000ABFC02F012FF6946002002F077F9C4B262
:100D400014B1FF200DB030BD9DF80050864A2D3201
:100D50000021932002F0A8F9C4B20CB1FF20F1E702
:100D6000022D01D0042D02D1FFF7FBFE04460CB189
:100D7000FF20E7E70020E5E71FB5002400200090F2
:100D800001900290039001F07FFC6946042002F07C
:100D900089FBC4B214B1FF2004B010BD9DF80B0054
:100DA000042802D146F68520F6E704208DF80B00D2
:100DB0000F21684601F096F98DF80F00694604206E
:100DC00002F0C8FBC4B20CB1FF20E5E71120664970
:100DD00081F824000020DFE710B5002401F054FC66
:100DE000FFF7CAFF04460CB1204610BD5E4890F8DC
:100DF00024005F4981F8A50008465B494968C0F8AE
:100E0000A6105CA10968C0F8AA100020EDE7014611
:100E1000080E5A4AD070080C9070080A5070117071
:100E20001046704738B500240020009001F02CFCDB
:100E30004F4890F8AF00012808D107204A4981F8AF
:100E400024000846C0690862002038BD4648C069D1
:100E500045490969884202D249F20140F5E7424911
:100E60000869FFF7D4FF054605232A461946C02026
:100E700002F0EEFBC4B20CB1FF20E6E706236A469F
:100E80000521C02002F0E4FB3748C06936490969F2
:100E9000401A35490862062081F824000020D4E772
:100EA00010B5002401F0F0FBFFF7BCFF04460CB1C5
:100EB000204610BD2C4890F824002D4981F8A5004B
:100EC000084629494968C0F8A6102749096AC0F8A8
:100ED000AA100020EDE710B5044601F0D5FB207BF9
:100EE000617B0844FF2807D1207BA17B884203D186
:100EF000607BE17B884201D0012010BD2078217AFF
:100F000088420BD16078617A884207D1A078A17AB3
:100F1000884203D1E078E17A884201D00220ECE7F0
:100F2000207821790844FF2810D16078617908443D
:100F3000FF280BD1A078A1790844FF2806D1E078DA
:100F4000E1790844FF2801D10020D6E70320D4E747
:100F50000146C87800068A7800EB02404A7800EB28
:100F600002200A7810447047881D0020BC2600200B
:100F7000D81C002000000000000000003C00002001
:100F800038B50446002000906A460021FA480068FF
:100F900006F079FE204603F058F9F748006806F09D
:100FA00021FF38BD38B50446002000906A46002174
:100FB000F148006806F067FE204607F065FF85B23D
:100FC0002946204603F09DF9EB48006806F00AFF29
:100FD00038BD38B504460D46002000906A46002111
:100FE000E548006806F04FFE2946204603F089F9DF
:100FF000E148006806F0F6FE38BD08B50020009014
:1010000000BF01F041FBDD49684602F0E4FF012822
:1010100002D19DF8000008BD0523002211461046AC
:1010200007F070FBEDE710B503F008F910BD2DE9EE
:10103000F04104460D4616461F464FF000083B4659
:1010400032462946204603F06CF980464046BDE80A
:10105000F0810FB410B58EB000200D9011A80C9047
:101060000DAA0021C448006806F00DFEC4480C9A81
:101070001099006807F0A6FCC148006807F004FF5B
:1010800084B22146BE48006803F03BF90AA804F088
:1010900053FA9DF82E0000909DF82D309DF82C20DD
:1010A000B8A102A807F0A0FC0DAA0021B948006869
:1010B00006F0E9FDB84807F0E7FE044602A807F08D
:1010C000E3FE2044B0F5FA6F03D202A9B24807F05C
:1010D000FAFEB14807F0D8FE0446A948006807F0B8
:1010E000D3FE2044B0F5FA6F04D2A5480168AA489F
:1010F00007F0E9FEA748006806F074FE9E48006805
:1011000006F070FE0EB010BC5DF814FBF0B585B0B3
:1011100005460020A149087000240027A0A0FFF781
:1011200041FF04E0285D0DF80400601CC4B2285D96
:10113000202803D0285D08B1142CF3DB00200DF823
:10114000040000260DE006EB4600964A02EB800004
:101150004168684607F062FF08B9374603E0701C33
:10116000C6B2092EEFDB00BF092E02DBFF2005B05F
:10117000F0BD18E0285D202813D1884800780028A9
:1011800001DD00202855601CC4B228198649834A15
:10119000127841F8220081480078401C7F4908708D
:1011A00001E0601CC4B2285D0028E3D13846DEE7C8
:1011B000704700B50246FFF7FBFF002000BD2DE998
:1011C000F04395B007460C464FF00008002601F0AA
:1011D0005BFA73A0FFF7E6FE022F0FD07348FFF70C
:1011E000E1FE73A0FFF7DEFE77A0FFF7DBFE7DA038
:1011F000FFF7D8FEFF2015B0BDE8F08382A120687C
:1012000007F0E0FD28B981A1206807F0DBFD002888
:101210007DD00A2205A9606807F094FD0546606844
:101220000599884204D17AA0FFF7BCFEFF20E2E7CF
:101230007E48854204DD76A0FFF7B4FEFF20DAE7A2
:101240007B4895FBF0F0C0B28DF82000784895FB04
:10125000F0F100FB115042F2107190FBF1F0C0B2BE
:101260008DF82100084695FBF0F100FB11504FF47A
:101270007A7190FBF1F0C0B28DF82200084695FB20
:10128000F0F100FB1150642190FBF1F0C0B28DF839
:101290002300642095FBF0F100FB11500A2190FB24
:1012A000F1F0C0B28DF824000A2095FBF0F100FBAC
:1012B0001150C0B28DF825009DF821009DF8201036
:1012C00040EA01105B4981F836009DF823009DF843
:1012D000221040EA0110C1B2564880F837109DF83C
:1012E00025009DF8241040EA0110C1B2514880F851
:1012F000381051A0FFF756FE4E4890F83600642192
:1013000048434C4991F8371001EB810100E010E0AF
:1013100000EB4101474890F838000A184AA11848E4
:10132000006807F061FB16480068FFF73BFE0020ED
:1013300061E74BA1206807F045FD28B94AA1206864
:1013400007F040FD002815D0606807F09DFD0E28CD
:1013500004D047A0FFF726FEFF204CE70026AFE0B1
:1013600007F028FB006861688957405C202802D19B
:1013700001209CE03EE199E004000020842D002043
:1013800044000020253032783A253032783A253032
:10139000327820000C000020241E00204000002095
:1013A0000D0A00001C27002088270020E8A800085C
:1013B000B8F1CABD3A2073657420787878207878BF
:1013C000782E0D0A00000000C0FDC8E7C9E8D6C3AA
:1013D00069643A207365742069642030303030309D
:1013E000310D0A00C7E5B3FD61706E7061737377EC
:1013F000643A207365742061706E706173737764F2
:10140000204E554C4C0D0A00696400004944000010
:101410004944CEAA36CEBBCAFDD7D6A3ACC7EBD6BD
:10142000D8D0C2CAE4C8EBA1A30D0A003F420F0006
:10143000A0860100D81C0020736574206964206FA9
:101440006B2E0D0A00000000D6D5B6CBB1E0BAC5B0
:10145000286964293A20253036640D0A000000000E
:1014600074696D650000000054494D45000000009E
:10147000B8F1CABDB2BBB6D4A3ACC7EBD6D8D0C204
:10148000CAE4C8EBA1A3B8F1CABDCEAA59595959AB
:101490004D4D444448484D4D5353D2BBB9B23134FD
:1014A000B8F6D7D6BDDAA1A30D0A000000200128A6
:1014B00005D0AFF24400FFF775FDFF209BE6761CD8
:1014C000606807F0E1FCB0423FF64AAF08A86168E7
:1014D00007F0B6FC9DF8210000F08CFF81469DF8D6
:1014E000200000F087FF49EA0010C0B28DF8180014
:1014F0009DF8230000F07EFF81469DF8220000F059
:1015000079FF49EA0010C0B28DF819009DF8250056
:1015100000F070FF81469DF8240000F06BFF49EA5F
:101520000010C0B28DF81A009DF8270000F062FF8D
:1015300081469DF8260000F05DFF49EA0010C0B228
:101540008DF81B009DF8290000F054FF81469DF89E
:10155000280000F04FFF49EA0010C0B28DF81C00CF
:101560009DF82B0000F046FF81469DF82A0000F010
:1015700041FF49EA0010C0B28DF81D009DF82D0012
:1015800000F038FF81469DF82C0000F033FF49EA57
:101590000010C0B28DF81E0006A804F011F8FEA0DD
:1015A000FFF700FD06A803F0A4FF8046B8F1000F86
:1015B00002D00020069007909DF81E009DF81D1097
:1015C0009DF81C209DF81B30CDE90132CDE90310B8
:1015D0009DF81A0000909DF819309DF81820F2A18E
:1015E000FC48006807F000FAFA480068FFF7DAFCE8
:1015F000002000E6F848FFF7D5FCAFF24C20FFF7DB
:10160000D1FCAFF23C20FFF7CDFCAFF22820FFF772
:10161000C9FCFF20EFE570B588B005460E4601F025
:1016200033F8E0A0FFF7BEFCEC48FFF7BBFCEC484A
:10163000FFF7B8FCEBA0FFF7B5FC06A9052006F004
:1016400025FF04460CBB0522EDA101A807F0CCF94B
:1016500001A8FFF7A7FCDDE906014218EAA101A8ED
:1016600007F0C2F901A8FFF79DFCE9A101A8069ABD
:1016700007F0BAF901A8FFF795FCE7A101A8079ABE
:1016800007F0B2F901A8FFF78DFCE5A0FFF78AFC8F
:1016900006A9092006F0FAFE04460CBB0922D8A1CF
:1016A00001A807F0A1F901A8FFF77CFCDDE906011C
:1016B0004218D5A101A807F097F901A8FFF772FC1D
:1016C000D3A101A8069A07F08FF901A8FFF76AFCD9
:1016D000D1A101A8079A07F087F901A8FFF762FCDA
:1016E000D6A0FFF75FFC06A9072006F0CFFE044650
:1016F0000CBB0722C2A101A807F076F901A8FFF7E9
:1017000051FCDDE906014218BFA101A807F06CF900
:1017100001A8FFF747FCBEA101A8069A07F064F9EB
:1017200001A8FFF73FFCBCA101A8079A07F05CF9EC
:1017300001A8FFF737FCC8A0FFF734FC06A9062074
:1017400006F0A4FE04460CBB0622ADA101A807F0DA
:101750004BF901A8FFF726FCDDE906014218AAA112
:1017600001A807F041F901A8FFF71CFCA8A101A8F6
:10177000069A07F039F901A8FFF714FCA6A101A801
:10178000079A07F031F901A8FFF70CFC002008B018
:1017900070BD70B504460D4600F076FF81A0FFF7DE
:1017A00001FC24B9B3A0FFF7FDFBFF2070BDB7A17A
:1017B000286807F033FC20B1B6A0FFF7F3FBFF2049
:1017C000F4E7B7A0FFF7EEFBBBA0FFF7EBFB0020B1
:1017D000ECE7F0B587B006460F4600BF00BF00F04B
:1017E00053FF70A0FFF7DEFB03F0C8FF0446642040
:1017F00094FBF0F0B34981F83600642094FBF0F1DB
:1018000000FB11400A2190FBF1F0C1B2AD4880F815
:1018100037100A2094FBF0F100FB1140C1B2A94837
:1018200080F83810A84AA9A16A48006807F0DCF8D7
:1018300068480068FFF7B6FBA24890F836006421BC
:101840004843A04991F8371001EB810100EB4101B9
:101850009C4890F838000A18AFF214415D480068BF
:1018600007F0C2F85B480068FFF79CFB05A803F08F
:1018700040FE054615B10020059006909DF81A001F
:101880009DF819109DF818209DF81730CDE9013208
:10189000CDE903109DF8160000909DF815309DF8D5
:1018A00014208EA14B48006807F09EF84948006854
:1018B000FFF778FB83480078012811D193A14548B0
:1018C000006807F091F843480068FFF76BFB7D481C
:1018D000408800F0080030B18FA0FFF763FB02E002
:1018E00091A0FFF75FFB3B480068FFF75BFB002020
:1018F00007B0F0BD02460020704770B505460E46A1
:10190000002428A0FFF74EFB8AA0FFF74BFB00BF87
:1019100013E004EB44008B4901EB8000406850B1B8
:1019200004EB4401874A02EB81014868FFF73AFB68
:101930001CA0FFF737FB601CC4B2092CE9DB0020B8
:1019400070BD002100BF08E0002001EB41027D4B8B
:1019500003EB82025060481CC1B20929F4DB00206D
:10196000784A108078A05060AFF27100906001203A
:10197000908177A273480261AFF287024261022030
:10198000704A108373A26F48C261AFF2B91202624B
:1019900003206C4A9084E1E07365742074696D657E
:1019A000206F6B2E0D0A000054494D453A2025301A
:1019B0003258253032582D253032582D25303258A6
:1019C00020253032583A253032583A253032580DD9
:1019D0000A00000044000020E8A80008A0A80008B1
:1019E00058A800085461736B5374617274202020EE
:1019F0002020202020202020202020203A202000ED
:101A000025346420200000002531316420200000AE
:101A1000253130642020000025313064200D0A007B
:101A20005461736B47656E6572616C4374726C20B0
:101A300020202020202020203A2020007461736B79
:101A40005F7368656C6C20202020202020202020DF
:101A5000202020203A2020007461736B5F67707231
:101A60007320202020202020202020202020202023
:101A70003A202000666F726D6174BAF3C3E6C7EB5B
:101A8000B8FAC3DCC2EB2E0D0A0000003030303053
:101A900030300000C3DCC2EBB4EDCEF32E0D0A00F3
:101AA000537461727420666F726D617474696E67CD
:101AB0002E2E2E0D0A00000053756363657373218B
:101AC0000D0A0000D81C002004A50008B0E6B1BE35
:101AD000BAC53A2025730D0A00000000CAB1BCE463
:101AE0002874696D65293A202530325825303258DE
:101AF0002D253032582D2530325820253032583A95
:101B0000253032583A253032580D0A00C9E8B1B8AC
:101B1000B9CAD5CF0D0A0000B6C1D0B4CDB7B4ED67
:101B2000CEF3210D0A000000C9E8B1B8D5FDB3A37A
:101B30000D0A0000616C6C20636F6D6D616E6473E3
:101B40003A0D0A001C27002068656C700000000038
:101B5000666C7000696E666F00000000D6A2D848FF
:101B60008262AFF2D132C2620420D54A1086D5A279
:101B7000D3484263AFF2615282630520D04A908716
:101B8000D2A2CF480264AFF6C91242640620CC4A02
:101B9000A2F84800CEA2CA48C264AFF6E9120265B4
:101BA000002070478EB000250020009000BFFFF796
:101BB000C8FE00208DF80400C7A0FFF7F3F9CFA0FE
:101BC000FFF7F0F900BF00BF00F05EFD00BFFFF7B8
:101BD00014FA44B2302C01DB392C15DD612C01DB09
:101BE0007A2C11DD412C01DB5A2C0DDD2E2C0BD073
:101BF000202C09D02D2C07D02F2C05D00D2C03D054
:101C0000082C01D02C2CE2D1082C40D00D2C02D075
:101C1000202C53D142E01DB9B8A0FFF7C3F935E03D
:101C2000681E01A9085C202801D1681EC5B20020E9
:101C300001A9485501A8FFF769FA0646FF2E0AD107
:101C40000025002001A94855ADA0FFF7ABF9ABA0D6
:101C5000FFF7A8F91AE006EB4600994901EB80006E
:101C600087686A460021AB48006806F00CF8AA496C
:101C7000AA480078B847A748006806F0B3F80025DE
:101C8000002001A948559DA0FFF78CF920E025B15F
:101C9000681EC5B2A2A0FFF785F919E0681E01A968
:101CA000085C202809D045B1302D06DC01A8445538
:101CB000681CC5B2E0B2FFF763F909E0302D06DC1D
:101CC00001A84455681CC5B2E0B2FFF759F900BF3E
:101CD0007AE72DE9FE4F80460E4614461D46DDE9A3
:101CE0000C9A0027BB468F48808D401C8D49888503
:101CF0000846808D642801DB002088858948828D14
:101D000089A1684606F070FE002733E0FFF78BF9E3
:101D100006F1180081B24046FFF75BF953464A4688
:101D200029462046FFF783F98346BBF1000F1ED1F9
:101D30002078402800D01BE02988204600F06FFC66
:101D400000B115E0E07D452803D1207E522800D166
:101D50000EE0A0799DF80010884204D1E0799DF84A
:101D60000110884200D003E00020BDE8FE8F00BFD4
:101D7000781CC7B20A2FC9DDFF20F6E730B585B061
:101D80000020049000F080FC69A16B48006807F017
:101D900057F86948006807F077F885B20A204FF4D1
:101DA000FA7104ABCDE90010644829460268624824
:101DB0000068FFF78EFF0446002C7BD15F4909685D
:101DC000087E00F017FB05465C490968C87D00F0F5
:101DD00011FB45EA0010C0B28DF8080057490968A8
:101DE000887E00F007FB054654490968487E00F0EC
:101DF00001FB45EA0010C0B28DF809004F4909689F
:101E0000087F00F0F7FA05464C490968C87E00F0E3
:101E1000F1FA45EA0010C0B28DF80A004749096896
:101E2000887F00F0E7FA054644490968487F00F0DA
:101E3000E1FA45EA0010C0B28DF80B003F4909688D
:101E400091F8200000F0D6FA05463C490968C87FA1
:101E500000F0D0FA45EA0010C0B28DF80C00374906
:101E6000096891F8220000F0C5FA0546334909686F
:101E700091F8210000F0BEFA45EA0010C0B28DF8DA
:101E80000D002E49096891F8240000F0B3FA0546C8
:101E90002A49096891F8230000F0ACFA45EA0010DD
:101EA000C0B28DF80E0002A803F0ADFB002005B013
:101EB00030BDFFE7FF20FAE7666F726D61740000C6
:101EC0001C27002063686B73746B000073657400DB
:101ED00075706C6F616400000D0ABBB6D3AD212133
:101EE000210D0ACAE4C8EB696E666FB2E9BFB4D0CF
:101EF000C5CFA2B2CECAFD2E000000000D0A2300FD
:101F00000D0A57726F6E6420636F6D6D616E642E83
:101F10000000000000000020882700204000002072
:101F200008200800D81C0020253032640000000082
:101F300054494D4530303000440000204800002016
:101F400010B50446012C08D10121404803F027FEBA
:101F500002213E4803F025FE1DE0022C08D101219C
:101F60003A4803F01EFE0221384803F018FE12E042
:101F7000032C08D10121354803F013FE0221334818
:101F800003F00FFE07E00121304803F008FE0221B4
:101F90002E4803F004FE10BD08B50121082004F00E
:101FA0000DF80120ADF8000010208DF8030002208C
:101FB0008DF802006946254803F044FD01212348BD
:101FC00003F0EDFD0220ADF8000010208DF80300B5
:101FD00002208DF8020069461C4803F033FD0221FF
:101FE0001A4803F0DCFD0020FFF7AAFF08BD70B51A
:101FF00005460C4655B924B90121144803F0D1FD1A
:1020000010E00121114803F0CAFD0BE0012D09D1B8
:1020100024B902210D4803F0C4FD03E002210B485E
:1020200003F0BDFD70BD10B500210846FFF7DFFFCE
:102030004FF47A7000F01AF801210020FFF7D7FF63
:102040004FF47A7000F012F810BD0000000C01404F
:102050000022002107E0002201E0531CDAB2692AC5
:10206000FBDB4B1C99B28142F5DB704730B504466F
:10207000002500BF04E06420FFF7EAFF681C85B27A
:10208000A542F8DB30BD70B50446002500F0FCFA2F
:1020900000BF07E00A2300221146104606F032FB7B
:1020A000681C85B20A2094FBF0F0A842F2DC70BDF7
:1020B00010B504462046FFF7D9FF10BD10B5044601
:1020C0002046FFF7E0FF10BD0022002107E00022BC
:1020D00001E0531CDAB20B2AFBDB4B1C99B28142A4
:1020E000F5DB704710B502460B460021002000BF0B
:1020F00003E0545C60404C1CA1B29942F9DB10BD76
:1021000001460A46C81701EB90708010A1EB8000D1
:1021100070B9642091FBF0F300FB131030B94FF459
:10212000C87091FBF0F300FB131008B90120704751
:102130000020FCE710B5044600F0A6FA04F00F00FA
:10214000211101EB810100EB4100C0B210BD2DE96E
:10215000F0439BB004463422FE490EA806F004FF6B
:102160003422FC49343101A806F0FEFE20782028F4
:1021700003D000201BB0BDE8F0836078FFF7DAFFE2
:1021800081462078FFF7D6FF00EBC00101EB00107D
:1021900009EB80084046FFF7B3FF0746012F2AD11D
:1021A000A078FFF7C7FF01A951F82080E078FFF77A
:1021B000C1FF404400EB4000C000C0EB00108000B5
:1021C000C0EB00104FEA80082079FFF7B3FFC0EBA7
:1021D00000108000C0EB001008EB80086079FFF76A
:1021E000A9FFC0EB001008EB8008A079FFF7A2FF61
:1021F00008EB000529E0A078FFF79CFF0EA951F835
:102200002080E078FFF796FF404400EB4000C000DC
:10221000C0EB00108000C0EB00104FEA800820796E
:10222000FFF788FFC0EB00108000C0EB001008EB48
:1022300080086079FFF77EFFC0EB001008EB800894
:10224000A079FFF777FF08EB00054FF4FA660BE083
:102250003046FFF755FF012802D1BF48054401E091
:10226000BE480544701C86B26078FFF763FF804665
:102270002078FFF75FFF00EBC00101EB001008EBD7
:102280008000B042E4DC284674E72DE9F0439BB0BF
:10229000044600253422AF4968310EA806F064FEDA
:1022A0003422AC499C3101A806F05EFE207820283B
:1022B00003D000201BB0BDE8F0836078FFF73AFF41
:1022C00081462078FFF736FF00EBC00101EB0010DC
:1022D00009EB80084046FFF713FF0746012F2AD17C
:1022E000A078FFF727FF01A951F82080E078FFF7D9
:1022F00021FF404400EB4000C000C0EB0010800014
:10230000C0EB00104FEA80082079FFF713FFC0EB05
:1023100000108000C0EB001008EB80086079FFF728
:1023200009FFC0EB001008EB8008A079FFF702FF5F
:1023300008EB000529E0A078FFF7FCFE0EA951F894
:102340002080E078FFF7F6FE404400EB4000C0003C
:10235000C0EB00108000C0EB00104FEA800820792D
:10236000FFF7E8FEC0EB00108000C0EB001008EBA8
:1023700080086079FFF7DEFEC0EB001008EB8008F4
:10238000A079FFF7D7FE08EB00054FF4FA660BE0E3
:102390003046FFF7B5FE012802D16F48054401E041
:1023A0006E480544701C86B26078FFF7C3FE804615
:1023B0002078FFF7BFFE00EBC00101EB001008EB37
:1023C0008000B042E4DC284674E7014600200A7829
:1023D00013064A7803EB02438A7803EB0222CB7898
:1023E000D0187047014600204B780A7803EB022290
:1023F00090B2704710B5044600F046F9392C03DC62
:10240000A4F13000C0B210BD612C01D0412C01D12B
:102410000A20F8E7622C01D0422C01D10B20F2E710
:10242000632C01D0432C01D10C20ECE7642C01D0AB
:10243000442C01D10D20E6E7652C01D0452C01D1BB
:102440000E20E0E70F20DEE701460A2091FBF0F2C4
:1024500000FB12100A2291FBF2F240EA0210C0B215
:10246000704710B5044600F00FF9092C03DC04F1A5
:102470003000C0B210BD0A2C01D14120FAE70B2C6C
:1024800001D14220F6E70C2C01D14320F2E70D2CBC
:1024900001D14420EEE70E2C01D14520EAE7462089
:1024A000E8E710B5044600F0EFF80A2094FBF0F1DD
:1024B00000FB11400A2194FBF1F140EA0110C0B287
:1024C00010BD2DE9F04106460F4614460025B046E2
:1024D000002C01DCBDE8F081002506E07A5D08EB08
:1024E00045001FA106F080FA6D1CA542F6DB002016
:1024F00008F8140000BFEDE72DE9F04707460D4648
:1025000016460024B84600F0BFF8002E01DCBDE8F6
:10251000F087002419E0204604EBD0714910A4EBA9
:10252000410101B910E0285DFFF764FF8246611E9A
:10253000685CFFF75FFF4AEA0010A14604EBD9711F
:10254000491008F8010000BF641CB442E3DB00BF7F
:10255000DDE700000CA500080085E2018033E10101
:102560002530327800000000014601F13000C0B291
:1025700070472DE9F04104460D460027002600F083
:1025800083F800BF03E0E05D4640781CC7B2281F17
:10259000B842F8DCE81E215C06F00F0030308142C2
:1025A00009D1281F205C302101EB1611884202D18D
:1025B0000020BDE8F081FF20FBE72DE9F041054652
:1025C0000F4600F061F84FF6FF7418E000F05CF879
:1025D00015F8011B84EA012400260EE004F40040F3
:1025E00028B141F2210080EA440084B203E04FF6B2
:1025F000FF7000EA4404701CC6B2082EEEDB3800FF
:10260000A7F101018FB2E1D12046BDE8F08170B59C
:1026100004460D4629462046FFF7CFFF70BD70B532
:1026200006460D46002400F02FF8A81E81B2304661
:10263000FFF7C3FF0446E21704EB1262C2F307235D
:10264000AA1EB25C93420CD1E21704EB1262121282
:10265000A4EB0222D3B26A1EB25C934201D10020E5
:1026600070BDFF20FCE710B545F2555003F00EFF9A
:10267000062003F00EFF40F2712003F00DFF03F07F
:102680000EFF03F011FF10BD10B503F008FF10BDE1
:1026900008B5FFF7F9FF0121042003F08FFC0120AA
:1026A000ADF8000010208DF8030003208DF8020023
:1026B0006946FA4803F0C6F90121F84803F06FFAB9
:1026C0001020ADF800008DF8030003208DF8020003
:1026D0006946F24803F0B6F91021F04803F05FFABA
:1026E0002020ADF8000010208DF8030003208DF8A5
:1026F00002006946E94803F0A5F92021E74803F004
:102700004EFA4020ADF8000048208DF80300032069
:102710008DF802006946E14803F094F98020ADF895
:10272000000010208DF8030003208DF80200694698
:10273000DA4803F087F98021D84803F030FA08BD61
:10274000704770B5044600251BE02021D34803F0F4
:1027500028FA04F0800020B98021D04803F021FA43
:1027600003E08021CD4803F01AFAFFF7E9FF2021AA
:10277000CA4803F014FAFFF7E3FF6006040E681C72
:10278000C5B2082DE1DB2021C44803F00AFA8021FC
:10279000C24803F006FA70BD2DE9F04104460D462B
:1027A00000267F2000EA440706F052F80646102172
:1027B000BA4803F0F6F93846FFF7C3FF2846FFF79B
:1027C000C0FF1021B54803F0EAF9304606F044F89E
:1027D000BDE8F08170B50024002516E06006040E07
:1027E000FFF7AEFF2021AD4803F0D9F94021AB48F7
:1027F00003F0BBF908B1601CC4B2FFF7A1FF2021B0
:10280000A64803F0CEF9681CC5B2082DE6DB2046C9
:1028100070BD2DE9F04104460025802040EA4400C7
:10282000C7B206F015F8054610219C4803F0B9F927
:102830003846FFF786FFFFF7CDFF06460020FFF77B
:1028400080FF1021954803F0AAF9284606F004F805
:102850003046BDE8F08170B505460C460026284696
:10286000FFF7D7FF46B246EA0400C1B22846FFF799
:1028700093FF70BD70B505460C4600262846FFF74D
:10288000C8FF46B226EA0400C1B22846FFF784FF1B
:1028900070BD10B501218248FFF7DDFF10BD2DE9A5
:1028A000F041002700240026002500BF4FF4FA70F5
:1028B000FFF7DCFB0121794803F071F96420FFF791
:1028C000D5FB05F0C5FF07460121744803F069F9FF
:1028D0000A20FFF7BDFB0AE06D1C7248854206D94D
:1028E000384605F0B9FF6FF07C00BDE8F0816C4818
:1028F0000838FFF78EFF00F03F003F28ECD100259D
:1029000009E06D1C6748854205D9384605F0A4FFEB
:102910006FF07C00E9E762480838FFF77AFF00F0C3
:102920003F000028EDD176B900214FF00040FFF7BD
:1029300033FF5B480838FFF76CFF10B16FF01906E2
:1029400003E0002601E06FF01806002E7BD1002185
:1029500053481630FFF720FF402151481630FFF74B
:102960001BFF0A20FFF774FB40214D481630FFF78C
:1029700081FF0E214A481430FFF70EFF4A484B4AA8
:10298000127810F8221046480B30FFF705FF464832
:10299000464A127800EB8200817841480C30FFF7FC
:1029A000FBFE4348434A127810F832103C4810307E
:1029B000FFF7F2FE3E483F4A127800EBC2008178F2
:1029C00037481130FFF7E8FE39483A4A127800EBF1
:1029D000C200017932481330FFF7DEFE3448354A31
:1029E000127800EBC20081792D481430FFF7D4FE35
:1029F000AD212B481230FFF7CFFE012128481530BA
:102A0000FFF7CAFE1A2126482030FFF7C5FE022133
:102A100023482230FFF7C0FE032121482430FFF76E
:102A2000BBFE3F211E480930FFF7B6FE03211C48BC
:102A30000830FFF71FFF0120FFF718FB032118489C
:102A40000830FFF708FF384605F006FF144812303B
:102A5000FFF7DFFE0446AD2C00D027E71048133007
:102A6000FFF7D7FE0446FE2C00D01FE70C481530B8
:102A7000FFF7CFFE0446012C00D017E708481030BE
:102A8000FFF7C7FE0446732C00D00FE70448203040
:102A9000FFF7BFFE04461A2C0ED007E700080140DE
:102AA00009000080A0860100FCA500085D00002050
:102AB000DCA500085C000020FA48FFF7AAFE0446E7
:102AC000022C00D0F2E6F748801CFFF7A2FE044675
:102AD000032C00D0EAE6F3481938FFF79AFE0446C3
:102AE0003F2C00D0E2E6EF481638FFF792FE04468E
:102AF000ED48EE49097800EB81004088A04200D003
:102B0000D4E63046F1E610B50024FFF7C8FEC4B2A3
:102B10000CB1FF2010BD0020FCE72DE9F84F07465F
:102B20008A46934600200090804600260024FFF746
:102B3000ABFD3F21DB482538FFF72EFE3F21D9486A
:102B40002438FFF729FE0021D6482A38FFF724FE53
:102B5000FFF79FFE0020D6498871122F29D00DDC87
:102B6000072F21D005DCB7B1012F17D0032F42D199
:102B700017E00B2F19D00C2F3DD117E0192F29D0BA
:102B800004DC142F18D0162F35D118E01A2F24D0BA
:102B90001E2F30D124E0002600242FE0112610241F
:102BA0002CE00726042429E000BF00BF05260424EA
:102BB00024E01126102421E0042604241EE0B94854
:102BC0001C38FFF726FE00114042B949487106261D
:102BD000042413E00526042410E0052604240DE057
:102BE000B0481C38FFF715FE00114042B04948714B
:102BF0003D26042402E06FF0160800BF00BFB8F1C4
:102C0000000F7CD146F0200644F0200446F08001FD
:102C1000A4482538FFF7C0FD3946A2482A38FFF7F7
:102C2000BBFD05F015FE0090B2E09E482538FFF789
:102C3000F0FD06469B482438FFF7EBFD00EA060549
:102C40009B48807928439A49887105F00100E0B3D8
:102C5000002194482A38FFF79FFD92482738FFF754
:102C6000D8FDC0F1400000F0FF099148C0789049BC
:102C70008978401A48450BDC8D48C0788C498978A2
:102C8000401A00F0FF09012186482538FFF784FD2E
:102C900000260EE0864880781AF80010814829380E
:102CA000FFF77AFD82488078401C81498870701C4B
:102CB000C6B24E45EEDB39467A482A38FFF76CFD3E
:102CC000012178482438FFF767FD05F01000C8B1EE
:102CD000102174482438FFF75FFD822171482538A0
:102CE000FFF75AFD7248007893280BD102216D48F6
:102CF0000938FFF751FD00214FF0004000E0B6E039
:102D0000FFF74AFD05F00E00E8B166482738FFF7E7
:102D100080FD814600260EE062482938FFF779FDE4
:102D2000634909790BF8010061480079401C60494A
:102D30000871701CC6B24E45EEDB05F00A01594819
:102D40002438FFF729FD05F00400B0B120215548D3
:102D50002538FFF721FD202152482438FFF71CFDBC
:102D600025F020055248807920F0200050498871D4
:102D700004214C482438FFF70FFD05F0200038B13E
:102D8000202148482438FFF707FD4FF0FF3805E0C1
:102D900047488079204000283FF447AF00BF0098A3
:102DA00005F05AFD0120FFF761F93F213D48253824
:102DB000FFF7F2FC3F213B482438FFF7EDFC0421EC
:102DC00038482238FFF747FD002136482A38FFF7F8
:102DD000E3FC37488079204008B96FF01A08B8F151
:102DE000000F4DD12F482138FFF713FD00F01704D5
:102DF0004CB304F0010040B12A482038FFF709FD28
:102E00002B49C8716FF0170807E000202849C871E6
:102E100004F0020008B16FF0040804F0040008B1E7
:102E20006FF0140804F0100018B1FFF732FD6FF0D6
:102E3000120804F0080008B16FF00108B8F1000FA3
:102E400001D16FF063081E2F01D0162F1BD115483A
:102E50002638FFF7DEFC00F007044CB11448417936
:102E60000079401E04EBC0000844114948710AE093
:102E70000F484179007901EBC0000D49487102E02B
:102E800000200B49C8714046BDE8F88F0020084972
:102E9000087048708870C870087148718871C8716E
:102EA000704700002B000080FCA500085D0000209A
:102EB0004C00002010B50446112C6ED2DFE804F05F
:102EC000AA09131D27313B454F59636E78828C96B2
:102ED000A0000721FE48FFF75FFC6A21FC48801C28
:102EE000FFF75AFCA0E00721F948FFF755FCA021A5
:102EF000F748801CFFF750FC96E00921F448FFF7E3
:102F00004BFCA021F248801CFFF746FC8CE0092115
:102F1000EF48FFF741FCFF21ED48801CFFF73CFC28
:102F200082E00D21EA48FFF737FCA021E848801C29
:102F3000FFF732FC78E00B21E548FFF72DFCA021DC
:102F4000E348801CFFF728FC6EE00E21E048FFF705
:102F500023FCA021DE48801CFFF71EFC64E00D214D
:102F6000DB48FFF719FC8121D948801CFFF714FCCE
:102F70005AE00F21D648FFF70FFC4121D448801CAE
:102F8000FFF70AFC50E00F21D148FFF705FC812133
:102F9000CF48801CFFF700FC46E03BE01321CC4803
:102FA000FFF7FAFB1121CA48801CFFF7F5FB3BE055
:102FB0001321C748FFF7F0FB2121C548801CFFF70C
:102FC000EBFB31E01321C248FFF7E6FB4121C0488B
:102FD000801CFFF7E1FB27E01321BD48FFF7DCFB76
:102FE0008121BB48801CFFF7D7FB1DE00921B848B1
:102FF000FFF7D2FBFF21B648801CFFF7CDFB13E0A3
:103000001521B348FFF7C8FBFF21B148801CFFF72B
:10301000C3FB09E00721AE48FFF7BEFB2146AC48E1
:10302000801CFFF7B9FB00BF00BF10BD70B505469F
:103030000C4600260DB9262500E052250220FFF798
:1030400039FF0321A2480838FFF7A6FB0821A04852
:103050002138FFF70FFC07219D481B38FFF79CFB29
:10306000FFF714FF9B480068057001209A49C8705B
:103070009A480268974801681E20FFF74EFD0646F1
:1030800016B1002020700DE093484079102804D03C
:10309000002020706FF00A0604E000268F480068C8
:1030A00000782070304670BD2DE9F04F85B0824623
:1030B0000C4616464FF00009C84600270020049031
:1030C000002503900120FFF7F5FE282180481038E5
:1030D000FFF762FB08217E482138FFF7CBFB002079
:1030E0000490E3E0FFF7D2FE032179480838FFF7A8
:1030F00053FB2046E11704EB5171C910A4EBC10149
:10310000CFB2CFB147EA0710C1B271481B38FFF701
:1031100043FB2046E11704EB5171C910491C01F033
:10312000FF08072F0ED193206B4908703946684875
:103130001B38FFF731FB05E02046E11704EB517126
:10314000C1F3C7086348006880F800A02046E11773
:1031500004EB5171C910202202EB011139445D4A80
:1031600012685170002506E0715D5A480268A81C7B
:103170001154681CC5B24545F6DB08F102005649FA
:10318000C87056480268534801681E20FFF7C5FC06
:103190008146072F33D100200090002514E04F48CE
:1031A000006810F805B04D480068405DC5F10701A2
:1031B00088406A1C009911410843484909684855EC
:1031C000CDF800B0681CC5B243480079A842E6DCDF
:1031D0004148407940490979401A3F4948710846B9
:1031E000C07960B10846C079801D092190FBF1F0DB
:1031F000C0F107003849C97908443749C871B9F1A5
:10320000000F03D009F1180000284FD1324840794F
:10321000C4F12801884202D06FF00A0946E000207C
:1032200003905FB1A8F10100305C2C49096809786E
:103230000843A8F1010170540120039000250DE01E
:10324000B8F1040F00DD0DE0039828442349096814
:10325000085C08EB05017054681CC5B2C8F1040095
:10326000A842EDDC00BF09F11800C0B130787178D8
:103270004840B1784840F1784840029016480079BB
:10328000401E16490968095C0191DDE90110884278
:1032900002D06FF0070909E00120049006E00E4813
:1032A000C0792044C01BC4B24FF00009049818B97B
:1032B000B9F1000F3FF416AFB9F1000F02D008A02A
:1032C00000683060202102481038FFF7D3FA0BE085
:1032D0002A000080540000204C00002058000020EC
:1032E0003030303000000000484605B0BDE8F08FB7
:1032F0002DE9F04105460E4614460120FFF7DAFDA0
:103300000F21FE48FFF748FA0821FC481938FFF75B
:10331000B1FA0027FFF7BAFDF94800680570702080
:10332000F74909684870F64800683168C0F802102B
:10333000F34800688078F2490968C9784840F04944
:10334000096809794840EE49096849794840EC49DB
:10335000096888710720EB49C870EB480268E848A3
:1033600001681E20FFF7D9FB07460020207057B9DF
:10337000E4484079082802D06FF00A0703E0E248E9
:103380000068007820703846BDE8F0812DE9F041F2
:1033900005464FF000080120FFF78CFDFFF779FA92
:1033A000FFF774FD002416E0285D00F00F06285D8D
:1033B0000711F04346EA0010012101EB4401D04A15
:1033C00012685054F84347EA0010CD49096801F8E3
:1033D0001400601CC4B2062CE6DB0C20C949C8707E
:1033E000C9480268C64801681920FFF796FB804665
:1033F0004046BDE8F0812DE9F04105460E461746EE
:103400000024BE481838FFF704FA00F0400444B125
:1034100004F0400010B16FF0080440E06FF00304C6
:103420003DE00720FFF746FDB54800680570B44849
:1034300000684770B24800683168C0F80210FFF7B2
:1034400025FD0620AF49C870AF480268AC48016846
:103450000C20FFF762FB040021D1A8481D38FFF7BC
:10346000D8F900F0070010B16FF00A0417E0FFF779
:103470000DFD0020A349C870A3480268A048016858
:103480001420FFF74AFB040009D19C481938FFF7C4
:10349000C0F900F0080000B101E06FF0030420461D
:1034A000BDE8F08170B505460E460024FFF7F1F93E
:1034B0000320FFF7FFFC0F219048FFF76DF9FFF79E
:1034C000E5FC30208E49096808708D480068457019
:1034D00002208C49C8708C480268894801681E2007
:1034E000FFF71BFB0446F4B1601CB0B1854840797E
:1034F000042812D184480068007800F00F00824947
:103500000968087080480068007800F00A0010B967
:103510006FF0090401E06FF0050410227BA1304632
:1035200005F0DDFC11E077480079102807D06FF036
:103530000B04102275A1304605F0D1FC05E01022E5
:1035400071480168304605F0CAFC0120FFF7B2FC63
:10355000204670BD70B505460E4600240420FFF7D6
:10356000A9FC0F216548FFF717F9FFF78FFCA02092
:103570006349096808706248006845700220614923
:10358000C870614802685E4801681E20FFF7C5FAEE
:103590000446601CF0B15B484079042802D06FF00B
:1035A0000A0417E058480068007800F00F005649F8
:1035B0000968087054480068007810B10A2805D1DD
:1035C00002E06FF0090404E0002402E06FF005045B
:1035D00000BF00BF002C39D10320FFF76BFCFFF7C1
:1035E00055FC102231464648006805F078FC102052
:1035F0004449C87044480268414801681E20FFF7EA
:103600008CFA0446601CF0B13E484079042802D090
:103610006FF00A0417E03C480068007800F00F00E3
:1036200039490968087038480068007810B10A28DC
:1036300005D102E06FF00E0404E0002402E06FF018
:10364000050400BF00BF0120FFF734FC204670BD19
:103650002DE9F04105460E46174698460024012004
:10366000FFF728FCFFF712FC254800680570244886
:103670000068467002202349C87023480268204829
:1036800001681E20FFF749FA0446601C18B31D4864
:103690004079042802D06FF00A041CE01A48006840
:1036A000007800F00F001849096808701648006893
:1036B000007820B1012807D00A2808D102E06FF075
:1036C000090407E0002405E06FF07B0402E06FF0DE
:1036D000050400BF00BF6CBB0420FFF7EBFBFFF746
:1036E000D5FB074800683968016004200549C870A7
:1036F00005480268024801681E2011E0220000808F
:10370000540000204C0000205800002030303030A1
:103710003030303030303030303030300000000069
:10372000FFF7FBF90446FCB9F6484079042802D0BB
:103730006FF00A041BE0F4480068007800F00F0006
:10374000F14909680870F0480068007810B1012854
:1037500006D102E06FF0090405E06FF07B0402E09F
:103760006FF0050400BF02E0601C00B9002474BBC8
:10377000FFF78CFBB020E54909680870E348006852
:1037800080F801800220DF49C870DF480268DF4806
:1037900001681E20FFF7C1F90446601CB8B1D94882
:1037A0004079042802D06FF00A041DE0D648006872
:1037B000007800F00F00D44909680870D24800680A
:1037C000007828B1012808D00A2809D103E00BE0CD
:1037D0006FF0090407E0002405E06FF07B0402E0CD
:1037E0006FF0050400BF00BF2046BDE8F08110B5B2
:1037F0006FF005040120FFF75DFBFFF747FB50204A
:10380000C249096808700020C04909684870022050
:10381000BC49C870BC480268BC4801681E20FFF75C
:103820007CF9044624B1601C08B11A3000B90024A8
:103830000021B748FEF7B0FF204610BD2DE9F04744
:1038400080460D4616461C46DDE9089A0027B9F168
:10385000000F07D00F21AE482130FEF79DFFA81EB4
:10386000C5B204E00321AA482130FEF795FF0AF013
:10387000FF00FFF71FFBFFF70CF8FFF707FB002D1A
:103880000CDDA048C570324641461E20FFF745F9C1
:1038900007462FB99B480079207001E06FF03B0785
:1038A0006FB9B9F1000F0CD02078801C2070002176
:1038B0002078801E31542078401E315401E00020D1
:1038C0002070F8B2BDE8F0872DE9F04FA1B0804636
:1038D000894615461E464FF0000AD3460020209028
:1038E00005901220049000BF0027002003900D20B7
:1038F00099FBF0F000F0FF0B0D2099FBF0F100FBBD
:103900001190C0B2209000BF57E08248007818B9EB
:1039100001208049087002E000207E4908707D493E
:103920000978049808438DF84C000AEB8A0000EBF4
:10393000CA0000EB08010D220DF14D0005F0CFFA91
:103940000C20012105AB06AACDE90010102113A817
:10395000FFF774FF04461CB99DF8140003281DDA14
:103960000320FEF783FB6B48007840F0B2008DF82F
:103970004C000C20012105AB06AACDE90010032163
:1039800013A8FFF75BFF04461CB99DF81400032839
:1039900004DA4CF2020021B0BDE8F08F9DF8180067
:1039A0005C49097841F0A201884202D04CF2020041
:1039B000F1E70AF1010000F0FF0ADA45A5DB5548FE
:1039C000007818B901205349087002E000205149DD
:1039D00008705048007840F002008DF84C000BEB66
:1039E0008B0000EBCB0000EB08010DF14D00209A9D
:1039F00005F075FA0C200121CDE900102098C01CBB
:103A0000C1B205AB06AA13A8FFF718FF04461CB9FC
:103A10009DF8140003281BDA0320FEF727FB3D481E
:103A2000007840F0B2008DF84C000C20012105AB6D
:103A300006AACDE90010032113A8FFF7FFFE0446F4
:103A40001CB99DF81400032802DA4CF20200A2E728
:103A500000BF9DF8180000F0120012282FD107EBCC
:103A6000870101EBC70148190D220DF1190105F07D
:103A700036FA2848007818B901202649087002E073
:103A80000020244908702348007840F0A2008DF8F7
:103A90004C000520012105AB06AACDE90010032149
:103AA00013A8FFF7CBFE04461CB99DF814000328A9
:103AB00002DA4CF202006EE7781CC7B2C9E79DF843
:103AC0001410CA1E07EB870101EBC70148190DF15D
:103AD000190105F004FA07EB870000EBC7009DF819
:103AE00014100844C01E30703078801E285C03908B
:103AF0003078401E295C039801EB002080B20390CF
:103B0000039848E74C000020580000205400002093
:103B1000010000805E0000202DE9F04105460E46C0
:103B20001746FEF7B1FD3046FFF730FC044614B1EE
:103B30002046BDE8F081A806020E39466020FFF756
:103B40005AFC04460CB12046F3E70020F1E710B51B
:103B50001021F848FEF77FFE10BD10B5002410219B
:103B6000F448FEF787FE0A20FEF78DFAF148FEF7CB
:103B700050FE0446082C10D07CB11021ED48FEF711
:103B800079FE0A20FEF77FFAEA48FEF742FE044675
:103B9000082C02D00CB1FEF782FE10BD70B50546B0
:103BA0000024FEF771FD00BF04E02046FEF731FE61
:103BB0002855641C402CF8D370BD2DE9F047804691
:103BC0000D4616461C46DDE9089A0027B9F1000F9C
:103BD00007D00F21D7481930FEF7DEFDA81EC5B269
:103BE00004E00321D3481930FEF7D6FD0AF0FF00A8
:103BF000FFF760F9FEF74DFEFFF748F9002D0CDDE9
:103C0000CD48C570324641461E20FEF786FF074666
:103C10002FB9C9480079207001E06FF03B0767B900
:103C2000B9F1000F09D02078801C20700021207885
:103C3000801E31542078401E3154F8B2BDE8F08720
:103C40002DE9F04FA5B08046894615461E464FF037
:103C5000000A00202490239008901220079000BFB3
:103C60000027002006908346B44A07CA03AB07C367
:103C70000D2099FBF0F0C0B224900D2099FBF0F1DB
:103C800000FB1190C0B2239000BF57E0AC48007811
:103C900018B90120AA49087002E00020A84908705C
:103CA000A7490978079808438DF858000AEB8A005D
:103CB00000EBCA0000EB08010D220DF1590005F0E0
:103CC0000EF90C20012108AB09AACDE90010102142
:103CD00016A8FFF772FF04461CB99DF820000328C0
:103CE0001DDA0320FEF7C2F99548007840F0B200D3
:103CF0008DF858000C20012108AB09AACDE900106D
:103D0000032116A8FFF759FF04461CB99DF82000AF
:103D1000032804DA4CF2020025B0BDE8F08F9DF8CC
:103D200024008749097841F0A201884202D04CF270
:103D30000200F1E70AF1010000F0FF0A2498824531
:103D4000A4DB7F48007818B901207D49087002E0A3
:103D500000207B4908707A48007840F002008DF816
:103D60005800249800EB800202EBC00000EB080131
:103D70000DF15900239A05F0B2F80C200121CDE98C
:103D800000102398C01CC1B208AB09AA16A8FFF7FF
:103D900014FF04461CB99DF82000032821DA4FF0D7
:103DA000000B14E00C20012108AB09AACDE900109A
:103DB000032103A8FFF701FF04461CB19DF8200072
:103DC000032800DD06E00BF1010000F0FF0BBBF162
:103DD0000A0FE7DB00BFBBF10A0F02DB4CF2020067
:103DE0009AE700BF9DF8240000F0120012282FD19E
:103DF00007EB870101EBC70148190D220DF12501E1
:103E000005F06DF84E48007818B901204C4908704B
:103E100002E000204A4908704948007840F0A200BA
:103E20008DF858000C20012108AB09AACDE900103B
:103E3000032116A8FFF7C1FE04461CB99DF8200017
:103E4000032802DA4CF2020066E7781CC7B2C9E721
:103E50009DF82010CA1E07EB870101EBC701481926
:103E60000DF1250105F03BF807EB870000EBC700DB
:103E70009DF820100844C01E30703078801E285CE9
:103E800006903078401E295C069801EB002080B235
:103E90000690069840E770B5A2B000200790002475
:103EA000002600252648007818B90120244908700A
:103EB00002E00020224908702148007840F002000A
:103EC0008DF854001FA00168CDF8551000798DF8C9
:103ED00059000C20012107AB08AACDE900100821E8
:103EE00015A8FFF76AFE9DF8200000F0F000F0280A
:103EF00039D19DF81C2008A902A805F035F89DF8D5
:103F00001C60002424E00C20012107AB08AACDE9A5
:103F10000010314602A8FFF750FE9DF81C00001F5C
:103F200008A9085C902811D19DF81C00C01E085CEF
:103F300060B910E0090000804C0000200CA60008C9
:103F40005E000020800E000000000000601C84B2B3
:103F5000B4F57A7FD7DB00BFB4F57A7F03DB4CF290
:103F6000020022B070BD9DF81C00001F08A90D5C66
:103F70009DF81C00C01E085C00EB052085B2284699
:103F8000EFE700002DE9F04704460E461746984635
:103F90004FF00009ECB11C2E1BD3254604F058FC51
:103FA0008146A6F11800E881E9892C4605F1180040
:103FB0000844A86005F11800286068600020A88106
:103FC0002F61C5F81480484604F046FC0120BDE886
:103FD000F087FF20FBE72DE9F04106460D4600275C
:103FE0004FF0FF082DB32C4604F032FC0746A089A1
:103FF000002812DD2068007830702068401C2060A6
:10400000A1682068884202D304F118002060A089CA
:10401000401EA0814FF0010808E04FF0040820691D
:1040200020B121463046226990478046384604F048
:1040300013FC4046BDE8F0812DE9F04105460E46EF
:1040400000274FF0FF0835B32C4604F001FC07466B
:10405000A089E189884211DA606806706068401CB6
:104060006060D4E90101884202D304F11800606065
:10407000A089401CA0814FF0010809E04FF008081A
:10408000606928B10122314620466369984780461D
:10409000384604F0E1FB4046BDE8F08170B50446C7
:1040A0000025002634B104F0D3FB0546A689284636
:1040B00004F0D2FB304670BD70B5044600250026E2
:1040C00034B104F0C5FB0546E689284604F0C4FB7C
:1040D000304670BD70B5044600266CB1254604F02C
:1040E000B7FB06462C4605F11800286068600020E2
:1040F000A881304604F0B0FB70BD034600BF00202D
:10410000704700B587B0AFF20D0300224FF4806115
:10411000FA48FFF737FFAFF21D0300224FF480612A
:10412000F748FFF72FFF012144F2040001F046FF9A
:10413000F44801F0A7FF4FF40070ADF81800032019
:104140008DF81A0018208DF81B0006A9EE4801F022
:1041500079FC4FF48060ADF8180003208DF81A0048
:1041600004208DF81B0006A9E74801F06BFC4FF412
:10417000E13002900020ADF80C00ADF80E00ADF873
:104180001000ADF814000C20ADF8120002A9DD48B3
:1041900001F0BBFF25208DF8040003208DF80500F9
:1041A00002208DF8060001208DF8070001A801F01B
:1041B00080FB012240F22551D24802F03EF8012155
:1041C000D04802F02EF807B000BD2DE9FF410746A8
:1041D0000D4616461C46FEF757FA0097082D03D1E8
:1041E0000020ADF8040003E04FF48050ADF8040067
:1041F000012E03D10020ADF8060003E04FF400507B
:10420000ADF806001CB90020ADF808000AE0012C4A
:1042100004D14FF4C060ADF8080003E04FF48060B3
:10422000ADF808000020ADF80C000C20ADF80A0035
:104230006946B44801F069FFBDE8FF8110B5FEF79B
:1042400023FAAF48FFF746FF10BD10B50446FEF74E
:104250001BFA2146AB4802F051F800BF4021A948A3
:1042600002F0BAF80128F9D110BD70B505460E4626
:104270000024FEF709FA002240F22551A14801F07E
:10428000DCFF00BF04E0285DFFF7DFFF601C84B2A5
:10429000B442F8DB012240F225519A4801F0CDFFEB
:1042A00070BD38B500240020009040F2255195489B
:1042B00002F0A8F838B1934802F024F8C4B22146BD
:1042C0008F48FFF7B9FE40F227718E4802F09AF846
:1042D000B0B18A496846FFF77EFE012805D19DF8F6
:1042E0000010884802F00AF80AE040F22771854879
:1042F00002F0B2F8002240F22771824801F09DFFDF
:1043000038BD70B505460E460024FEF7BDF900BF66
:1043100004E0285DFFF799FF601C84B2B442F8DB2B
:1043200070BD2DE9F84305460F469046994600209A
:10433000009000240026FEF7A7F900BF70496846E8
:10434000FFF749FE012806D19DF800202046611C98
:104350008CB22A541EE0FEF797F9B8F1000F06D18F
:10436000052300221146104604F0CCF9E6E7761C3E
:104370000520B8FBF0F0B04205D2002028553C8063
:10438000FF20BDE8F883052300221146104604F003
:10439000B9F9D3E700BF002600BF59496846FFF7C7
:1043A0001AFE012807D19DF800202046611C8CB21E
:1043B0002A540026F1E7FEF767F9761C052099FBE1
:1043C000F0F0B04203D2002028553C80D9E7052305
:1043D00000221146104604F095F9DEE7034600BFBF
:1043E0000020704700B587B0AFF20F030022802194
:1043F0004648FFF7C7FDAFF21B0300228021444867
:10440000FFF7C0FD0121042001F0D8FD012148047F
:1044100001F0E1FD3F4801F035FE0420ADF8180041
:1044200003208DF81A0018208DF81B0006A93648C5
:1044300001F008FB0820ADF8180003208DF81A00E1
:1044400004208DF81B0006A92F4801F0FBFA4FF459
:10445000164002900020ADF80C00ADF80E00ADF84B
:104460001000ADF814000C20ADF8120002A9294884
:1044700001F04BFE26208DF8040003208DF8050086
:104480008DF8060001208DF8070001A801F011FA4F
:10449000012240F225511F4801F0CFFE01211D48A5
:1044A00001F0BFFE07B000BD2DE9FF4107460D46F4
:1044B00016461C46FEF7E8F80097082D03D10020A9
:1044C000ADF8040003E04FF48050ADF80400012E75
:1044D00003D10020ADF8060003E04FF40050ADF822
:1044E00006001CB90020ADF8080019E0012C13D11A
:1044F0004FF4C060ADF8080012E00000042900206D
:10450000842D00200038014000080140042D0020C7
:1045100084310020004400404FF48060ADF8080072
:104520000020ADF80C000C20ADF80A006946F848F0
:1045300001F0EBFDBDE8FF8110B5FEF7A5F8F548E9
:10454000FFF7C8FD10BD10B50446FEF79DF82146E3
:10455000F148FFF771FD012240F22771EC4801F0AC
:104560006CFE10BD70B505460E460024FEF78CF8B3
:1045700000BF04E0285DFFF7E6FF601C84B2B44290
:10458000F8DB70BD38B500240020009040F22551C2
:10459000DF4801F037FF38B1DD4801F0B3FEC4B2A7
:1045A0002146DC48FFF748FD40F22771D84801F06A
:1045B00029FFB0B1D8496846FFF70DFD012805D1A4
:1045C0009DF80010D24801F099FE0AE040F22771F0
:1045D000CF4801F041FF002240F22771CC4801F0A2
:1045E0002CFE38BD70B505460E460024FEF74CF88B
:1045F00000BF04E0285DFFF7A6FF601C84B2B44250
:10460000F8DB70BD2DE9F84305460F469046994604
:104610000020009000240026FEF736F800BFBD49B8
:104620006846FFF7D8FC012806D19DF800202046F7
:10463000611C8CB22A541CE0B8F1000F06D105238E
:1046400000221146104604F05DF8E8E7761C0520CC
:10465000B8FBF0F0B04205D2002028553C80FF2086
:10466000BDE8F883052300221146104604F04AF8FD
:10467000D5E700BF002600BFA6496846FFF7ABFCA0
:10468000012807D19DF800202046611C8CB22A54D5
:104690000026F1E7761C052099FBF0F0B04203D22A
:1046A000002028553C80DBE70523002211461046F8
:1046B00004F028F8E0E7034600BF0020704700B58B
:1046C00087B0AFF20D03002204219448FFF75AFC93
:1046D000AFF21D03002204219148FFF753FC012192
:1046E000082001F06BFC0121880401F074FC8D4866
:1046F00001F0C8FC4FF48060ADF8180003208DF87D
:104700001A0018208DF81B0006A9874801F09AF9B5
:104710004FF40060ADF8180003208DF81A00042053
:104720008DF81B0006A9804801F08CF94FF4165053
:1047300002900020ADF80C00ADF80E00ADF81000AE
:10474000ADF814000C20ADF8120002A9754801F074
:10475000DCFC27208DF8040003208DF805000020E4
:104760008DF8060001208DF8070001A801F0A1F8DE
:10477000012240F225516B4801F05FFD012169489B
:1047800001F04FFD07B000BD2DE9FF4107460D4682
:1047900016461C46FDF778FF0097082D03D1002030
:1047A000ADF8040003E04FF48050ADF80400012E92
:1047B00003D10020ADF8060003E04FF40050ADF83F
:1047C00006001CB90020ADF808000AE0012C04D155
:1047D0004FF4C060ADF8080003E04FF48060ADF81E
:1047E00008000020ADF80C000C20ADF80A00694666
:1047F0004C4801F08AFCBDE8FF8110B5FDF744FF8D
:104800004748FFF767FC10BD10B5044621464548F0
:1048100001F074FD00BF4021424801F0DDFD012898
:10482000F9D110BD70B505460E460024FDF72CFFEA
:10483000002240F225513B4801F0FFFC00BF04E09C
:10484000285DFFF7E1FF601C84B2B442F8DB01226F
:1048500040F22551334801F0F0FC70BD38B500241A
:104860000020009040F225512E4801F0CBFD38B1D8
:104870002C4801F047FDC4B221462948FFF7DCFB74
:1048800040F22771274801F0BDFDB0B123496846C9
:10489000FFF7A1FB012805D19DF80010214801F088
:1048A0002DFD0AE040F227711E4801F0D5FD0022DF
:1048B00040F227711B4801F0C0FC38BD70B50546B9
:1048C0000E460024FDF7E0FE00BF04E0285DFFF780
:1048D0009BFF601C84B2B442F8DB70BD2DE9F84345
:1048E00005460F4690469946002000900024002679
:1048F000FDF7CAFE00BF0A496846FFF76CFB0128B6
:1049000014D19DF800202046611C8CB22A542AE064
:104910000044004084310020042D0020600000206D
:104920006400002000480040000C0140B8F1000F76
:1049300006D1052300221146104603F0E3FEDAE714
:10494000761C0520B8FBF0F0B04205D200202855B7
:104950003C80FF20BDE8F883052300221146104665
:1049600003F0D0FEC7E700BF002600BF0F4968462E
:10497000FFF731FB012807D19DF800202046611C7C
:104980008CB22A540026F1E7761C052099FBF0F042
:10499000B04203D2002028553C80DBE705230022EB
:1049A0001146104603F0AEFEE0E700006400002070
:1049B00000BF704708B5FDF767FE0121042001F034
:1049C000FDFA0220ADF8000010208DF8030002204F
:1049D0008DF802006946F64801F034F80221F448E7
:1049E00001F0DDF80223012209214FF41640FFF700
:1049F0005BFD0420FFF7DCFF08BD2DE9F041064612
:104A00000C4615460027FDF73FFE16B1FF20BDE816
:104A1000F0810420FFF7CCFF0221E54801F0C1F846
:104A20000320FDF723FB0221E14801F0B8F805233C
:104A3000642229462046FFF7E5FD07460FB1FF2017
:104A4000E5E720783B280FD1607800F0F00060287F
:104A50000AD1607800F00F072988381D814201D102
:104A60000020D4E7FF20D2E7FF20D0E710B50446AE
:104A70002146D04801F042FC00BF4021CD4801F062
:104A8000ABFC0028F9D010BD70B505460E460024D9
:104A9000FDF7FAFD002240F22771C64801F0CDFB78
:104AA00000BF04E0285DFFF7E1FF601C84B2B44260
:104AB000F8DB012240F22771BE4801F0BEFB70BD59
:104AC000F8B504460D4600200090002600BFBA4904
:104AD0006846FFF780FA012804D19DF80000207095
:104AE0000020F8BD1DB90120FDF7C0FAEFE7761CE4
:104AF000AE4203D900202070FF20F2E70120FDF72D
:104B0000B5FAE4E72DE9FE4304460D4616461F4676
:104B10004FF0000800BF31466846FFF7D1FF8046DE
:104B2000B8F1000F05D0002020702880FF20BDE8DC
:104B3000FE839DF8000000F0F000602805D09DF88D
:104B4000000000F0F000902816D101210DF10100C5
:104B5000FFF7B6FF8046B8F1000F06D09DF80000C1
:104B60002070012028800020E1E7BDF800002080AF
:104B7000022028800020DAE79DF800002070012044
:104B800028800020D3E72DE9F04F8DB0804689467C
:104B900092461C46169D4FF0000B0027FDF774FD52
:104BA000B8F1000F04D04CF202000DB0BDE8F08F58
:104BB000BAF1040F02DA4CF20200F6E7B8F1000F86
:104BC00001D103260AE0B8F1010F01D1012605E069
:104BD000B8F1020F01D1052600E00726BAF1040F53
:104BE00026D13046FFF7E4FED9F8000000900020FF
:104BF0008DF8050005214846FFF746FF711CC8B235
:104C0000FFF7D6FE0523642229462046FFF7FAFC6B
:104C10008346BBF1000F02D04CF20200C5E7022030
:104C200028802778607800EB072087B23846BCE7F9
:104C3000BAF1050F2DD13046FFF7BAFE05214846DF
:104C4000FFF722FF711CC8B2FFF7B2FE05236422F2
:104C500029462046FFF7D6FC8346BBF1000F02D061
:104C60004CF20200A1E72888022807DD207899F895
:104C70000110884202D04CF2020096E72888801E7C
:104C8000275C2888401E205C00EB072087B238464E
:104C90008BE73046FFF78CFE05214846FFF7F4FE10
:104CA000711CC8B2FFF784FE052364222946204602
:104CB000FFF728FF8346BBF1000F02D04CF2020041
:104CC00073E72888012862D13046FFF771FEAAF108
:104CD000050081B209F10500FFF7D6FE711CC8B2CC
:104CE000FFF766FE0523642229462046FFF70AFFE8
:104CF0008346BBF1000F02D04CF2020055E7288832
:104D0000022841D12078612833D12C4800680090D6
:104D100060788DF804003046FFF74AFE05216846AA
:104D2000FFF7B2FE711CC8B2FFF742FE05236422F2
:104D300029462046FFF766FC8346BBF1000F02D0F0
:104D40004CF2020031E7288802280FDD20789DF818
:104D5000011088420AD12888801E275C2888401EBE
:104D6000205C00EB072087B238461EE74CF20200B9
:104D70001BE72888801E275C2888401E205C00EBEB
:104D8000072087B2384610E74CF202000DE728886A
:104D900002280AD12888801E275C2888401E205CB3
:104DA00000EB072087B23846FFE64CF20200FCE633
:104DB00000080140004400408431002035A600086E
:104DC0002DE9F04705460E46174698464FF0000974
:104DD000AA46002400BF39465046FFF771FE8146BF
:104DE000B9F1000F05D0002028703080FF20BDE809
:104DF000F087601C84B200BF0AEB04000121FFF7BA
:104E00005FFE8146B9F1000F02D034800020EEE74A
:104E1000601C84B2F0E72DE9F04106460C461546C9
:104E20000027FDF731FC16B1FF20BDE8F08104201A
:104E3000FFF7BEFD0221144800F0B3FE0120FDF78C
:104E400015F90221104800F0AAFE05236422294624
:104E50002046FFF7B5FF07460FB1FF20E5E72078B2
:104E60003B280FD1607800F0F00060280AD160780C
:104E700000F00F072988381D814201D10020D4E7B6
:104E8000FF20D2E7FF20D0E70008014008B501214C
:104E9000082001F093F88020ADF8000014208DF870
:104EA000030003208DF802006946FD4800F0CAFDAA
:104EB0008021FB4800F073FE4020ADF80000142074
:104EC0008DF8030003208DF802006946F44800F0D5
:104ED000B9FD4021F24800F062FE012002F04DFED3
:104EE000F049086008BD10B50520FDF7EDF810BDCC
:104EF00038B500248020ADF8000048208DF803006C
:104F000003208DF802006946E54800F09BFDFFF79D
:104F1000EAFF8021E24800F028FE00B900E0012409
:104F20008020ADF8000014208DF8030003208DF8D8
:104F300002006946DA4800F085FDFFF7D4FF2046FD
:104F400038BD38B500244020ADF8000048208DF869
:104F5000030003208DF802006946D14800F072FD7D
:104F6000FFF7C1FF4021CE4800F0FFFD00B900E08F
:104F700001244020ADF8000014208DF80300032028
:104F80008DF802006946C64800F05CFDFFF7ABFFF4
:104F9000204638BD10B50520FDF796F810BD10B5B8
:104FA000FDF772FBFFF7F6FF8021BD4800F0F7FD2B
:104FB000FFF7F0FF4021BA4800F0F1FDFFF7EAFFEC
:104FC000FFF796FF08B9FF2010BDFFF7BAFF08B939
:104FD000FF20F9E78021B24800F0E3FDFFF7DAFF98
:104FE0004021AF4800F0DDFDFFF7D4FF0020EBE7E4
:104FF00010B5FDF749FBFFF7CDFF8021A84800F071
:10500000CEFDFFF7C7FF4021A54800F0C8FDFFF720
:10501000C1FF8021A24800F0C4FDFFF7BBFF402183
:105020009F4800F0BEFDFFF7B5FF002010BD10B592
:10503000FDF72AFB80219A4800F0B3FDFFF7AAFF95
:105040004021974800F0ABFDFFF7A4FF8021944872
:1050500000F0A5FDFFF79EFF0520FDF707F810BD46
:1050600010B5FDF711FBFFF795FF80218C4800F08C
:1050700098FDFFF78FFF4021894800F090FDFFF772
:1050800089FF4021864800F08CFDFFF783FF10BDAB
:1050900010B5FDF7F9FAFFF77DFF8021804800F099
:1050A0007EFDFFF777FF40217D4800F078FDFFF798
:1050B00071FF40217A4800F074FDFFF76BFF10BDCF
:1050C00010B5FDF7E1FAFFF765FF4021744800F0E5
:1050D00066FDFFF75FFFFFF70BFF044640217048B6
:1050E00000F05FFDFFF756FF0CB9002010BDFF2058
:1050F000FCE770B50546FDF7C7FA00241DE005FA88
:1051000004F000F0800020B18021654800F047FDE8
:1051100003E08021624800F044FDFFF73BFF40219F
:105120005F4800F03CFDFFF735FF40215C4800F090
:1051300038FDFFF72FFF601CC4B2082CDFDB802195
:10514000574800F02CFDFFF725FF4021544800F0A0
:1051500026FDFFF71FFFFFF7CBFE06464021504814
:1051600000F01FFDFFF716FF304670BD70B500243C
:10517000FDF78AFA80214A4800F011FD002515E06C
:105180004021474800F00BFDFFF704FF6006040EC6
:10519000FFF7AEFE012801D1601CC4B24021404897
:1051A00000F0FFFCFFF7F6FE681CC5B2082DE7DB38
:1051B000204670BD2DE9F84380460F4616469946B5
:1051C0000024002500200090FDF75EFA6A460021C9
:1051D0003448006802F057FDFFF7E1FE0446C4B111
:1051E000142513E0FFF723FFFFF7D9FE044614B19F
:1051F000681E85B200E00BE045B9FFF718FF2948AB
:10520000006802F0EFFDFF20BDE8F883002DE9D132
:1052100000BF4046FFF76DFF04463CB1FFF707FFB4
:105220002048006802F0DEFDFF20EDE73846FFF77A
:1052300060FF04463CB1FFF7FAFE1A48006802F02E
:10524000D1FDFF20E0E7FFF7AAFE08F10101C8B297
:10525000FFF74FFF04463CB1FFF7E9FE1148006835
:1052600002F0C0FDFF20CFE7002507E0FFF77EFF3B
:105270003070FFF7F5FE761C681C85B2A9F10100BD
:10528000A842F3DCFFF772FF3070FFF701FFFFF772
:10529000CEFE0448006802F0A5FD0020B4E700003F
:1052A000000C01407000002010B50446FDF7ECF939
:1052B0002CB94FF48051134800F073FC05E0012C29
:1052C00003D121030F4800F06AFC10BD08B501218D
:1052D000042000F073FE4FF48050ADF80000102061
:1052E0008DF8030002208DF802006946054800F0A1
:1052F000A9FB4FF48051034800F051FC0120FFF757
:10530000D3FF08BD00080140F8B507460E4600244B
:10531000002500200090FDF7B7F96A460021BD483E
:10532000006802F0B0FCFFF73AFE0446BCB1142559
:1053300012E0FFF77CFEFFF732FE044614B1681E50
:10534000C5B200E00AE03DB9FFF771FEB148006860
:1053500002F048FDFF20F8BD002DEAD100BF642017
:10536000FFF7C7FE04463CB1FFF761FEA94800689D
:1053700002F038FDFF20EEE73846FFF7BAFE04469C
:105380003CB1FFF754FEA348006802F02BFDFF205C
:10539000E1E73046FFF7ADFE04463CB1FFF747FEBC
:1053A0009C48006802F01EFDFF20D4E7FFF73FFE97
:1053B0009848006802F016FD0020CCE770B5012087
:1053C00002F0DBFB94490860002510E02021E0207A
:1053D000FFF79AFF044604B107E02021F020FFF711
:1053E00093FF044604B100E003E0681CC5B20A2D37
:1053F000ECDB00BF70BD70B50546FDF745F9AC7834
:105400000A2C05DB102C01DB122C01DDFF2070BD06
:10541000EC78312C01DDFF20F9E704F00F04092CB2
:1054200001DDFF20F3E72C79232C01DDFF20EEE7DF
:1054300004F00F04092C01DDFF20E8E76C79592CFA
:1054400001DDFF20E3E704F00F04092C01DDFF205C
:10545000DDE7AC79592C01DDFF20D8E704F00F041B
:10546000092C01DDFF20D2E70020D0E70146CA1752
:1054700001EB92729210A1EB820292B9642091FB2F
:10548000F0F200FB121050B94FF4C87091FBF0F22B
:1054900000FB121008B9012070470020FCE7012032
:1054A000FAE70020F8E7FEB5044600250026FDF7E0
:1054B000EBF807236A4631466420FFF77BFE05467A
:1054C0000DB1FF20FEBD9DF80000A0719DF8010008
:1054D00060719DF8020020719DF80400E0709DF855
:1054E0000500A0709DF8060060702020207000204C
:1054F000E8E7F8B5054600260024002000906A463B
:1055000000214548006802F0BEFB00BF0CE02846C1
:10551000FFF7C9FF06462EB93F48006802F062FC5B
:105520000020F8BD601CC4B20A2CF0DB3A480068C9
:1055300002F058FCFF20F4E710B504462046FFF7C0
:10554000D8FF10BD70B50446FDF79EF82021E0207D
:10555000FFF7DAFE05460DB1FF2070BDA1790020EE
:10556000FFF7D2FE05460DB1FF20F6E76179102066
:10557000FFF7CAFE05460DB1FF20EEE72179202096
:10558000FFF7C2FE05460DB1FF20E6E7E1784020B7
:10559000FFF7BAFE05460DB1FF20DEE7A1785020E7
:1055A000FFF7B2FE05460DB1FF20D6E76178602017
:1055B000FFF7AAFE05460DB1FF20CEE70020CCE79D
:1055C000F8B5054600260024002000906A46002118
:1055D0001148006802F057FB00BF0CE02846FFF7B7
:1055E000B1FF06462EB90C48006802F0FBFB002014
:1055F000F8BD601CC4B20A2CF0DB0748006802F05A
:10560000F1FBFF20F4E710B504462046FFF7D8FF72
:1056100010BD0000700000207400002008B50121BA
:10562000082000F0CBFC4FF48060ADF8000048206B
:105630008DF8030002208DF8020069465C4800F0F6
:1056400001FA4FF480615A4800F0A9FA4FF4006063
:10565000ADF8000048208DF8030002208DF802000C
:105660006946534800F0EEF94FF40061504800F0ED
:1056700096FA4FF48050ADF8000048208DF80300F2
:1056800002208DF802006946494800F0DBF94FF42A
:105690008051474800F083FA4FF40050ADF8000005
:1056A00048208DF8030002208DF80200694640482A
:1056B00000F0C8F94FF400513D4800F070FA4FF483
:1056C0008040ADF8000048208DF8030002208DF8DE
:1056D00002006946364800F0B5F94FF4804134487D
:1056E00000F05DFA4FF40040ADF8000048208DF85E
:1056F000030002208DF8020069462D4800F0A2F94F
:105700004FF400412A4800F04AFA4FF48070ADF897
:10571000000048208DF8030002208DF80200694641
:10572000234800F08FF94FF48071214800F037FAD8
:105730004FF40070ADF8000048208DF803000220FF
:105740008DF8020069461A4800F07CF94FF40071A8
:10575000174800F024FA08BD0246002000210AE0A4
:1057600042FA01F303F001031843072901DA430663
:10577000180E4B1CD9B20829F2DB704770B50C48E3
:1057800000F0FCF9C04384B204F4807020B900201A
:10579000084981F86A0003E00120064981F86A009F
:1057A00004F47E4425122846FFF7D6FF70BD0000A2
:1057B000000C0140D81C002010B50446FCF764FF23
:1057C0002CB94FF40061274800F0E9F905E0012CFD
:1057D00003D1E102234800F0E4F910BD08B501212E
:1057E000042000F0EBFB4FF40060ADF80000102047
:1057F0008DF8030002208DF802006946194800F078
:1058000021F94FF40061174800F0C9F90120FFF7B2
:10581000D3FF08BD10B50446FCF736FF0020FFF7A4
:10582000CBFF2046FCF72FFC0120FFF7C5FF10BD82
:1058300010B5FCF729FF0020FFF7BEFF6420FCF73E
:1058400022FC0120FFF7B8FF6420FCF71CFC0020BD
:10585000FFF7B2FF6420FCF716FC0120FFF7ACFF56
:1058600010BD000000080140094880470948004772
:10587000FEE7FEE7FEE7FEE7FEE7FEE7FEE7FEE700
:10588000FEE7FEE704480549054A064B704700005D
:105890008F060008ED00000810460020104C002084
:1058A000104800201048002031490143314A11605E
:1058B000704770B5002100230F22C47804B32D4C2B
:1058C000246804F4E064C4F5E064210AC1F104032F
:1058D000CA40447804FA03F1847814402143090152
:1058E000254C0678A155047804F01F050124AC402E
:1058F00005786D11AD0005F1E025C5F8004109E01E
:10590000047804F01F050124AC401C4D0678761184
:1059100045F8264070BD1A4A0A400243154B1B1F2A
:105920001A60704739B1134A121D12680243114BB5
:105930001B1D1A6006E00F4A121D126882430D4BB0
:105940001B1D1A607047042808D14FF0E021096937
:1059500041F004014FF0E022116107E04FF0E02137
:10596000096921F004014FF0E02211617047000045
:105970000000FA050CED00E000E400E080E100E04A
:1059800080FFFF1F10B50446CC48844208D1012196
:10599000042000F02DFB0021042000F029FB46E04C
:1059A000C748844208D10121082000F021FB0021D2
:1059B000082000F01DFB3AE0C248844208D10121D2
:1059C000102000F015FB0021102000F011FB2EE04C
:1059D000BD48844208D10121202000F009FB0021AC
:1059E000202000F005FB22E0B848844208D10121C4
:1059F000402000F0FDFA0021402000F0F9FA16E006
:105A0000B348844208D10121802000F0F1FA00213E
:105A1000802000F0EDFA0AE0AE48844207D101216F
:105A2000801500F0E5FA0021A01500F0E1FA10BDA4
:105A300010B50121084600F0DBFA0021012000F03A
:105A4000D7FA10BD2DE9F0410246002500260020BE
:105A500000230024002791F803C00CF00F0591F8F3
:105A600003C00CF0100CBCF1000F03D091F802C081
:105A70004CEA050591F800C0BCF1000F31D0146864
:105A800000202BE04FF0010C0CFA00F3B1F800C03D
:105A90000CEA03069E4220D183004FF00F0C0CFA53
:105AA00003F7BC4305FA03FC4CEA040491F803C075
:105AB000BCF1280F06D14FF0010C0CFA00FCC2F823
:105AC00014C00AE091F803C0BCF1480F05D14FF0B3
:105AD000010C0CFA00FCC2F810C0401C0828D1D3FD
