:020000040800F2
:1000000058490020115A00088D0600088F06000884
:1000100093060008970600089B06000800000000F1
:100020000000000000000000000000009F06000823
:10003000A106000800000000478A000855040008D7
:100040002B5A00082B5A00082B5A00082B5A00087C
:100050002B5A00082B5A00082B5A00082B5A00086C
:100060002B5A00082B5A00082B5A00082B5A00085C
:100070002B5A00082B5A00082B5A00082B5A00084C
:100080002B5A00082B5A00082B5A00082B5A00083C
:100090002B5A00082B5A00082B5A00082B5A00082C
:1000A0002B5A00082B5A00082B5A00082B5A00081C
:1000B0002B5A00082B5A00082B5A00082B5A00080C
:1000C0002B5A00082B5A00082B5A00082B5A0008FC
:1000D0002B5A00084345000825480008FD4A00083F
:1000E0002B5A00082B5A00082B5A000800F002F87F
:1000F00000F090F80AA090E8000C82448344AAF132
:100100000107DA4501D100F085F8AFF2090EBAE82F
:100110000F0013F0010F18BFFB1A43F0010318473B
:1001200058A9000078A90000103A24BF78C878C107
:10013000FAD8520724BF30C830C144BF04680C60ED
:10014000704700000023002400250026103A28BF35
:1001500078C1FBD8520728BF30C148BF0B60704739
:100160006E2909F0E680702908F0F18566290AF009
:100170009B8265290AF0988267290AF09582612995
:10018000AFF3008003681B0A28BF41F08001692992
:1001900008F06485642908F06185752908F05E859A
:1001A0006F2909F0CB81782908F0BD85E92909F08C
:1001B0006781E42909F06481F52909F06181EF295B
:1001C00009F0C881F82908F0BC850368DB0928BF5D
:1001D00041F08001632909F0E880732909F0ED807E
:1001E000E32909F04585F32909F04A850020704785
:1001F0001FB509F02BF80400002000210AF028FAAE
:10020000401C6060002000210AF038FAE0601FBD49
:1002100010B510BD09F066FD1146FFF7E9FF00F0CB
:10022000F5F809F031FE03B4FFF7F2FF03BC09F063
:1002300031FE000000B585B002F075FB03200021FF
:100240004FF48062874BCDE90132CDE903100920DC
:100250000346854A0090854808F005F803200021F0
:100260004FF48072824BCDE90132CDE903100720B3
:100270000346804A0090804807F0F5FF05B000BDB6
:1002800010B5002402F04FFB02F08DFD044634B19E
:1002900001207A49087008464088083048800020CC
:1002A0007649087105F074FB38B90120734908716B
:1002B000FE2005F0EEFA72490870704800780128B7
:1002C00001D1FF2010BD0020FCE710B50024B021B3
:1002D0006A4808F04FFF002068490870488008719C
:1002E00048718871C8713C20A1F87E005C21654886
:1002F00008F040FF4021644808F03CFF012007F06F
:1003000010FD62490860012007F00BFD604908609C
:10031000012007F006FD5F49086005F022F9044658
:10032000642094FBF0F0554981F83600642094FB7A
:10033000F0F100FB11400A2190FBF1F0C1B24F48EF
:1003400080F837100A2094FBF0F100FB1140C1B295
:100350004A4880F8381010BD10B502F0D3FA01F009
:1003600091FE02F0E5FA04F01CF804F071FC04F0D0
:1003700007FF05F025F904F08BFE05F031F805F0D4
:1003800084FA10BD002400BF06F0DAFBFFF7E4FF9B
:10039000032001F04BFE4FF47A7001F0FFFE0020C5
:1003A00001F044FEFFF791FFFFF76AFF04461CB11E
:1003B000022001F03BFE02E0012001F037FE03F0D5
:1003C00016FDFFF737FFFF2008F076F900BF002089
:1003D0008047FCE710B56FF0040005F088FB2E485D
:1003E00000682E49B0FBF1F441F2883044434FF0ED
:1003F000E020006940F002004FF0E021086108466B
:100400004461006940F00100086110BD00B585B08D
:1004100023A11F2008F0A2FD4FF4A06005F018FBF7
:10042000FFF7D8FF06F04FFA032000214FF40072C7
:100430001C4BCDE90132CDE90310052003461A4AD1
:100440000090AFF2BF0007F00EFF06F061FB002046
:1004500005B000BD10B506F04CFA06F090FB06F0B2
:1004600063FA10BDD8080020D41800208D0B0008B6
:10047000D8180020D41C00206B1C0008D81C0020B9
:100480004C000020881D0020E41D002000000020FA
:1004900004000020080000201000002000127A0054
:1004A00043000000D8000020D40800200CB5002034
:1004B000019000906C48006840F480306A49086000
:1004C00000BF6948006800F4003000900198401CAB
:1004D0000190009818B90198B0F5A06FF1D1624869
:1004E000006800F4003010B10120009001E000200D
:1004F00000900098012843D15C48006840F010004B
:100500005A4908600846006820F003000860084661
:10051000006840F002000860534840685249486053
:100520000846406848600846406840F4806048607B
:100530000846406820F47C1048600846406840F453
:10054000E81048600846006840F08070086000BF0E
:100550004548006800F000700028F9D04248406823
:1005600020F00300404948600846406840F002001F
:10057000486000BF3C48406800F00C000828F9D1F2
:100580000CBD10B5FFF792FF10BD10B536480068DE
:1005900040F001003449086008464068344908408A
:1005A0003149486008460068324908402E490860D1
:1005B0000846006820F4802008600846406820F45F
:1005C000FE0048604FF41F008860FFF7DAFF4FF02D
:1005D00000602949086010BD10B5002100200022EC
:1005E000214B5B6803F00C0121B1042906D00829D6
:1005F00028D107E0214B224C236027E01F4B204CE1
:10060000236023E0184B5B6803F47010164B5B68A3
:1006100003F48032022303EB904022B9194B434389
:10062000174C23600DE0104B5B6803F4003323B1DB
:10063000144B4343124C236003E0104B4343104CD4
:10064000236003E00D4B0E4C236000BF00BF064B40
:100650005B68C3F303130C4CE15C094B1B68CB4094
:10066000074C236010BD0000001002400020024033
:100670000000FFF8FFFFF6FE08ED00E000127A0030
:100680001000002000093D0014000020704700BF4A
:10069000FEE700BFFEE700BFFEE700BFFEE77047D2
:1006A000704700000246FC4890F86A0008B9002034
:1006B00070478A4201D80020FAE7FF20F8E77CB5AE
:1006C0000446002502F02FF9684604F0F4FD0546C3
:1006D0000DB1FF207CBD0098A060BDF80400A08192
:1006E0009DF80600A0730020F4E72DE9F0419AB0D0
:1006F00000240026002016901790189019900027CB
:1007000080460025069002F00EF9342109A808F071
:1007100031FDE248E2A109680160E34890F82D004C
:10072000C043DE490871E04890F82E00C04348718C
:10073000DD4A2D32002003F03FFBC4B21CB1FF2084
:100740001AB0BDE8F08116A9022002F0FBFFC4B286
:100750000CB1FF20F4E70422D4A10DF1620008F0EF
:1007600017FC002853D19DF86100E52802D0E62847
:1007700046D100E044E020208DF81C009DF85E008A
:1007800001F005FF8DF81D009DF85C0001F0FFFEF3
:100790008DF81E009DF85B0001F0F9FE8DF81F003A
:1007A0009DF85A0001F0F3FE8DF820009DF85900E5
:1007B00001F0EDFE8DF821009DF8580001F0E7FEF4
:1007C0008DF8220007A804F0DDFD9DF822009DF8B9
:1007D00021109DF820209DF81F30CDE90132CDE990
:1007E00003109DF81E0000909DF81D309DF81C2000
:1007F000B0A109A808F0CCF909A800F017FC00BFC7
:1008000000BF4FF4FA7004F0F7FEFF2098E7A64807
:10081000FFF755FF04460CB1FF2091E79DF8580003
:100820008DF818009DF859008DF819009DF86700A3
:100830008DF81A0006A801F08CFF04461CB104F0E4
:10084000E9FEFF207CE79DF862009749C8732020ED
:1008500081F852009DF85A0001F099FE924981F802
:1008600053009DF85B0001F092FE8F4981F854001F
:100870009DF85C0001F08BFE8B4981F8550000214A
:10088000894880F8561080F8571080F85810523078
:1008900001F011FE07468448083001F00CFE804646
:1008A00004F05FFE0646642096FBF0F07A4981F87A
:1008B0003600642096FBF0F100FB11600A2190FBEA
:1008C000F1F0C1B2744880F837100A2096FBF0F1BD
:1008D00000FB1160C1B2704880F8381090F8360003
:1008E000642148436C4991F8371001EB810100EB1A
:1008F0004101694890F838000844C5B279A000F079
:1009000095FB9DF859109DF8580001EB002279A144
:1009100009A808F03DF909A800F088FB9DF85C00E3
:1009200000909DF85B309DF85A2076A109A808F048
:100930002FF909A800F07AFB9DF8622078A109A898
:1009400008F026F909A800F071FB9DF8612078A154
:1009500009A808F01DF909A800F068FB2A4678A14B
:1009600009A808F015F909A800F060FB9DF86400DB
:100970009DF863109DF860209DF85F30CDE900324E
:10098000CDE902109DF85E309DF85D2070A109A8A8
:1009900008F0FEF809A800F049FB4348C07B012895
:1009A00006D002280AD0032814D004281AD117E050
:1009B0009DF85D003C4981F8240015E03946404629
:1009C000FFF770FE04461CB104F024FEFF20B7E6DA
:1009D0000020B5E69DF85D00334981F8240003E06E
:1009E0000020ADE6FF20ABE600BF9DF85D00A84209
:1009F00007D09DF85F00A84203D09DF86300A8428D
:100A00000BD139464046FFF74DFE04461CB104F0B9
:100A100001FEFF2094E6002092E604F0FBFDFF209B
:100A20008EE638B500240020009001F07CFF03F032
:100A3000E4F91D495131002002F048FCC4B244B130
:100A400019495131002002F041FCC4B20CB1FF2021
:100A500038BD154A2D320021932002F075FCC4B236
:100A60000CB1FF20F4E76A460F492D31932002F0C4
:100A70008FFDC4B20CB1FF20EAE70B4890F851009B
:100A8000042804D0084890F8510002287AD1FFF7D2
:100A90002CFE044678E075E0D81C0020D42200200B
:100AA0008F8E8D8C00000000881D0020000000004B
:100AB00000000000C9E8D6C3CAB1BCE43A20253022
:100AC0003258253032582D253032582D25303258A5
:100AD00020253032583A253032583A253032580DD8
:100AE0000A000000B6C1C8A1BFA8C6ACD0C5CFA23D
:100AF0002E0D0A00BFA8BAC53A20253035640D0A6C
:100B000000000000D3D0D0A7C6DA3A2025303264E6
:100B10002D253032642D253032640D0A000000008E
:100B2000BFA8C0E0D0CD3A20253032640D0A0000C5
:100B3000B7D6C7F8BAC53A20253033640D0A00008D
:100B4000B5A5D4AABAC53A20253033640D0A0000F1
:100B5000D4A4C9E8B5A5D4AA3A2025303364C2A5E7
:100B600025303264B2E32025303364C2A52530320B
:100B700064B2E32025303364C2A525303264B2E389
:100B80000D0A0000FF2063E7204661E7002400BF54
:100B900001F0C9FE00BF2021FE4805F0BAF8B8B93F
:100BA000002004F0FBFC0021084601F096FA00202A
:100BB00004F05CFA4FF4967001F0CEFA01210020A7
:100BC00001F08BFA012004F051FA012004F0E6FC58
:100BD000FFF727FF044602F05AFFC4B9002004F0D3
:100BE000DDFC0021084601F078FA002004F03EFA0E
:100BF0004FF4967001F0B0FA0121002001F06DFA77
:100C0000012004F033FA012004F0C8FCC3E70121FD
:100C1000002001F062FABEE770B505460E460024DA
:100C20003146284601F069FD04462046E11704EBF1
:100C30001161C1F30721A955E11704EB11610912F4
:100C4000A4EB0121CAB2711C6A5470BD10B5D24820
:100C5000D2A10A680260097901710521FFF7DCFF62
:100C60000721CD4803F09DFC10BD2DE9FF41002474
:100C7000002500260027002000900190029003909C
:100C800001F051FEC748007801280BD10422C54964
:100C90002831C54808F07CF947B25FB1FF2004B0A5
:100CA000BDE8F081C0482D38FFF709FD04460CB1BE
:100CB000FF20F4E7BD48AFF2182109680160BA4887
:100CC0002D3890F82D00C043B8490871B6482D382A
:100CD00090F82E00C0434871B34A002003F06CF82E
:100CE000C4B20CB1FF20DAE76946022002F02AFD07
:100CF000C4B20CB1FF20D2E79DF80900AA492D39F2
:100D0000C873202081F852009DF8020001F03FFCDA
:100D1000A5492D3981F853009DF8030001F037FCF7
:100D2000A1492D3981F854009DF8040001F02FFCF1
:100D30009D492D3981F8550000219B482D3880F8B8
:100D4000561080F8571080F85810523001F0B3FB5D
:100D500005469548253801F0AEFB06469DF809008A
:100D60006D280ED19048253801F0A5FB064629468E
:100D70003046FFF797FC04460CB1FF208FE70020B8
:100D80008DE7FF208BE730B58DB0002401F0CBFD5F
:100D900003F033F86946002002F098FAC4B214B1A7
:100DA000FF200DB030BD9DF800507F4A00219320F8
:100DB00002F0CAFAC4B20CB1FF20F2E7022D01D052
:100DC000042D02D1FFF751FF04460CB1FF20E8E7E4
:100DD0000020E6E71FB5002400200090019002905B
:100DE000039001F0A0FD6946042002F0ABFCC4B200
:100DF00014B1FF2004B010BD9DF80B00042802D1EF
:100E000046F68520F6E704208DF80B000F21684692
:100E100001F0DEF98DF80F006946042002F0EAFCCB
:100E2000C4B20CB1FF20E5E711205F492D3981F8EC
:100E300024000020DEE710B5002401F074FDFFF768
:100E4000C9FF04460CB1204610BD57482D3890F814
:100E50002400574981F8A500084653492D394968AF
:100E6000C0F8A610AFF2BC310968C0F8AA10002083
:100E7000EAE70146080E4F4AD070080C9070080A45
:100E8000507011701046704738B500240020009053
:100E900001F049FD464890F8AF00012809D107202C
:100EA00041492D3981F824000846C06908620020B4
:100EB00038BD3D482D38C0693B492D390969884204
:100EC00002D249F20140F3E737492D390869FFF7AB
:100ED000D0FF054605232A461946C02002F008FD2A
:100EE000C4B20CB1FF20E3E706236A460521C02007
:100EF00002F0FEFC2C482D38C0692B492D390969B8
:100F0000401A29492D390862062081F82400002062
:100F1000CEE710B5002401F006FDFFF7B5FF04464B
:100F20000CB1204610BD20482D3890F824002049EF
:100F300081F8A50008461C492D394968C0F8A6105B
:100F400019492D39096AC0F8AA100020EAE710B53E
:100F5000044601F0E8FC207B617B0844FF2807D1B0
:100F6000207BA17B884203D1607BE17B884201D05A
:100F7000012010BD2078217A88421ED16078617AE4
:100F800088421AD1A078A17A884216D1E078E17A15
:100F9000884211E0000C0140482F0020BBFF006A8E
:100FA00000000000E41D0020B51D0020D422002018
:100FB000D81C00203C00002001D00220D9E7207876
:100FC00021790844FF2810D1607861790844FF280E
:100FD0000BD1A078A1790844FF2806D1E078E17907
:100FE0000844FF2801D10020C3E70320C1E70146E0
:100FF000C87800068A7800EB02404A7800EB0220AD
:101000000A7810447047000038B50446002000906C
:101010006A460021FA48006806F009FF204603F0FE
:1010200064FAF748006806F0B1FF38BD38B50446E9
:10103000002000906A460021F148006806F0F7FEA3
:10104000204607F0F5FF85B22946204603F0A9FAAD
:10105000EB48006806F09AFF38BD38B504460D46E7
:10106000002000906A460021E548006806F0DFFE97
:101070002946204603F095FAE148006806F086FF0D
:1010800038BD08B50020009000BF01F04CFCDD49E0
:10109000684603F0F0F8012802D19DF8000008BD71
:1010A000052300221146104607F000FCEDE710B5BD
:1010B00003F014FA10BD2DE9F04104460D46164622
:1010C0001F464FF000083B4632462946204603F0B3
:1010D00078FA80464046BDE8F0810FB410B58EB076
:1010E00000200D9011A80C900DAA0021C4480068A2
:1010F00006F09DFEC4480C9A1099006807F036FD72
:10110000C148006807F094FF84B22146BE480068D9
:1011100003F047FA0AA804F0F1F89DF82E000090B9
:101120009DF82D309DF82C20B8A102A807F030FDC5
:101130000DAA0021B948006806F079FEB84807F00A
:1011400077FF044602A807F073FF2044B0F57A7FCA
:1011500003D202A9B24807F08AFFB14807F068FF3E
:101160000446A948006807F063FF2044B0F57A7F81
:1011700004D2A5480168AA4807F079FFA74800688B
:1011800006F004FF9E48006806F000FF0EB010BC99
:101190005DF814FBF0B585B005460020A149087044
:1011A00000240027A0A0FFF741FF04E0285D0DF810
:1011B0000400601CC4B2285D202803D0285D08B15B
:1011C000142CF3DB00200DF8040000260DE006EBE4
:1011D0004600964A02EB80004168684607F0F2FF3D
:1011E00008B9374603E0701CC6B2092EEFDB00BF1A
:1011F000092E02DBFF2005B0F0BD18E0285D202895
:1012000013D188480078002801DD00202855601C93
:10121000C4B228198649834A127841F822008148CD
:101220000078401C7F49087001E0601CC4B2285D52
:101230000028E3D13846DEE7704700B50246FFF7E5
:10124000FBFF002000BD2DE9F04395B007460C469A
:101250004FF00008002601F066FB73A0FFF7E6FEE2
:10126000022F0FD07348FFF7E1FE73A0FFF7DEFEF9
:1012700077A0FFF7DBFE7DA0FFF7D8FEFF2015B0BB
:10128000BDE8F08382A1206807F070FE28B981A133
:10129000206807F06BFE00287DD00A2205A960684F
:1012A00007F024FE054660680599884204D17AA0BB
:1012B000FFF7BCFEFF20E2E77E48854204DD76A012
:1012C000FFF7B4FEFF20DAE77B4895FBF0F0C0B2F1
:1012D0008DF82000784895FBF0F100FB115042F2A8
:1012E000107190FBF1F0C0B28DF82100084695FB1B
:1012F000F0F100FB11504FF47A7190FBF1F0C0B2A5
:101300008DF82200084695FBF0F100FB1150642196
:1013100090FBF1F0C0B28DF82300642095FBF0F152
:1013200000FB11500A2190FBF1F0C0B28DF82400AF
:101330000A2095FBF0F100FB1150C0B28DF825009A
:101340009DF821009DF8201040EA01105B4981F8CA
:1013500036009DF823009DF8221040EA0110C1B22A
:10136000564880F837109DF825009DF8241040EA73
:101370000110C1B2514880F8381051A0FFF756FE55
:101380004E4890F83600642148434C4991F8371094
:1013900001EB810100E010E000EB4101474890F8CB
:1013A00038000A184AA11848006807F0F1FB1648EF
:1013B0000068FFF73BFE002061E74BA1206807F0C3
:1013C000D5FD28B94AA1206807F0D0FD002815D026
:1013D000606807F02DFE0E2804D047A0FFF726FE18
:1013E000FF204CE70026AFE007F0B8FB006861681B
:1013F0008957405C202802D101209CE03EE199E021
:1014000004000020C82A0020440000202530327843
:101410003A253032783A2530327820000C0000200E
:10142000241E0020400000200D0A0000342300206C
:10143000A023002024AA0008B8F1CABD3A20736591
:101440007420787878207878782E0D0A00000000D3
:10145000C0FDC8E7C9E8D6C369643A207365742043
:101460006964203030303030310D0A00C7E5B3FDFB
:1014700061706E7061737377643A20736574206174
:10148000706E706173737764204E554C4C0D0A007A
:1014900069640000494400004944CEAA36CEBBCA64
:1014A000FDD7D6A3ACC7EBD6D8D0C2CAE4C8EBA14F
:1014B000A30D0A003F420F00A0860100D81C0020A7
:1014C000736574206964206F6B2E0D0A00000000A4
:1014D000D6D5B6CBB1E0BAC5286964293A20253003
:1014E00036640D0A0000000074696D65000000009C
:1014F00054494D4500000000B8F1CABDB2BBB6D496
:10150000A3ACC7EBD6D8D0C2CAE4C8EBA1A3B8F14C
:10151000CABDCEAA595959594D4D444448484D4D1C
:101520005353D2BBB9B23134B8F6D7D6BDDAA1A382
:101530000D0A00000020012805D0AFF24400FFF79B
:1015400075FDFF209BE6761C606807F071FDB042D8
:101550003FF64AAF08A8616807F046FD9DF82100F4
:1015600000F0BEFF81469DF8200000F0B9FF49EA77
:101570000010C0B28DF818009DF8230000F0B0FFF5
:1015800081469DF8220000F0ABFF49EA0010C0B28E
:101590008DF819009DF8250000F0A2FF81469DF806
:1015A000240000F09DFF49EA0010C0B28DF81A0037
:1015B0009DF8270000F094FF81469DF8260000F07A
:1015C0008FFF49EA0010C0B28DF81B009DF829007A
:1015D00000F086FF81469DF8280000F081FF49EA6F
:1015E0000010C0B28DF81C009DF82B0000F078FFB1
:1015F00081469DF82A0000F073FF49EA0010C0B24E
:101600008DF81D009DF82D0000F06AFF81469DF8C1
:101610002C0000F065FF49EA0010C0B28DF81E00F2
:1016200006A803F0AFFEFEA0FFF700FD06A803F03A
:1016300042FE8046B8F1000F02D0002006900790CD
:101640009DF81E009DF81D109DF81C209DF81B3074
:10165000CDE90132CDE903109DF81A0000909DF804
:1016600019309DF81820F2A1FC48006807F090FAA4
:10167000FA480068FFF7DAFC002000E6F848FFF7B8
:10168000D5FCAFF24C20FFF7D1FCAFF23C20FFF7C6
:10169000CDFCAFF22820FFF7C9FCFF20EFE570B5C5
:1016A00088B005460E4601F03EF9E0A0FFF7BEFC0B
:1016B000EC48FFF7BBFCEC48FFF7B8FCEBA0FFF7EA
:1016C000B5FC06A9052006F0B5FF04460CBB0522B3
:1016D000EDA101A807F05CFA01A8FFF7A7FCDDE97E
:1016E00006014218EAA101A807F052FA01A8FFF783
:1016F0009DFCE9A101A8069A07F04AFA01A8FFF7A4
:1017000095FCE7A101A8079A07F042FA01A8FFF7A4
:101710008DFCE5A0FFF78AFC06A9092006F08AFFE8
:1017200004460CBB0922D8A101A807F031FA01A890
:10173000FFF77CFCDDE906014218D5A101A807F0FE
:1017400027FA01A8FFF772FCD3A101A8069A07F0B7
:101750001FFA01A8FFF76AFCD1A101A8079A07F0B8
:1017600017FA01A8FFF762FCD6A0FFF75FFC06A9F5
:10177000072006F05FFF04460CBB0722C2A101A8A8
:1017800007F006FA01A8FFF751FCDDE9060142184F
:10179000BFA101A807F0FCF901A8FFF747FCBEA113
:1017A00001A8069A07F0F4F901A8FFF73FFCBCA1D5
:1017B00001A8079A07F0ECF901A8FFF737FCC8A0C9
:1017C000FFF734FC06A9062006F034FF04460CBBE4
:1017D0000622ADA101A807F0DBF901A8FFF726FC5E
:1017E000DDE906014218AAA101A807F0D1F901A874
:1017F000FFF71CFCA8A101A8069A07F0C9F901A8E7
:10180000FFF714FCA6A101A8079A07F0C1F901A8E7
:10181000FFF70CFC002008B070BD70B504460D4603
:1018200001F081F881A0FFF701FC24B9B3A0FFF714
:10183000FDFBFF2070BDB7A1286807F0C3FC20B1F5
:10184000B6A0FFF7F3FBFF20F4E7B7A0FFF7EEFB2E
:10185000BBA0FFF7EBFB0020ECE7F0B587B0064636
:101860000F46002500BF01F05EF870A0FFF7DEFB19
:1018700003F077FE0446642094FBF0F0B34981F84E
:101880003600642094FBF0F100FB11400A2190FB2C
:10189000F1F0C1B2AD4880F837100A2094FBF0F1A6
:1018A00000FB1140C1B2A94880F83810A84AA9A18C
:1018B0006A48006807F06CF968480068FFF7B6FBF3
:1018C000A24890F8360064214843A04991F83710A7
:1018D00001EB810100EB41019C4890F838000A18A7
:1018E000AFF214415D48006807F052F95B480068A8
:1018F000FFF79CFB95480079012805D199A157482D
:10190000006807F045F904E09BA15448006807F01F
:101910003FF952480068FFF789FB05A803F0CBFCAC
:10192000054615B10020059006909DF81A009DF817
:1019300019109DF818209DF81730CDE90132CDE936
:1019400003109DF8160000909DF815309DF81420A6
:101950008DA14248006807F01BF940480068FFF776
:1019600065FB7A480078012811D193A13B480068B3
:1019700007F00EF939480068FFF758FB73484088B4
:1019800000F0080030B18FA0FFF750FB02E091A0FB
:10199000FFF74CFB31480068FFF748FB002007B019
:1019A000F0BD02460020704770B505460E46002483
:1019B0001EA0FFF73BFB8AA0FFF738FB00BF13E038
:1019C00004EB44008A4901EB8000406850B104EB0D
:1019D0004401874A02EB81014868FFF727FB13A007
:1019E000FFF724FB601CC4B2092CE9DB002070BDAA
:1019F000002100BF08E0002001EB41027C4B03EB1B
:101A000082025060481CC1B20929F4DB0020784AE8
:101A1000108078A05060AFF26F0090600120EDE080
:101A20007365742074696D65206F6B2E0D0A00005C
:101A300054494D453A2025303258253032582D250D
:101A40003032582D2530325820253032583A253042
:101A500032583A253032580D0A0000004400002068
:101A600024AA0008DCA9000894A900085461736B3B
:101A700053746172742020202020202020202020F8
:101A8000202020203A20200025346420200000005F
:101A900025313164202000002531306420200000F1
:101AA00025313064200D0A005461736B47656E6503
:101AB00072616C4374726C20202020202020202032
:101AC0003A2020007461736B5F7368656C6C202032
:101AD0002020202020202020202020203A2020000C
:101AE0007461736B5F677072732020202020202048
:101AF00020202020202020203A202000666F726DB8
:101B00006174BAF3C3E6C7EBB8FAC3DCC2EB2E0DBF
:101B10000A0000003030303030300000C3DCC2EB4F
:101B2000B4EDCEF32E0D0A00537461727420666F0B
:101B3000726D617474696E672E2E2E0D0A0000009E
:101B400053756363657373210D0A0000D81C002070
:101B5000ACA60008B0E6B1BEBAC53A2025730D0A9E
:101B600000000000B4E6B4A2C9E8B1B83A45455255
:101B70004F4D0D0A00000000B4E6B4A2C9E8B1B8A8
:101B80003A5352414D0D0A00CAB1BCE42874696D44
:101B900065293A2025303258253032582D253032EB
:101BA000582D2530325820253032583A25303258B9
:101BB0003A253032580D0A00C9E8B1B8B9CAD5CFB4
:101BC0000D0A0000B6C1D0B4CDB7B4EDCEF3210DEF
:101BD0000A000000C9E8B1B8D5FDB3A30D0A0000A2
:101BE000616C6C20636F6D6D616E64733A0D0A00F9
:101BF0003423002068656C70000000009081E6A22C
:101C0000E6480261AFF2652242610220E34A108396
:101C1000E3A2E248C261AFF2BD3202620320DF4AB2
:101C20009084E1A2DD488262AFF21142C2620420D8
:101C3000DA4A1086DEA2D9484263AFF29D5282632F
:101C40000520D64A9087DCA2D4480264AFF6092268
:101C500042640620D14AA2F84800D8A2CF48C26404
:101C6000AFF629220265002070478EB000250020C3
:101C7000009000BFFFF7BCFE00208DF80400D1A04B
:101C8000FFF7D4F9D8A0FFF7D1F900BF00BF00F0EB
:101C90004AFE0021012000F020FA4FF4FA7000F013
:101CA0005BFA0121084600F018FA00BFFFF7E9F9D6
:101CB00044B2302C01DB392C15DD612C01DB7A2C90
:101CC00011DD412C01DB5A2C0DDD2E2C0BD0202CEC
:101CD00009D02D2C07D02F2C05D00D2C03D0082C8B
:101CE00001D02C2CE2D1082C40D00D2C02D0202C7D
:101CF00053D142E01DB9BCA0FFF798F935E0681E4A
:101D000001A9085C202801D1681EC5B2002001A9E4
:101D1000485501A8FFF73EFA0646FF2E0AD10025D6
:101D2000002001A94855B1A0FFF780F9AEA0FFF748
:101D30007DF91AE006EB4600984901EB80008768C0
:101D40006A460021AE48006806F071F8AD49AE4819
:101D50000078B847AA48006806F018F90025002066
:101D600001A94855A0A0FFF761F920E025B1681E40
:101D7000C5B2A6A0FFF75AF919E0681E01A9085CD0
:101D8000202809D045B1302D06DC01A84455681C37
:101D9000C5B2E0B2FFF738F909E0302D06DC01A842
:101DA0004455681CC5B2E0B2FFF72EF900BF6EE7DC
:101DB0002DE9FE4F80460E4614461D46DDE90C9A7D
:101DC0000027BB469248808D401C91498885084673
:101DD000808D642801DB002088858D48828D8DA14F
:101DE000684606F0D5FE002733E0FFF760F906F1FC
:101DF000180081B24046FFF730F953464A4629465B
:101E00002046FFF758F98346BBF1000F1ED120781A
:101E1000402800D01BE02988204600F076FC00B165
:101E200015E0E07D452803D1207E522800D10EE048
:101E3000A0799DF80010884204D1E0799DF8011046
:101E4000884200D003E00020BDE8FE8F00BF781C70
:101E5000C7B20A2FC9DDFF20F6E730B585B00020F4
:101E6000049000F060FD6DA16E48006807F0BCF8BA
:101E70006C48006807F0DCF885B20A204FF4FA716C
:101E800004ABCDE90010684829460268654800683F
:101E9000FFF78EFF0446002C7BD163490968087E5A
:101EA00000F01EFB054660490968C87D00F018FB7C
:101EB00045EA0010C0B28DF808005B490968887EC9
:101EC00000F00EFB054658490968487E00F008FB03
:101ED00045EA0010C0B28DF8090053490968087F2F
:101EE00000F0FEFA054650490968C87E00F0F8FA8D
:101EF00045EA0010C0B28DF80A004B490968887F96
:101F000000F0EEFA054648490968487F00F0E8FA13
:101F100045EA0010C0B28DF80B004349096891F8FA
:101F2000200000F0DDFA05463F490968C87F00F04F
:101F3000D7FA45EA0010C0B28DF80C003A4909689A
:101F400091F8220000F0CCFA05463749096891F86B
:101F5000210000F0C5FA45EA0010C0B28DF80D006E
:101F60003149096891F8240000F0BAFA05462E4973
:101F7000096891F8230000F0B3FA45EA0010C0B2F6
:101F80008DF80E0002A803F020FA002005B030BD45
:101F9000FFE7FF20FAE70000666C700034230020A2
:101FA000696E666F00000000666F726D61740000FC
:101FB00063686B73746B00007365740075706C6F8D
:101FC000616400000D0ABBB6D3AD2121210D0ACA00
:101FD000E4C8EB696E666FB2E9BFB4D0C5CFA2B2F8
:101FE000CECAFD2E000000000D0A23000D0A577214
:101FF0006F6E6420636F6D6D616E642E0000000073
:1020000000000020A023002040000020082008003D
:10201000D81C0020253032640000000054494D4592
:1020200030303000440000204800002010B5044645
:10203000012C08D10121404803F085FE02213E48D1
:1020400003F083FE1DE0022C08D101213A4803F081
:102050007CFE0221384803F076FE12E0032C08D102
:102060000121354803F071FE0221334803F06DFE73
:1020700007E00121304803F066FE02212E4803F0FC
:1020800062FE10BD08B50121082004F06BF80120A4
:10209000ADF8000010208DF8030002208DF802003A
:1020A0006946254803F0A2FD0121234803F04BFEB9
:1020B0000220ADF8000010208DF8030002208DF8FA
:1020C000020069461C4803F091FD02211A4803F002
:1020D0003AFE0020FFF7AAFF08BD70B505460C4682
:1020E00055B924B90121144803F02FFE10E0012155
:1020F000114803F028FE0BE0012D09D124B902217B
:102100000D4803F022FE03E002210B4803F01BFE02
:1021100070BD10B500210846FFF7DFFF4FF47A705D
:1021200000F01AF801210020FFF7D7FF4FF47A7072
:1021300000F012F810BD0000000C01400022002148
:1021400007E0002201E0531CDAB2692AFBDB4B1CDA
:1021500099B28142F5DB704730B50446002500BFD7
:1021600004E06420FFF7EAFF681C85B2A542F8DBB3
:1021700030BD70B50446002500F0D5FB00BF07E078
:102180000A2300221146104606F090FB681C85B217
:102190000A2094FBF0F0A842F2DC70BD10B50446B2
:1021A0002046FFF7D9FF10BD10B504462046FFF7C3
:1021B000E0FF10BD0022002107E0002201E0531CD7
:1021C000DAB20B2AFBDB4B1C99B28142F5DB70477C
:1021D00010B502460B460021002000BF03E0545C0E
:1021E00060404C1CA1B29942F9DB10BD01460A4681
:1021F000C81701EB90708010A1EB800070B96420CB
:1022000091FBF0F300FB131030B94FF4C87091FB51
:10221000F0F300FB131008B9012070470020FCE721
:1022200010B5044600F07FFB04F00F00211101EB14
:10223000810100EB4100C0B210BD2DE9F0439BB01D
:1022400004463422FE490EA806F062FF3422FC49FF
:10225000343101A806F05CFF2078202803D000204C
:102260001BB0BDE8F0836078FFF7DAFF8146207885
:10227000FFF7D6FF00EBC00101EB001009EB80086F
:102280004046FFF7B3FF0746012F2AD1A078FFF79A
:10229000C7FF01A951F82080E078FFF7C1FF404453
:1022A00000EB4000C000C0EB00108000C0EB00104D
:1022B0004FEA80082079FFF7B3FFC0EB00108000E1
:1022C000C0EB001008EB80086079FFF7A9FFC0EBB6
:1022D000001008EB8008A079FFF7A2FF08EB0005CB
:1022E00029E0A078FFF79CFF0EA951F82080E07844
:1022F000FFF796FF404400EB4000C000C0EB001029
:102300008000C0EB00104FEA80082079FFF788FFBB
:10231000C0EB00108000C0EB001008EB8008607973
:10232000FFF77EFFC0EB001008EB8008A079FFF7F5
:1023300077FF08EB00054FF4FA660BE03046FFF735
:1023400055FF012802D1BF48054401E0BE480544BD
:10235000701C86B26078FFF763FF80462078FFF735
:102360005FFF00EBC00101EB001008EB8000B04202
:10237000E4DC284674E72DE9F0439BB004460025D1
:102380003422AF4968310EA806F0C2FE3422AC49AF
:102390009C3101A806F0BCFE2078202803D0002044
:1023A0001BB0BDE8F0836078FFF73AFF81462078E4
:1023B000FFF736FF00EBC00101EB001009EB8008CE
:1023C0004046FFF713FF0746012F2AD1A078FFF7F9
:1023D00027FF01A951F82080E078FFF721FF404452
:1023E00000EB4000C000C0EB00108000C0EB00100C
:1023F0004FEA80082079FFF713FFC0EB0010800040
:10240000C0EB001008EB80086079FFF709FFC0EB14
:10241000001008EB8008A079FFF702FF08EB000529
:1024200029E0A078FFF7FCFE0EA951F82080E078A3
:10243000FFF7F6FE404400EB4000C000C0EB001088
:102440008000C0EB00104FEA80082079FFF7E8FE1B
:10245000C0EB00108000C0EB001008EB8008607932
:10246000FFF7DEFEC0EB001008EB8008A079FFF755
:10247000D7FE08EB00054FF4FA660BE03046FFF795
:10248000B5FE012802D16F48054401E06E480544BD
:10249000701C86B26078FFF7C3FE80462078FFF795
:1024A000BFFE00EBC00101EB001008EB8000B04262
:1024B000E4DC284674E7014600200A7813064A78CF
:1024C00003EB02438A7803EB0222CB78D0187047E3
:1024D000014600204B780A7803EB022290B2704745
:1024E00010B5044600F01FFA392C03DCA4F13000CB
:1024F000C0B210BD612C01D0412C01D10A20F8E7F7
:10250000622C01D0422C01D10B20F2E7632C01D0C8
:10251000432C01D10C20ECE7642C01D0442C01D1D8
:102520000D20E6E7652C01D0452C01D10E20E0E717
:102530000F20DEE701460A2091FBF0F200FB1210AB
:102540000A2291FBF2F240EA0210C0B2704710B5C5
:10255000044600F0E8F9092C03DC04F13000C0B2B5
:1025600010BD0A2C01D14120FAE70B2C01D14220E9
:10257000F6E70C2C01D14320F2E70D2C01D14420C9
:10258000EEE70E2C01D14520EAE74620E8E710B53A
:10259000044600F0C8F90A2094FBF0F100FB11405A
:1025A0000A2194FBF1F140EA0110C0B210BD2DE9FF
:1025B000F04106460F4614460025B046002C01DCCB
:1025C000BDE8F081002506E07A5D08EB45001FA11B
:1025D00006F0DEFA6D1CA542F6DB002008F81400B8
:1025E00000BFEDE72DE9F04707460D4616460024EB
:1025F000B84600F098F9002E01DCBDE8F087002411
:1026000019E0204604EBD0714910A4EB410101B957
:1026100010E0285DFFF764FF8246611E685CFFF7EB
:102620005FFF4AEA0010A14604EBD971491008F88F
:10263000010000BF641CB442E3DB00BFDDE7000023
:10264000B4A600080085E2018033E101253032782C
:1026500000000000014601F13000C0B270472DE9D2
:10266000F04104460D460027002600F05CF900BF4B
:1026700003E0E05D4640781CC7B2281FB842F8DC92
:10268000E81E215C06F00F003030814209D1281F7E
:10269000205C302101EB1611884202D10020BDE8F8
:1026A000F081FF20FBE72DE9F04105460F4600F0E1
:1026B0003AF94FF6FF7418E000F035F915F8011BF0
:1026C00084EA012400260EE004F4004028B141F21F
:1026D000210080EA440084B203E04FF6FF7000EA74
:1026E0004404701CC6B2082EEEDB3800A7F10101CD
:1026F0008FB2E1D12046BDE8F08170B504460D46A9
:1027000029462046FFF7CFFF70BD70B506460D463F
:10271000002400F008F9A81E81B23046FFF7C3FF7D
:102720000446E21704EB1262C2F30723AA1EB25C4E
:1027300093420CD1E21704EB12621212A4EB0222B4
:10274000D3B26A1EB25C934201D1002070BDFF205B
:10275000FCE770B5054600246748007900285DD184
:102760006648007858B9664829880180A978817040
:1027700062480078401C61490870002070BD5F48C5
:102780000078502802DB50205C490870002428E0C3
:1027900004EB44005A4A81180222284606F0F8FB4E
:1027A000E8B904EB4400564908448078A978884287
:1027B00001DDFF20E2E704EB440051490844807842
:1027C000A978884201D10020D8E704EB44004C49A5
:1027D000084429880180A97881700020CEE7601C18
:1027E000C4B2464800788442D2DB44480078844230
:1027F00012DBA87880B141480078401C3F4908703E
:102800000846007800EB40003D49084429880180D3
:10281000A97881700020B1E70020AFE73748007841
:1028200080B903222946002003F0DAF83348007803
:10283000401C3249087008460178FE2003F055F824
:1028400000209BE72D480078502802DB50202B49C0
:10285000087000242FE004EB4402294BD11804EB4C
:102860004400032203F0ABF804EB4400244A81182F
:102870000222284606F08CFBD8B904EB440020491C
:1028800008448078A978884201DDFF2076E704EBD0
:1028900044001B4908448078A978884201D100206F
:1028A0006CE704EB44000322294603F099F800206A
:1028B00064E7601CC4B2114800788442CBDB0F4847
:1028C0000078844215DBA87898B10C49097801EBAF
:1028D00041000322294603F083F808480078401C91
:1028E0000649087008460178FE2002F0FEFF00202D
:1028F00044E7002042E70000D81C00204C000020E4
:10290000F023002010B545F2555003F093FE062049
:1029100003F093FE40F2712003F092FE03F093FE69
:1029200003F096FE10BD10B503F08DFE10BD000043
:1029300008B5FFF7F8FF0121042003F013FC012084
:10294000ADF8000010208DF8030003208DF8020080
:102950006946FA4803F04AF90121F84803F0F3F90F
:102960001020ADF800008DF8030003208DF8020060
:102970006946F24803F03AF91021F04803F0E3F910
:102980002020ADF8000010208DF8030003208DF802
:1029900002006946E94803F029F92021E74803F0DD
:1029A000D2F94020ADF8000048208DF80300032044
:1029B0008DF802006946E14803F018F98020ADF86F
:1029C000000010208DF8030003208DF802006946F6
:1029D000DA4803F00BF98021D84803F0B4F908BDB8
:1029E000704770B5044600251BE02021D34803F052
:1029F000ACF904F0800020B98021D04803F0A5F99B
:102A000003E08021CD4803F09EF9FFF7E9FF202184
:102A1000CA4803F098F9FFF7E3FF6006040E681C4C
:102A2000C5B2082DE1DB2021C44803F08EF98021D6
:102A3000C24803F08AF970BD2DE9F04104460D4605
:102A400000267F2000EA440705F0D6FF0646102145
:102A5000BA4803F07AF93846FFF7C3FF2846FFF774
:102A6000C0FF1021B54803F06EF9304605F0C8FFED
:102A7000BDE8F08170B50024002516E06006040E64
:102A8000FFF7AEFF2021AD4803F05DF94021AB48D0
:102A900003F03FF908B1601CC4B2FFF7A1FF202189
:102AA000A64803F052F9681CC5B2082DE6DB2046A3
:102AB00070BD2DE9F04104460025802040EA440025
:102AC000C7B205F099FF054610219C4803F03DF977
:102AD0003846FFF786FFFFF7CDFF06460020FFF7D9
:102AE00080FF1021954803F02EF9284605F088FF55
:102AF0003046BDE8F08170B505460C4600262846F4
:102B0000FFF7D7FF46B246EA0400C1B22846FFF7F6
:102B100093FF70BD70B505460C4600262846FFF7AA
:102B2000C8FF46B226EA0400C1B22846FFF784FF78
:102B300070BD10B501218248FFF7DDFF10BD2DE902
:102B4000F041002700240026002500BF4FF4FA7052
:102B5000FFF702FB0121794803F0F5F86420FFF745
:102B6000FBFA05F049FF07460121744803F0EDF830
:102B70000A20FFF7E3FA0AE06D1C7248854206D985
:102B8000384605F03DFF6FF07C00BDE8F0816C48F1
:102B90000838FFF78EFF00F03F003F28ECD10025FA
:102BA00009E06D1C6748854205D9384605F028FFC5
:102BB0006FF07C00E9E762480838FFF77AFF00F021
:102BC0003F000028EDD176B900214FF00040FFF71B
:102BD00033FF5B480838FFF76CFF10B16FF0190640
:102BE00003E0002601E06FF01806002E7BD10021E3
:102BF00053481630FFF720FF402151481630FFF7A9
:102C00001BFF0A20FFF79AFA40214D481630FFF7C4
:102C100081FF0E214A481430FFF70EFF4A484B4A05
:102C2000127810F8221046480B30FFF705FF46488F
:102C3000464A127800EB8200817841480C30FFF759
:102C4000FBFE4348434A127810F832103C481030DB
:102C5000FFF7F2FE3E483F4A127800EBC20081784F
:102C600037481130FFF7E8FE39483A4A127800EB4E
:102C7000C200017932481330FFF7DEFE3448354A8E
:102C8000127800EBC20081792D481430FFF7D4FE92
:102C9000AD212B481230FFF7CFFE01212848153017
:102CA000FFF7CAFE1A2126482030FFF7C5FE022191
:102CB00023482230FFF7C0FE032121482430FFF7CC
:102CC000BBFE3F211E480930FFF7B6FE03211C481A
:102CD0000830FFF71FFF0120FFF73EFA03211848D5
:102CE0000830FFF708FF384605F08AFE1448123016
:102CF000FFF7DFFE0446AD2C00D027E71048133065
:102D0000FFF7D7FE0446FE2C00D01FE70C48153015
:102D1000FFF7CFFE0446012C00D017E7084810301B
:102D2000FFF7C7FE0446732C00D00FE7044820309D
:102D3000FFF7BFFE04461A2C0ED007E7000801403B
:102D400009000080A0860100A4A7000861000020FF
:102D500084A7000860000020FA48FFF7AAFE044696
:102D6000022C00D0F2E6F748801CFFF7A2FE0446D2
:102D7000032C00D0EAE6F3481938FFF79AFE044620
:102D80003F2C00D0E2E6EF481638FFF792FE0446EB
:102D9000ED48EE49097800EB81004088A04200D060
:102DA000D4E63046F1E610B50024FFF7C8FEC4B201
:102DB0000CB1FF2010BD0020FCE72DE9F84F0746BD
:102DC0008A46934600200090804600260024FFF7A4
:102DD000AAFD3F21DB482538FFF72EFE3F21D948C9
:102DE0002438FFF729FE0021D6482A38FFF724FEB1
:102DF000FFF79FFE0020D6498871122F29D00DDCE5
:102E0000072F21D005DCB7B1012F17D0032F42D1F6
:102E100017E00B2F19D00C2F3DD117E0192F29D017
:102E200004DC142F18D0162F35D118E01A2F24D017
:102E30001E2F30D124E0002600242FE0112610247C
:102E40002CE00726042429E000BF00BF0526042447
:102E500024E01126102421E0042604241EE0B948B1
:102E60001C38FFF726FE00114042B949487106267A
:102E7000042413E00526042410E0052604240DE0B4
:102E8000B0481C38FFF715FE00114042B0494871A8
:102E90003D26042402E06FF0160800BF00BFB8F121
:102EA000000F7CD146F0200644F0200446F080015B
:102EB000A4482538FFF7C0FD3946A2482A38FFF755
:102EC000BBFD05F099FD0090B2E09E482538FFF764
:102ED000F0FD06469B482438FFF7EBFD00EA0605A7
:102EE0009B48807928439A49887105F00100E0B336
:102EF000002194482A38FFF79FFD92482738FFF7B2
:102F0000D8FDC0F1400000F0FF099148C078904919
:102F10008978401A48450BDC8D48C0788C498978FF
:102F2000401A00F0FF09012186482538FFF784FD8B
:102F300000260EE0864880781AF80010814829386B
:102F4000FFF77AFD82488078401C81498870701CA8
:102F5000C6B24E45EEDB39467A482A38FFF76CFD9B
:102F6000012178482438FFF767FD05F01000C8B14B
:102F7000102174482438FFF75FFD822171482538FD
:102F8000FFF75AFD7248007893280BD102216D4853
:102F90000938FFF751FD00214FF0004000E0B6E096
:102FA000FFF74AFD05F00E00E8B166482738FFF745
:102FB00080FD814600260EE062482938FFF779FD42
:102FC000634909790BF8010061480079401C6049A8
:102FD0000871701CC6B24E45EEDB05F00A01594877
:102FE0002438FFF729FD05F00400B0B12021554831
:102FF0002538FFF721FD202152482438FFF71CFD1A
:1030000025F020055248807920F020005049887131
:1030100004214C482438FFF70FFD05F0200038B19B
:10302000202148482438FFF707FD4FF0FF3805E01E
:1030300047488079204000283FF447AF00BF009800
:1030400005F0DEFC0120FFF787F83F213D482538D9
:10305000FFF7F2FC3F213B482438FFF7EDFC042149
:1030600038482238FFF747FD002136482A38FFF755
:10307000E3FC37488079204008B96FF01A08B8F1AE
:10308000000F4DD12F482138FFF713FD00F0170432
:103090004CB304F0010040B12A482038FFF709FD85
:1030A0002B49C8716FF0170807E000202849C87144
:1030B00004F0020008B16FF0040804F0040008B145
:1030C0006FF0140804F0100018B1FFF732FD6FF034
:1030D000120804F0080008B16FF00108B8F1000F01
:1030E00001D16FF063081E2F01D0162F1BD1154898
:1030F0002638FFF7DEFC00F007044CB11448417994
:103100000079401E04EBC0000844114948710AE0F0
:103110000F484179007901EBC0000D49487102E088
:1031200000200B49C8714046BDE8F88F00200849CF
:10313000087048708870C870087148718871C871CB
:10314000704700002B000080A4A700086100002049
:103150005000002010B50446112C6ED2DFE804F0B8
:10316000AA09131D27313B454F59636E78828C960F
:10317000A0000721FE48FFF75FFC6A21FC48801C85
:10318000FFF75AFCA0E00721F948FFF755FCA02102
:10319000F748801CFFF750FC96E00921F448FFF740
:1031A0004BFCA021F248801CFFF746FC8CE0092173
:1031B000EF48FFF741FCFF21ED48801CFFF73CFC86
:1031C00082E00D21EA48FFF737FCA021E848801C87
:1031D000FFF732FC78E00B21E548FFF72DFCA0213A
:1031E000E348801CFFF728FC6EE00E21E048FFF763
:1031F00023FCA021DE48801CFFF71EFC64E00D21AB
:10320000DB48FFF719FC8121D948801CFFF714FC2B
:103210005AE00F21D648FFF70FFC4121D448801C0B
:10322000FFF70AFC50E00F21D148FFF705FC812190
:10323000CF48801CFFF700FC46E03BE01321CC4860
:10324000FFF7FAFB1121CA48801CFFF7F5FB3BE0B2
:103250001321C748FFF7F0FB2121C548801CFFF769
:10326000EBFB31E01321C248FFF7E6FB4121C048E8
:10327000801CFFF7E1FB27E01321BD48FFF7DCFBD3
:103280008121BB48801CFFF7D7FB1DE00921B8480E
:10329000FFF7D2FBFF21B648801CFFF7CDFB13E000
:1032A0001521B348FFF7C8FBFF21B148801CFFF789
:1032B000C3FB09E00721AE48FFF7BEFB2146AC483F
:1032C000801CFFF7B9FB00BF00BF10BD70B50546FD
:1032D0000C4600260DB9262500E052250220FFF7F6
:1032E00039FF0321A2480838FFF7A6FB0821A048B0
:1032F0002138FFF70FFC07219D481B38FFF79CFB87
:10330000FFF714FF9B480068057001209A49C870B8
:103310009A480268974801681E20FFF74EFD06464E
:1033200016B1002020700DE093484079102804D099
:10333000002020706FF00A0604E000268F48006825
:1033400000782070304670BD2DE9F04F85B0824680
:103350000C4616464FF00009C8460027002004908E
:10336000002503900120FFF7F5FE28218048103842
:10337000FFF762FB08217E482138FFF7CBFB0020D6
:103380000490E3E0FFF7D2FE032179480838FFF705
:1033900053FB2046E11704EB5171C910A4EBC101A6
:1033A000CFB2CFB147EA0710C1B271481B38FFF75F
:1033B00043FB2046E11704EB5171C910491C01F091
:1033C000FF08072F0ED193206B49087039466848D3
:1033D0001B38FFF731FB05E02046E11704EB517184
:1033E000C1F3C7086348006880F800A02046E117D1
:1033F00004EB5171C910202202EB011139445D4ADE
:1034000012685170002506E0715D5A480268A81CD8
:103410001154681CC5B24545F6DB08F10200564957
:10342000C87056480268534801681E20FFF7C5FC63
:103430008146072F33D100200090002514E04F482B
:10344000006810F805B04D480068405DC5F10701FF
:1034500088406A1C00991141084348490968485549
:10346000CDF800B0681CC5B243480079A842E6DC3C
:103470004148407940490979401A3F494871084616
:10348000C07960B10846C079801D092190FBF1F038
:10349000C0F107003849C97908443749C871B9F102
:1034A000000F03D009F1180000284FD132484079AD
:1034B000C4F12801884202D06FF00A0946E00020DA
:1034C00003905FB1A8F10100305C2C4909680978CC
:1034D0000843A8F1010170540120039000250DE07C
:1034E000B8F1040F00DD0DE0039828442349096872
:1034F000085C08EB05017054681CC5B2C8F10400F3
:10350000A842EDDC00BF09F11800C0B13078717835
:103510004840B1784840F178484002901648007918
:10352000401E16490968095C0191DDE901108842D5
:1035300002D06FF0070909E00120049006E00E4870
:10354000C0792044C01BC4B24FF00009049818B9D8
:10355000B9F1000F3FF416AFB9F1000F02D008A087
:1035600000683060202102481038FFF7D3FA0BE0E2
:103570002A00008058000020500000205C0000203D
:103580003030303000000000484605B0BDE8F08F14
:103590002DE9F04105460E4614460120FFF7DAFDFD
:1035A0000F21FE48FFF748FA0821FC481938FFF7B9
:1035B000B1FA0027FFF7BAFDF948006805707020DE
:1035C000F74909684870F64800683168C0F8021089
:1035D000F34800688078F2490968C9784840F049A2
:1035E000096809794840EE49096849794840EC4939
:1035F000096888710720EB49C870EB480268E84801
:1036000001681E20FFF7D9FB07460020207057B93C
:10361000E4484079082802D06FF00A0703E0E24846
:103620000068007820703846BDE8F0812DE9F0414F
:1036300005464FF000080120FFF78CFDFFF779FAEF
:10364000FFF774FD002416E0285D00F00F06285DEA
:103650000711F04346EA0010012101EB4401D04A72
:1036600012685054F84347EA0010CD49096801F840
:103670001400601CC4B2062CE6DB0C20C949C870DB
:10368000C9480268C64801681920FFF796FB8046C2
:103690004046BDE8F0812DE9F04105460E4617464B
:1036A0000024BE481838FFF704FA00F0400444B183
:1036B00004F0400010B16FF0080440E06FF0030424
:1036C0003DE00720FFF746FDB54800680570B448A7
:1036D00000684770B24800683168C0F80210FFF710
:1036E00025FD0620AF49C870AF480268AC480168A4
:1036F0000C20FFF762FB040021D1A8481D38FFF71A
:10370000D8F900F0070010B16FF00A0417E0FFF7D6
:103710000DFD0020A349C870A3480268A0480168B5
:103720001420FFF74AFB040009D19C481938FFF721
:10373000C0F900F0080000B101E06FF0030420467A
:10374000BDE8F08170B505460E460024FFF7F1F99B
:103750000320FFF7FFFC0F219048FFF76DF9FFF7FB
:10376000E5FC30208E49096808708D480068457076
:1037700002208C49C8708C480268894801681E2064
:10378000FFF71BFB0446F4B1601CB0B185484079DB
:10379000042812D184480068007800F00F008249A4
:1037A0000968087080480068007800F00A0010B9C5
:1037B0006FF0090401E06FF0050410227BA1304690
:1037C00005F061FC11E077480079102807D06FF010
:1037D0000B04102275A1304605F055FC05E01022BF
:1037E00071480168304605F04EFC0120FFF7B2FC3D
:1037F000204670BD70B505460E4600240420FFF734
:10380000A9FC0F216548FFF717F9FFF78FFCA020EF
:103810006349096808706248006845700220614980
:10382000C870614802685E4801681E20FFF7C5FA4B
:103830000446601CF0B15B484079042802D06FF068
:103840000A0417E058480068007800F00F00564955
:103850000968087054480068007810B10A2805D13A
:1038600002E06FF0090404E0002402E06FF00504B8
:1038700000BF00BF002C39D10320FFF76BFCFFF71E
:1038800055FC102231464648006805F0FCFB10202C
:103890004449C87044480268414801681E20FFF747
:1038A0008CFA0446601CF0B13E484079042802D0EE
:1038B0006FF00A0417E03C480068007800F00F0041
:1038C00039490968087038480068007810B10A283A
:1038D00005D102E06FF00E0404E0002402E06FF076
:1038E000050400BF00BF0120FFF734FC204670BD77
:1038F0002DE9F04105460E46174698460024012062
:10390000FFF728FCFFF712FC2548006805702448E3
:103910000068467002202349C87023480268204886
:1039200001681E20FFF749FA0446601C18B31D48C1
:103930004079042802D06FF00A041CE01A4800689D
:10394000007800F00F0018490968087016480068F0
:10395000007820B1012807D00A2808D102E06FF0D2
:10396000090407E0002405E06FF07B0402E06FF03B
:10397000050400BF00BF6CBB0420FFF7EBFBFFF7A3
:10398000D5FB074800683968016004200549C87004
:1039900005480268024801681E2011E022000080EC
:1039A00058000020500000205C00002030303030F3
:1039B00030303030303030303030303000000000C7
:1039C000FFF7FBF90446FCB9F6484079042802D019
:1039D0006FF00A041BE0F4480068007800F00F0064
:1039E000F14909680870F0480068007810B10128B2
:1039F00006D102E06FF0090405E06FF07B0402E0FD
:103A00006FF0050400BF02E0601C00B9002474BB25
:103A1000FFF78CFBB020E54909680870E3480068AF
:103A200080F801800220DF49C870DF480268DF4863
:103A300001681E20FFF7C1F90446601CB8B1D948DF
:103A40004079042802D06FF00A041DE0D6480068CF
:103A5000007800F00F00D44909680870D248006867
:103A6000007828B1012808D00A2809D103E00BE02A
:103A70006FF0090407E0002405E06FF07B0402E02A
:103A80006FF0050400BF00BF2046BDE8F08110B50F
:103A90006FF005040120FFF75DFBFFF747FB5020A7
:103AA000C249096808700020C049096848700220AE
:103AB000BC49C870BC480268BC4801681E20FFF7BA
:103AC0007CF9044624B1601C08B11A3000B9002406
:103AD0000021B748FEF7B0FF204610BD2DE9F047A2
:103AE00080460D4616461C46DDE9089A0027B9F1C6
:103AF000000F07D00F21AE482130FEF79DFFA81E12
:103B0000C5B204E00321AA482130FEF795FF0AF070
:103B1000FF00FFF71FFBFFF70CF8FFF707FB002D77
:103B20000CDDA048C570324641461E20FFF745F91E
:103B300007462FB99B480079207001E06FF03B07E2
:103B40006FB9B9F1000F0CD02078801C20700021D3
:103B50002078801E31542078401E315401E000202E
:103B60002070F8B2BDE8F0872DE9F04FA1B0804693
:103B7000894615461E464FF0000AD3460020209085
:103B800005901220049000BF0027002003900D2014
:103B900099FBF0F000F0FF0B0D2099FBF0F100FB1A
:103BA0001190C0B2209000BF57E08248007818B949
:103BB00001208049087002E000207E4908707D499C
:103BC0000978049808438DF84C000AEB8A0000EB52
:103BD000CA0000EB08010D220DF14D0005F053FA6B
:103BE0000C20012105AB06AACDE90010102113A875
:103BF000FFF774FF04461CB99DF8140003281DDA72
:103C00000320FEF7A9FA6B48007840F0B2008DF867
:103C10004C000C20012105AB06AACDE900100321C0
:103C200013A8FFF75BFF04461CB99DF81400032896
:103C300004DA4CF2020021B0BDE8F08F9DF81800C4
:103C40005C49097841F0A201884202D04CF202009E
:103C5000F1E70AF1010000F0FF0ADA45A5DB55485B
:103C6000007818B901205349087002E0002051493A
:103C700008705048007840F002008DF84C000BEBC3
:103C80008B0000EBCB0000EB08010DF14D00209AFA
:103C900005F0F9F90C200121CDE900102098C01C95
:103CA000C1B205AB06AA13A8FFF718FF04461CB95A
:103CB0009DF8140003281BDA0320FEF74DFA3D4857
:103CC000007840F0B2008DF84C000C20012105ABCB
:103CD00006AACDE90010032113A8FFF7FFFE044652
:103CE0001CB99DF81400032802DA4CF20200A2E786
:103CF00000BF9DF8180000F0120012282FD107EB2A
:103D0000870101EBC70148190D220DF1190105F0DA
:103D1000BAF92848007818B901202649087002E04D
:103D20000020244908702348007840F0A2008DF854
:103D30004C000520012105AB06AACDE900100321A6
:103D400013A8FFF7CBFE04461CB99DF81400032806
:103D500002DA4CF202006EE7781CC7B2C9E79DF8A0
:103D60001410CA1E07EB870101EBC70148190DF1BA
:103D7000190105F088F907EB870000EBC7009DF8F3
:103D800014100844C01E30703078801E285C0390E8
:103D90003078401E295C039801EB002080B203902C
:103DA000039848E7500000205C00002058000020E5
:103DB00001000080620000202DE9F04105460E461A
:103DC0001746FEF7B0FD3046FFF730FC044614B14D
:103DD0002046BDE8F081A806020E39466020FFF7B4
:103DE0005AFC04460CB12046F3E70020F1E710B579
:103DF0001021F848FEF77FFE10BD10B500241021F9
:103E0000F448FEF787FE0A20FEF7B3F9F148FEF703
:103E100050FE0446082C10D07CB11021ED48FEF76E
:103E200079FE0A20FEF7A5F9EA48FEF742FE0446AD
:103E3000082C02D00CB1FEF782FE10BD70B505460D
:103E40000024FEF770FD00BF04E02046FEF731FEBF
:103E50002855641C402CF8D370BD2DE9F0478046EE
:103E60000D4616461C46DDE9089A0027B9F1000FF9
:103E700007D00F21D7481930FEF7DEFDA81EC5B2C6
:103E800004E00321D3481930FEF7D6FD0AF0FF0005
:103E9000FFF760F9FEF74DFEFFF748F9002D0CDD46
:103EA000CD48C570324641461E20FEF786FF0746C4
:103EB0002FB9C9480079207001E06FF03B0767B95E
:103EC000B9F1000F09D02078801C207000212078E3
:103ED000801E31542078401E3154F8B2BDE8F0877E
:103EE0002DE9F04FA5B08046894615461E464FF095
:103EF000000A00202490239008901220079000BF11
:103F00000027002006908346B44A07CA03AB07C3C4
:103F10000D2099FBF0F0C0B224900D2099FBF0F138
:103F200000FB1190C0B2239000BF57E0AC4800786E
:103F300018B90120AA49087002E00020A8490870B9
:103F4000A7490978079808438DF858000AEB8A00BA
:103F500000EBCA0000EB08010D220DF1590005F03D
:103F600092F80C20012108AB09AACDE9001010211C
:103F700016A8FFF772FF04461CB99DF8200003281D
:103F80001DDA0320FEF7E8F89548007840F0B2000B
:103F90008DF858000C20012108AB09AACDE90010CA
:103FA000032116A8FFF759FF04461CB99DF820000D
:103FB000032804DA4CF2020025B0BDE8F08F9DF82A
:103FC00024008749097841F0A201884202D04CF2CE
:103FD0000200F1E70AF1010000F0FF0A249882458F
:103FE000A4DB7F48007818B901207D49087002E001
:103FF00000207B4908707A48007840F002008DF874
:104000005800249800EB800202EBC00000EB08018E
:104010000DF15900239A05F036F80C200121CDE965
:1040200000102398C01CC1B208AB09AA16A8FFF75C
:1040300014FF04461CB99DF82000032821DA4FF034
:10404000000B14E00C20012108AB09AACDE90010F7
:10405000032103A8FFF701FF04461CB19DF82000CF
:10406000032800DD06E00BF1010000F0FF0BBBF1BF
:104070000A0FE7DB00BFBBF10A0F02DB4CF20200C4
:104080009AE700BF9DF8240000F0120012282FD1FB
:1040900007EB870101EBC70148190D220DF125013E
:1040A00004F0F1FF4E48007818B901204C4908701F
:1040B00002E000204A4908704948007840F0A20018
:1040C0008DF858000C20012108AB09AACDE9001099
:1040D000032116A8FFF7C1FE04461CB99DF8200075
:1040E000032802DA4CF2020066E7781CC7B2C9E77F
:1040F0009DF82010CA1E07EB870101EBC701481984
:104100000DF1250104F0BFFF07EB870000EBC700AE
:104110009DF820100844C01E30703078801E285C46
:1041200006903078401E295C069801EB002080B292
:104130000690069840E770B5A2B0002007900024D2
:10414000002600252648007818B901202449087067
:1041500002E00020224908702148007840F0020067
:104160008DF854001FA00168CDF8551000798DF826
:1041700059000C20012107AB08AACDE90010082145
:1041800015A8FFF76AFE9DF8200000F0F000F02867
:1041900039D19DF81C2008A902A804F0B9FF9DF8A8
:1041A0001C60002424E00C20012107AB08AACDE903
:1041B0000010314602A8FFF750FE9DF81C00001FBA
:1041C00008A9085C902811D19DF81C00C01E085C4D
:1041D00060B910E00900008050000020B4A700087A
:1041E00062000020800E000000000000601C84B20D
:1041F000B4F57A7FD7DB00BFB4F57A7F03DB4CF2EE
:10420000020022B070BD9DF81C00001F08A90D5CC3
:104210009DF81C00C01E085C00EB052085B22846F6
:10422000EFE700002DE9F04704460E461746984692
:104230004FF00009ECB11C2E1BD3254604F0DCFB2B
:104240008146A6F11800E881E9892C4605F118009D
:104250000844A86005F11800286068600020A88163
:104260002F61C5F81480484604F0CAFB0120BDE860
:10427000F087FF20FBE72DE9F04106460D460027B9
:104280004FF0FF082DB32C4604F0B6FB0746A0897B
:10429000002812DD2068007830702068401C206003
:1042A000A1682068884202D304F118002060A08928
:1042B000401EA0814FF0010808E04FF0040820697B
:1042C00020B121463046226990478046384604F0A6
:1042D00097FB4046BDE8F0812DE9F04105460E46CA
:1042E00000274FF0FF0835B32C4604F085FB074646
:1042F000A089E189884211DA606806706068401C14
:104300006060D4E90101884202D304F118006060C2
:10431000A089401CA0814FF0010809E04FF0080877
:10432000606928B10122314620466369984780467A
:10433000384604F065FB4046BDE8F08170B50446A0
:104340000025002634B104F057FB0546A68928460F
:1043500004F056FB304670BD70B5044600250026BB
:1043600034B104F049FB0546E689284604F048FBD1
:10437000304670BD70B5044600266CB1254604F089
:104380003BFB06462C4605F11800286068600020BB
:10439000A881304604F034FB70BD034600BF002006
:1043A000704700B587B0AFF20D0300224FF4806173
:1043B000FA48FFF737FFAFF21D0300224FF4806188
:1043C000F748FFF72FFF012144F2040001F0CAFE75
:1043D000F44801F02BFF4FF40070ADF818000320F3
:1043E0008DF81A0018208DF81B0006A9EE4801F080
:1043F000FDFB4FF48060ADF8180003208DF81A0023
:1044000004208DF81B0006A9E74801F0EFFB4FF4EC
:10441000E13002900020ADF80C00ADF80E00ADF8D0
:104420001000ADF814000C20ADF8120002A9DD4810
:1044300001F03FFF25208DF8040003208DF80500D2
:1044400002208DF8060001208DF8070001A801F078
:1044500004FB012240F22551D24801F0C2FF0121A4
:10446000D04801F0B2FF07B000BD2DE9FF4107467B
:104470000D4616461C46FEF756FA0097082D03D146
:104480000020ADF8040003E04FF48050ADF80400C4
:10449000012E03D10020ADF8060003E04FF40050D8
:1044A000ADF806001CB90020ADF808000AE0012CA8
:1044B00004D14FF4C060ADF8080003E04FF4806011
:1044C000ADF808000020ADF80C000C20ADF80A0093
:1044D0006946B44801F0EDFEBDE8FF8110B5FEF776
:1044E00022FAAF48FFF746FF10BD10B50446FEF7AD
:1044F0001AFA2146AB4801F0D5FF00BF4021A94878
:1045000002F03EF80128F9D110BD70B505460E46FF
:104510000024FEF708FA002240F22551A14801F0DC
:1045200060FF00BF04E0285DFFF7DFFF601C84B27E
:10453000B442F8DB012240F225519A4801F051FFC4
:1045400070BD38B500240020009040F225519548F8
:1045500002F02CF838B1934801F0A8FFC4B221460C
:104560008F48FFF7B9FE40F227718E4802F01EF81F
:10457000B0B18A496846FFF77EFE012805D19DF853
:104580000010884801F08EFF0AE040F2277185484C
:1045900002F036F8002240F22771824801F021FF34
:1045A00038BD70B505460E460024FEF7BCF900BFC5
:1045B00004E0285DFFF799FF601C84B2B442F8DB89
:1045C00070BD2DE9F84305460F46904699460020F8
:1045D000009000240026FEF7A6F900BF7049684647
:1045E000FFF749FE012806D19DF800202046611CF6
:1045F0008CB22A541EE0FEF796F9B8F1000F06D1EE
:10460000052300221146104604F050F9E6E7761C17
:104610000520B8FBF0F0B04205D2002028553C80C0
:10462000FF20BDE8F883052300221146104604F060
:104630003DF9D3E700BF002600BF59496846FFF7A0
:104640001AFE012807D19DF800202046611C8CB27B
:104650002A540026F1E7FEF766F9761C052099FB3F
:10466000F0F0B04203D2002028553C80D9E7052362
:1046700000221146104604F019F9DEE7034600BF98
:104680000020704700B587B0AFF20F0300228021F1
:104690004648FFF7C7FDAFF21B03002280214448C4
:1046A000FFF7C0FD0121042001F05CFD0121480459
:1046B00001F065FD3F4801F0B9FD0420ADF8180098
:1046C00003208DF81A0018208DF81B0006A9364823
:1046D00001F08CFA0820ADF8180003208DF81A00BC
:1046E00004208DF81B0006A92F4801F07FFA4FF433
:1046F000164002900020ADF80C00ADF80E00ADF8A9
:104700001000ADF814000C20ADF8120002A92948E1
:1047100001F0CFFD26208DF8040003208DF8050060
:104720008DF8060001208DF8070001A801F095F929
:10473000012240F225511F4801F053FE01211D487E
:1047400001F043FE07B000BD2DE9FF4107460D46CD
:1047500016461C46FEF7E7F80097082D03D1002007
:10476000ADF8040003E04FF48050ADF80400012ED2
:1047700003D10020ADF8060003E04FF40050ADF87F
:1047800006001CB90020ADF8080019E0012C13D177
:104790004FF4C060ADF8080012E000004826002089
:1047A000C82A00200038014000080140482A0020A3
:1047B000C82E0020004400404FF48060ADF808008F
:1047C0000020ADF80C000C20ADF80A006946F8484E
:1047D00001F06FFDBDE8FF8110B5FEF7A4F8F548C4
:1047E000FFF7C8FD10BD10B50446FEF79CF8214642
:1047F000F148FFF771FD012240F22771EC4801F00A
:10480000F0FD10BD70B505460E460024FEF78BF88E
:1048100000BF04E0285DFFF7E6FF601C84B2B442ED
:10482000F8DB70BD38B500240020009040F225511F
:10483000DF4801F0BBFE38B1DD4801F037FEC4B2FD
:104840002146DC48FFF748FD40F22771D84801F0C7
:10485000ADFEB0B1D8496846FFF70DFD012805D17E
:104860009DF80010D24801F01DFE0AE040F22771C9
:10487000CF4801F0C5FE002240F22771CC4801F07C
:10488000B0FD38BD70B505460E460024FEF74BF866
:1048900000BF04E0285DFFF7A6FF601C84B2B442AD
:1048A000F8DB70BD2DE9F84305460F469046994662
:1048B0000020009000240026FEF735F800BFBD4917
:1048C0006846FFF7D8FC012806D19DF80020204655
:1048D000611C8CB22A541CE0B8F1000F06D10523EC
:1048E00000221146104603F0E1FFE8E7761C0520A0
:1048F000B8FBF0F0B04205D2002028553C80FF20E4
:10490000BDE8F883052300221146104603F0CEFFD0
:10491000D5E700BF002600BFA6496846FFF7ABFCFD
:10492000012807D19DF800202046611C8CB22A5432
:104930000026F1E7761C052099FBF0F0B04203D287
:10494000002028553C80DBE7052300221146104655
:1049500003F0ACFFE0E7034600BF0020704700B55E
:1049600087B0AFF20D03002204219448FFF75AFCF0
:10497000AFF21D03002204219148FFF753FC0121EF
:10498000082001F0EFFB0121880401F0F8FB8D48BD
:1049900001F04CFC4FF48060ADF8180003208DF856
:1049A0001A0018208DF81B0006A9874801F01EF98F
:1049B0004FF40060ADF8180003208DF81A000420B1
:1049C0008DF81B0006A9804801F010F94FF416502D
:1049D00002900020ADF80C00ADF80E00ADF810000C
:1049E000ADF814000C20ADF8120002A9754801F0D2
:1049F00060FC27208DF8040003208DF805000020BE
:104A00008DF8060001208DF8070001A801F025F8B7
:104A1000012240F225516B4801F0E3FC0121694875
:104A200001F0D3FC07B000BD2DE9FF4107460D465C
:104A300016461C46FDF777FF0097082D03D100208E
:104A4000ADF8040003E04FF48050ADF80400012EEF
:104A500003D10020ADF8060003E04FF40050ADF89C
:104A600006001CB90020ADF808000AE0012C04D1B2
:104A70004FF4C060ADF8080003E04FF48060ADF87B
:104A800008000020ADF80C000C20ADF80A006946C3
:104A90004C4801F00EFCBDE8FF8110B5FDF743FF67
:104AA0004748FFF767FC10BD10B50446214645484E
:104AB00001F0F8FC00BF4021424801F061FD0128EF
:104AC000F9D110BD70B505460E460024FDF72BFF49
:104AD000002240F225513B4801F083FC00BF04E076
:104AE000285DFFF7E1FF601C84B2B442F8DB0122CD
:104AF00040F22551334801F074FC70BD38B50024F4
:104B00000020009040F225512E4801F04FFD38B1B1
:104B10002C4801F0CBFCC4B221462948FFF7DCFB4E
:104B200040F22771274801F041FDB0B123496846A2
:104B3000FFF7A1FB012805D19DF80010214801F0E5
:104B4000B1FC0AE040F227711E4801F059FD002235
:104B500040F227711B4801F044FC38BD70B5054692
:104B60000E460024FDF7DFFE00BF04E0285DFFF7DE
:104B70009BFF601C84B2B442F8DB70BD2DE9F843A2
:104B800005460F46904699460020009000240026D6
:104B9000FDF7C9FE00BF0A496846FFF76CFB012814
:104BA00014D19DF800202046611C8CB22A542AE0C2
:104BB00000440040C82E0020482A00206400002045
:104BC0006800002000480040000C0140B8F1000FD0
:104BD00006D1052300221146104603F067FEDAE7EE
:104BE000761C0520B8FBF0F0B04205D20020285515
:104BF0003C80FF20BDE8F8830523002211461046C3
:104C000003F054FEC7E700BF002600BF0F49684607
:104C1000FFF731FB012807D19DF800202046611CD9
:104C20008CB22A540026F1E7761C052099FBF0F09F
:104C3000B04203D2002028553C80DBE70523002248
:104C40001146104603F032FEE0E700006800002045
:104C500008B50121082001F085FA8020ADF8000098
:104C600014208DF8030003208DF802006946FD48EA
:104C700000F0BCFF8021FB4801F065F84020ADF852
:104C8000000014208DF8030003208DF8020069460F
:104C9000F44800F0ABFF4021F24801F054F8012045
:104CA00003F03FF8F049086008BD10B50520FDF796
:104CB00081FA10BD38B500248020ADF800004820EE
:104CC0008DF8030003208DF802006946E54800F0E6
:104CD0008DFFFFF7EAFF8021E24801F01AF800B9E2
:104CE00000E001248020ADF8000014208DF80300BE
:104CF00003208DF802006946DA4800F077FFFFF7DD
:104D0000D4FF204638BD38B500244020ADF800005F
:104D100048208DF8030003208DF802006946D14831
:104D200000F064FFFFF7C1FF4021CE4800F0F1FF23
:104D300000B900E001244020ADF8000014208DF8F7
:104D4000030003208DF802006946C64800F04EFFBC
:104D5000FFF7ABFF204638BD10B50520FDF72AFA56
:104D600010BD10B5FDF7DFFDFFF7F6FF8021BD4850
:104D700000F0E9FFFFF7F0FF4021BA4800F0E3FF41
:104D8000FFF7EAFFFFF796FF08B9FF2010BDFFF716
:104D9000BAFF08B9FF20F9E78021B24800F0D5FF3B
:104DA000FFF7DAFF4021AF4800F0CFFFFFF7D4FF55
:104DB0000020EBE710B5FDF7B6FDFFF7CDFF802132
:104DC000A84800F0C0FFFFF7C7FF4021A54800F04A
:104DD000BAFFFFF7C1FF8021A24800F0B6FFFFF73E
:104DE000BBFF40219F4800F0B0FFFFF7B5FF002058
:104DF00010BD10B5FDF797FD80219A4800F0A5FF82
:104E0000FFF7AAFF4021974800F09DFFFFF7A4FF9E
:104E10008021944800F097FFFFF79EFF0520FDF7E3
:104E20009BF910BD10B5FDF77EFDFFF795FF8021C2
:104E30008C4800F08AFFFFF78FFF4021894800F07F
:104E400082FFFFF789FF4021864800F07EFFFFF7D1
:104E500083FF10BD10B5FDF766FDFFF77DFF8021D4
:104E6000804800F070FFFFF777FF40217D4800F099
:104E70006AFFFFF771FF40217A4800F066FFFFF7F5
:104E80006BFF10BD10B5FDF74EFDFFF765FF40212C
:104E9000744800F058FFFFF75FFFFFF70BFF044671
:104EA0004021704800F051FFFFF756FF0CB9002079
:104EB00010BDFF20FCE770B50546FDF734FD00246A
:104EC0001DE005FA04F000F0800020B18021654863
:104ED00000F039FF03E08021624800F036FFFFF761
:104EE0003BFF40215F4800F02EFFFFF735FF4021D8
:104EF0005C4800F02AFFFFF72FFF601CC4B2082CAB
:104F0000DFDB8021574800F01EFFFFF725FF40211F
:104F1000544800F018FFFFF71FFFFFF7CBFE0646CF
:104F20004021504800F011FFFFF716FF304670BDDA
:104F300070B50024FDF7F7FC80214A4800F003FF1C
:104F4000002515E04021474800F0FDFEFFF704FF73
:104F50006006040EFFF7AEFE012801D1601CC4B24A
:104F60004021404800F0F1FEFFF7F6FE681CC5B294
:104F7000082DE7DB204670BD2DE9F84380460F463B
:104F8000164699460024002500200090FDF7CBFC32
:104F90006A4600213448006802F049FFFFF7E1FE4D
:104FA0000446C4B1142513E0FFF723FFFFF7D9FE31
:104FB000044614B1681E85B200E00BE045B9FFF766
:104FC00018FF2948006802F0E1FFFF20BDE8F883E0
:104FD000002DE9D100BF4046FFF76DFF04463CB10C
:104FE000FFF707FF2048006802F0D0FFFF20EDE741
:104FF0003846FFF760FF04463CB1FFF7FAFE1A4857
:10500000006802F0C3FFFF20E0E7FFF7AAFE08F107
:105010000101C8B2FFF74FFF04463CB1FFF7E9FEBC
:105020001148006802F0B2FFFF20CFE7002507E03B
:10503000FFF77EFF3070FFF7F5FE761C681C85B227
:10504000A9F10100A842F3DCFFF772FF3070FFF70F
:1050500001FFFFF7CEFE0448006802F097FF002032
:10506000B4E70000000C01407400002010B50446B5
:10507000FDF759FC2CB94FF48051134800F065FE40
:1050800005E0012C03D121030F4800F05CFE10BDA8
:1050900008B50121042001F065F84FF48050ADF807
:1050A000000010208DF8030002208DF802006946F0
:1050B000054800F09BFD4FF48051034800F043FE8B
:1050C0000120FFF7D3FF08BD00080140F8B50746EF
:1050D0000E460024002500200090FDF724FC6A46BF
:1050E0000021BD48006802F0A2FEFFF73AFE044628
:1050F000BCB1142512E0FFF77CFEFFF732FE044638
:1051000014B1681EC5B200E00AE03DB9FFF771FEB8
:10511000B148006802F03AFFFF20F8BD002DEAD147
:1051200000BF6420FFF7C7FE04463CB1FFF761FEF5
:10513000A948006802F02AFFFF20EEE73846FFF793
:10514000BAFE04463CB1FFF754FEA348006802F0E3
:105150001DFFFF20E1E73046FFF7ADFE04463CB1FE
:10516000FFF747FE9C48006802F010FFFF20D4E7DD
:10517000FFF73FFE9848006802F008FF0020CCE7E8
:1051800070B5012002F0CDFD94490860002510E0C3
:105190002021E020FFF79AFF044604B107E0202118
:1051A000F020FFF793FF044604B100E003E0681C21
:1051B000C5B20A2DECDB00BF70BD70B50546FDF72A
:1051C000B2FBAC780A2C05DB102C01DB122C01DDC4
:1051D000FF2070BDEC78312C01DDFF20F9E704F0F1
:1051E0000F04092C01DDFF20F3E72C79232C01DDCE
:1051F000FF20EEE704F00F04092C01DDFF20E8E7B3
:105200006C79592C01DDFF20E3E704F00F04092C31
:1052100001DDFF20DDE7AC79592C01DDFF20D8E767
:1052200004F00F04092C01DDFF20D2E70020D0E7B5
:105230000146CA1701EB92729210A1EB820292B959
:10524000642091FBF0F200FB121050B94FF4C870CB
:1052500091FBF0F200FB121008B90120704700200A
:10526000FCE70120FAE70020F8E7FEB50446002538
:105270000026FDF758FB07236A4631466420FFF7F6
:105280007BFE05460DB1FF20FEBD9DF80000A0711C
:105290009DF8010060719DF8020020719DF80400E6
:1052A000E0709DF80500A0709DF806006070202059
:1052B00020700020E8E7F8B505460026002400200D
:1052C00000906A4600214548006802F0B0FD00BF2A
:1052D0000CE02846FFF7C9FF06462EB93F48006894
:1052E00002F054FE0020F8BD601CC4B20A2CF0DBB2
:1052F0003A48006802F04AFEFF20F4E710B5044681
:105300002046FFF7D8FF10BD70B50446FDF70BFB34
:105310002021E020FFF7DAFE05460DB1FF2070BD29
:10532000A1790020FFF7D2FE05460DB1FF20F6E778
:1053300061791020FFF7CAFE05460DB1FF20EEE7A8
:1053400021792020FFF7C2FE05460DB1FF20E6E7D8
:10535000E1784020FFF7BAFE05460DB1FF20DEE7F9
:10536000A1785020FFF7B2FE05460DB1FF20D6E729
:1053700061786020FFF7AAFE05460DB1FF20CEE759
:105380000020CCE7F8B50546002600240020009058
:105390006A4600211148006802F049FD00BF0CE098
:1053A0002846FFF7B1FF06462EB90C48006802F008
:1053B000EDFD0020F8BD601CC4B20A2CF0DB0748EC
:1053C000006802F0E3FDFF20F4E710B50446204634
:1053D000FFF7D8FF10BD0000740000207800002007
:1053E00008B50121082000F0BDFE4FF48060ADF843
:1053F000000048208DF8030002208DF80200694665
:10540000644800F0F3FB4FF48061624800F09BFCBD
:105410004FF40060ADF8000048208DF80300022032
:105420008DF8020069465B4800F0E0FB4FF4006134
:10543000584800F088FC4FF48050ADF80000482038
:105440008DF8030002208DF802006946514800F0F3
:10545000CDFB4FF480514F4800F075FC4FF40050E5
:10546000ADF8000048208DF8030002208DF80200FE
:105470006946484800F0BAFB4FF40051454800F037
:1054800062FC4FF48040ADF8000048208DF8030026
:1054900002208DF8020069463E4800F0A7FB4FF459
:1054A00080413C4800F04FFC4FF40040ADF8000054
:1054B00048208DF8030002208DF802006946354827
:1054C00000F094FB4FF40041324800F03CFC4FF4F4
:1054D0008070ADF8000048208DF8030002208DF8A0
:1054E000020069462B4800F081FB4FF48071294887
:1054F00000F029FC4FF40070ADF8000048208DF852
:10550000030002208DF802006946224800F06EFB7D
:105510004FF400711F4800F016FC2020ADF8000089
:1055200048208DF8030002208DF8020069461948D2
:1055300000F05CFB2021174800F005FC08BD024686
:10554000002000210AE042FA01F303F001031843AE
:10555000072901DA4306180E4B1CD9B20829F2DBE1
:10556000704770B50B4800F0DDFBC04384B204F413
:10557000807020B90020084981F86A0003E001200A
:10558000054981F86A0004F47E4425122846FFF795
:10559000D6FF70BD000C0140D81C002010B5044699
:1055A000FDF7C1F92CB94FF40061274800F0CBFB9F
:1055B00005E0012C03D1E102234800F0C6FB10BD39
:1055C00008B50121042000F0CDFD4FF40060ADF8D6
:1055D000000010208DF8030002208DF802006946BB
:1055E000194800F003FB4FF40061174800F0ABFBD3
:1055F0000120FFF7D3FF08BD10B50446FDF793F96E
:105600000020FFF7CBFF2046FCF7B3FD0120FFF79A
:10561000C5FF10BD10B5FDF786F90020FFF7BEFFEE
:105620006420FCF7A6FD0120FFF7B8FF6420FCF71B
:10563000A0FD0020FFF7B2FF6420FCF79AFD0120D7
:10564000FFF7ACFF10BD00000008014008B50121C4
:10565000042000F087FD0C20ADF8000010208DF82C
:10566000030003208DF802006946E64800F0BEFA08
:105670004FF48070ADF8000010208DF80300022078
:105680008DF802006946DF4800F0B0FA4FF48071EF
:10569000DC4800F05AFB0120DB490860DB49C1F817
:1056A000880108BD08B50121042000F05BFD04203D
:1056B000ADF8000010208DF8030003208DF80200E3
:1056C0006946D04800F092FA08BD10B5FFF7EAFF2E
:1056D0000120CD49091F0860CC49C1F88C01042084
:1056E000FCF768FD0020C849091F08600420FCF78A
:1056F00061FD0020C549C1F88C0110BD10B5FFF750
:10570000D1FF0020C0490860C049C1F888010420C9
:10571000FCF750FD0120BC490860BC49C1F8880174
:105720000420FCF747FD10BD08B50121042000F05E
:1057300019FD0420ADF8000048208DF80300032077
:105740008DF802006946AF4800F050FA08BD10B568
:105750000024FFF7E9FF0120AB49091F0860FCF7AF
:1057600029FD0120A949C1F88C01FCF723FD07E0C0
:10577000601CC4B2FA2C03DDFFF7C0FF012010BD8E
:10578000A148843800680028F2D19F49086000BF12
:10579000F5E710B500209C490860FFF783FF002063
:1057A0009A49C1F888010220FCF704FD01209649BE
:1057B00008600220FCF7FEFC00209449C1F88C012F
:1057C00010BD10B5002090490860FFF76BFF012065
:1057D0008E49C1F888010220FCF7ECFC01208A49BF
:1057E00008600220FCF7E6FC00208849C1F88C0123
:1057F00010BD70B50446FFF755FF002082490860D0
:10580000002517E0E0098049091F08606006040EC2
:105810000220FCF7CFFC01207C49C1F88C0102205A
:10582000FCF7C8FC0020784908600220FCF7C2FCA5
:10583000681CC5B2082DE5DB70BD70B505460024B7
:10584000FFF772FF002616E000206F490860022073
:10585000FCF7B0FC01206D49C1F88C016006040E14
:1058600069488438006808B1601CC4B20120FCF7A4
:10587000A1FC701CC6B2082EE6DB15B9FFF7A1FF2C
:1058800001E0FFF786FF204670BD10B5FFF7DEFE92
:1058900010BD70B504460026FFF717FF2546E11737
:1058A00004EB11610912A02202EB4101C8B2FFF71B
:1058B000A0FFFFF74CFFE11704EB11610912A4EB05
:1058C0000121C8B2FFF795FFFFF741FFFFF7FDFE8B
:1058D000A120FFF78EFFFFF73AFF0020FFF7ADFF93
:1058E0000646FFF70BFF304670BD70B504460E4606
:1058F000FFF7EBFE2546E11704EB11610912A02228
:1059000002EB4101C8B2FFF774FFFFF720FFE11778
:1059100004EB11610912A4EB0121C8B2FFF769FF82
:10592000FFF715FF3046FFF764FFFFF710FFFFF7A3
:10593000E5FE0A20FCF710FC70BD2DE9F04105469C
:105940000E461746002409E0E20026FA02F2D1B220
:105950002A1990B2FFF7C9FF601CC4B2BC42F3DB46
:10596000BDE8F0812DE9F04107460C4600260025F0
:1059700009E036023919491B491E88B2FFF789FF31
:105980000644681CC5B2A542F3DB3046BDE8F08191
:1059900010B5FF20FFF77DFF0446552C01D10020F4
:1059A00010BD5521FF20FFF7A0FFFF20FFF771FF7B
:1059B0000446552C01D10020F2E70120F0E770B534
:1059C00006460C46154608E03046721C96B2FFF7B4
:1059D00060FF04F8010B681E85B2002DF4D170BD84
:1059E00070B505460C46164606E021782846FFF7B6
:1059F0007CFF681C85B2641C3000A6F101018EB2E8
:105A0000F3D170BD000801408C0121420000214209
:105A10000948804709480047FEE7FEE7FEE7FEE742
:105A2000FEE7FEE7FEE7FEE7FEE7FEE7044805497E
:105A3000054A064B704700008B050008ED00000882
:105A40005843002058490020584500205845002060
:105A500031490143314A1160704770B5002100237C
:105A60000F22C47804B32D4C246804F4E064C4F518
:105A7000E064210AC1F10403CA40447804FA03F146
:105A80008478144021430901254C0678A1550478F7
:105A900004F01F050124AC4005786D11AD0005F13F
:105AA000E025C5F8004109E0047804F01F05012451
:105AB000AC401C4D0678761145F8264070BD1A4A58
:105AC0000A400243154B1B1F1A60704739B1134A35
:105AD000121D12680243114B1B1D1A6006E00F4A8B
